:020000040800F2
:10000000905100249D030008A99700082983000847
:10001000A19700088112000801D400080000000028
:10002000000000000000000000000000A1C2000865
:10003000F11600080000000071BD0008A9C2000808
:10004000B7030008B7030008B7030008B7030008A8
:10005000B7030008B7030008B7030008B703000898
:10006000B7030008B7030008B703000889120008A7
:1000700099120008B7030008B7030008B703000887
:10008000B7030008B7030008B7030008B703000868
:10009000B7030008B7030008B7030008B703000858
:1000A000B7030008B7030008B7030008B703000848
:1000B000B703000879C40008B7030008B7030008B5
:1000C000B7030008B7030008B7030008B703000828
:1000D000B7030008B7030008B7030008C9D2000837
:1000E000B7030008B703000800000000B7030008CA
:1000F000B7030008B7030008B7030008B7030008F8
:10010000B7030008B7030008B7030008B7030008E7
:10011000B7030008B7030008B7030008B7030008D7
:10012000B7030008B7030008B7030008B7030008C7
:10013000B7030008B7030008B7030008B7030008B7
:1001400000000000000000000000000000000000AF
:10015000B7030008B7030008B7030008B703000897
:10016000B7030008B7030008B7030008B703000887
:10017000B7030008B7030008B70300080000000039
:10018000B7030008B7030008B7030008B703000867
:10019000B7030008B7030008B7030008B703000857
:1001A000B7030008B7030008B7030008B703000847
:1001B000B7030008B7030008B7030008B703000837
:1001C000B7030008B7030008B7030008B703000827
:1001D000B7030008B7030008B7030008B703000817
:1001E000B7030008B7030008B7030008B703000807
:1001F000B7030008B7030008B7030008B7030008F7
:10020000B7030008B7030008B7030008B7030008E6
:10021000B7030008B7030008B7030008B7030008D6
:10022000B7030008B7030008B70300080000000088
:10023000B7030008B703000800000000B703000878
:10024000B70300086112000871120008B703000824
:10025000B7030008B7030008B7030008B703000896
:10026000B7030008B7030008B7030008B703000886
:10027000B7030008B7030008399300080000000026
:10028000B7030008B7030008B70300080000000028
:1002900000000000B703000800F002F800F06EF85C
:1002A0000AA090E8000C82448344AAF10107DA45D1
:1002B00001D100F063F8AFF2090EBAE80F0013F0B5
:1002C000010F18BFFB1A43F00103184700C50100D6
:1002D00030C501000A4410F8014B14F00F0508BFA7
:1002E00010F8015B240908BF10F8014B6D1E05D002
:1002F00010F8013B6D1E01F8013BF9D1641E03D0DB
:10030000641E01F8015BFBD19142E4D37047000009
:10031000103A24BF78C878C1FAD8520724BF30C831
:1003200030C144BF04680C60704700000023002403
:1003300000250026103A28BF78C1FBD8520728BFF5
:1003400030C148BF0B607047642900F06D8175298A
:1003500000F06A81732900F0BE84002070471FB549
:100360000DF0A8FD00F02AFF0400002000210DF090
:100370008BFD401C60601FBD10B510BD00F0F8FE85
:100380001146FFF7ECFF0DF07BF900F01BFF03B403
:10039000FFF7F2FF03BC0DF037F800000948804773
:1003A00009480047FEE7FEE7FEE7FEE7FEE7FEE757
:1003B000FEE7FEE7FEE7FEE704480549054A064B6F
:1003C0007047000099C3000899020008904100247A
:1003D00090510024904900249049002472B670473F
:1003E00062B6704772B602B4EFF3118180F31188E0
:1003F000BFF34F8FBFF36F8F084602BC62B67047E2
:1004000072B680F31188BFF34F8FBFF36F8F62B660
:10041000704730BF704720BF7047B0FA80F0704718
:1004200090FAA0F0B0FA80F0704790FAA0F0704710
:1004300053EA020C00F069802DE9F04B4FF0000602
:10044000002B1FBFB3FA83F503FA05F424FA05F66F
:100450005E4012BF1643B2FA82F502FA05F4C5F106
:1004600020051EBF22FA05FC44EA0C04203556EA9A
:10047000044C4FEA144418BF641C4FF000084FF0BE
:100480000009904271EB030C39D3002919BFB1FA6E
:1004900081F701FA07F6B0FA80F700FA07F6C7F11C
:1004A00020071EBF20FA07FC46EA0C062037B6FBE1
:1004B000F4FCA7EB0507103F07F01F0BCBF120065C
:1004C0002CFA06F60CFA0BFB44BFB3460026202F8D
:1004D000A4BF5E464FF0000B5BEA060C08BF4FF06E
:1004E000010B19EB0B0948EB0608ABFB027C06FB82
:1004F00002CC0BFB03CCC01B71EB0C01C1E70B461C
:10050000024641464846BDE8F08B13B5084318BF84
:100510004FF0FF300146AFF30080BDE81C4070474C
:100520000FB4044910B503AA029800F0D9FB10BC1F
:100530005DF814FB603800240FB41CB5084B06AA04
:100540007B4469460090059800F09BFB0446002020
:10055000694600F0A9FB20461CBC5DF814FB0000B6
:100560006507000070B5044685690068C10601D5BD
:10057000302600E02026C00707D070BDD4E9012155
:1005800030469047206A401C20626D1EF6D570BD33
:1005900070B5044685690078C00707D170BDD4E9FD
:1005A000012120209047206A401C20626D1EF6D554
:1005B00070BD09684A0501D540B27047C905FCD530
:1005C00000B2704709684A0501D5C0B27047C90535
:1005D000FCD580B2704770B50C460546012A05D09F
:1005E0002878800600D5EA69002302E0012305E0AF
:1005F0005B1C934202D2E05C0028F9D1A869E6189E
:10060000C01AA861286A184428622846FFF7AAFF82
:1006100004E0D5E9012114F8010B9047B442F8D366
:100620002846FFF7B5FF70BD2DE9F04106460024CE
:1006300010687529314616A510D0FFF7BAFF0028BB
:1006400002DA404213A507E031688A0701D512A5F6
:1006500002E0490704D511A5012401E0FFF7B2FF2C
:1006600000210A2206F1240709E0B0FBF2FCB0FBEE
:10067000F2F302FB1C00303078541846491C002865
:10068000F3D123462A463046BDE8F04100F09ABA3D
:10069000000000002D0000002B00000020000000E2
:1006A0002DE9F0474FF0000A89460446C0F820A023
:1006B0002046E1688847002876D0252806D0D4E96E
:1006C00001219047206A401C2062F1E7E168204642
:1006D00000268847C4F81CA005460027C4F818A0C7
:1006E0002A2D09D028460DF0C7FB38B304EB870844
:1006F000303DC8F8185019E059F8041B204604EBA7
:1007000087029161E1688847012F054618D1E069A9
:10071000002820DA26F020061DE0D8F8180000EBAB
:10072000800005EB40003038C8F818002046E1682A
:10073000884705460DF0A0FB0028EED1012F0AD016
:100740002E2D08D12046E16888477F1C0546022FE0
:1007500046F02006C4DBA069002803DA404246F0D8
:100760000106A061F00701D026F010066C2D0AD01A
:10077000682D08D04C2D39D06A2D35D0742D35D048
:100780007A2D33D016E0E1682F4620468847B842DC
:1007900005460AD16C2F27D04FF48060E1680643EC
:1007A00020468847054605E027E06C2F1AD04FF415
:1007B000807006430DB3A5F14100192802D82035F9
:1007C00046F400664A462946204626604E46FFF714
:1007D000BBFD80B101280BD0F61D26F0070000F10B
:1007E000080965E74020E4E78020D7E70020D5E747
:1007F00006F104095CE7284661E7206ABDE8F08756
:100800000FB400B58DB010A9099000910B904FF076
:10081000FF300A9000200C90064878440690064865
:1008200078446A4607900F9909A800F07FFA0DB046
:100830005DF814FB2F050000470500002DE9FF5F60
:100840001D464FF0FF3B91464FF000085F46D5E94B
:100850000146A96901987F1C8847296A8246884712
:100860000028F6D1BAF1FF3F0CD0002E24F4C0646A
:1008700019DD600614D5BAF12B0F09D0BAF12D0F8E
:100880000ED103E0584604B0BDE8F09F44F4806404
:10089000A96901987F1C8847761E8246002E02DDDA
:1008A000BAF1300F03D0B9F1000F26D032E0A969B8
:1008B000761E01987F1C44F400748847002E8246FF
:1008C00005DDBAF1780F06D0BAF1580F03D0B9F1AF
:1008D000000F10D01EE0B9F1000F02D0B9F1100FD7
:1008E00018D1A969761E01987F1C24F400748847EA
:1008F0008246102002E0082000E00A20814609E03C
:10090000A96908FB0908761E01987F1C44F400744D
:1009100088478246002E05DD4946504600F0F2F930
:100920000028EDDAE96901988847A00502D46FF044
:100930000100A8E7E00725D1600613D5600502D5C0
:10094000C8F1000000E0404629680A1D2A600968D5
:10095000220501D5087015E0220701D5088011E0B5
:1009600008600FE02868011D29600068210502D594
:1009700080F8008006E0210702D5A0F8008001E0A1
:10098000C0F8008038467EE72DE9FF4F4FF00008A1
:100990009A461446C146464683B0D2E901B7CDF81F
:1009A0000080CDF804809169049888471099054625
:1009B0005AEA010005D009E0A1690498761C88472D
:1009C0000546216A284688470028F5D1681C03D0CF
:1009D0005FEACB7005D029E04FF0FF3007B0BDE8EB
:1009E000F08F2068011D2160D0F800801EE002A871
:1009F0006A46E9B200F0CAF9411C07D0801C09D050
:100A00004FF000095FEACB7007D009E0E169049874
:100A100088473DE04FF0010903E0029948F8041BC4
:100A20007F1EA1690498761C88470546002F1ADDB1
:100A3000681C18D0BAF1000F0DD0E81705EBD06094
:100A4000421120F01F005AF822102A1A012090406B
:100A50000142CCD107E010980028C8D12846216A6D
:100A600088470028C3D0E16904988847B9F1000F8E
:100A70000ED1109830B9002E04DD5FEACB7001D1A1
:100A8000C8F80000A068B84202DD109818B117B18C
:100A90006FF00100A2E73046A0E7000010B5044661
:100AA00003E00CF0D5FC401C09D014F8010B0549FB
:100AB0000028F6D1BDE810400A200CF0C9BC4FF068
:100AC000FF3010BD6038002410B5203AC0F00B8014
:100AD000B1E81850A0E81850B1E81850A0E8185034
:100AE000203ABFF4F5AF5FEA027C24BFB1E81850AA
:100AF000A0E8185044BF18C918C0BDE810405FEA0C
:100B0000827C24BF51F8043B40F8043B08BF704787
:100B1000D20728BF31F8023B48BF11F8012B28BF8C
:100B200020F8023B48BF00F8012B70474FF000024D
:100B30000429C0F0128010F0030C00F01B80CCF1EF
:100B4000040CBCF1020F18BF00F8012BA8BF20F85D
:100B5000022BA1EB0C0100F00DB85FEAC17C24BFB1
:100B600000F8012B00F8012B48BF00F8012B70475B
:100B70004FF0000200B5134694469646203922BF36
:100B8000A0E80C50A0E80C50B1F12001BFF4F7AF81
:100B9000090728BFA0E80C5048BF0CC05DF804EB63
:100BA000890028BF40F8042B08BF704748BF20F8D1
:100BB000022B11F0804F18BF00F8012B70477047CF
:100BC000704770472DE9F0470D4699469246044616
:100BD00000F124080168880604D5E06921F01001BD
:100BE000216000E00120A84201DD471B00E0002752
:100BF000A1697A1902EB0900081AA0612078C006E1
:100C000002D42046FFF7AEFC002608E0D4E901211B
:100C10001AF806009047206A401C761C20624E4558
:100C2000F4DB2078C0060AD52046FFF79BFC06E0DF
:100C3000D4E9012130209047206A401C2062381EF0
:100C4000A7F10107F4DC07E0D4E9012118F8050059
:100C50009047206A401C2062281EA5F10105F3DCA4
:100C60002046FFF795FC2078000602D50220BDE85B
:100C7000F0870120FBE7000001694A1C0261087847
:100C8000704700B58FB0CDE90131002105910549CC
:100C90007944CDE9031011466846FFF701FD0FB016
:100CA00000BD0000E5FFFFFF0A6802F8010B0A60C3
:100CB000704710B5436913B1AFF3008001E0FFF74F
:100CC0008AFC012010BD127800F124010A70002274
:100CD0004A700122EDE711684FF0FF32E9E70000AA
:100CE000074B70B50D467B44FFF7CBFF0446284603
:100CF00000F03AFA10B14FF0FF3070BD204670BDE1
:100D000067C700003A2800D2303820F02002412A7C
:100D100001D3A2F13700884201D34FF0FF30704772
:100D2000026811441378016018467047D160054984
:100D300079445161044979441162002111611146DD
:100D400000F058B8EDFFFFFFA7000000426842B175
:100D5000016811F8013B23B1521EC0E90012184688
:100D600070470121C160881E704742685AB1C3684C
:100D7000016843B983688B4205D0491E521CC0E903
:100D80000012002070474FF0FF3070472DE9F0410E
:100D900016460C46054600F01BF8036893F801015F
:100DA000012805D0185D80B101202C60BDE8F081DC
:100DB000D3F803013246214603F20313C71828462D
:100DC000BC46BDE8F041012360474FF0FF30EDE73E
:100DD00010B500F0F3F9001D10BD00BFADD000004C
:100DE00010B50446FFF7F4FF0068005D00F0010055
:100DF00010BD00002DE9F34F4FF0000A0C46564697
:100E00008DB001200C9001F10C000B9062690B98E1
:100E100001219047051E2DD0252D2CD0216A884711
:100E2000C0B162690B9801219047216A8847002868
:100E3000F7D16269411E0B98904700E0761CA169CA
:100E40000D988847216A88470028F7D1E1690D98F5
:100E50008847DBE7A1690D988847A842074601D17A
:100E6000761CD3E7E1690D9888477F1C02D1BAF15F
:100E7000000F6FD06BE162690B9800273D46394641
:100E800090472A2804D162690B98012190470125D7
:100E9000DFF8D08262690B9801219047A0F1300100
:100EA0000A290AD24745E5DC07EB870100EB410739
:100EB000303FDFD445F01005ECE7E90601D46FF0D0
:100EC00000476C280AD04C2814D0682815D06A280E
:100ED0000DD074281CD07A281AD01DE062690B98B6
:100EE000012190476C2802D045F0040514E045F03C
:100EF00002050DE045F020050AE062690B9801212A
:100F00009047682802D045F0080505E045F40065E3
:100F100062690B9801219047C4E9015765283DD0CB
:100F200019DC58287AD00CDC452837D004DC252879
:100F300026D041289ED131E046282FD0472899D18C
:100F40002CE05B2877D0612828D063287CD06428E7
:100F500023D15AE0F6E06F2848D008DC66281DD07F
:100F600067281BD0692821D06E2816D127E0702869
:100F700045D0732868D0752847D078280DD14DE02A
:100F8000A1690D988847252805463FF469AFE169B6
:100F90000D9888476D1C3FF46AAFD8E00D99234641
:100FA0006A466FF00100AFF30080C5E045F04000F5
:100FB00023464FF000026060A80736D43EE0E80701
:100FC0007FF447AF2068011D21600068290501D525
:100FD00006701BE7290701D5068017E7A90703D587
:100FE000F117C0E9006111E706600FE745F0400026
:100FF00023464FF008026060A80716D41EE040F6B2
:101000000E0125EA0100606016E045F0400023462D
:101010004FF00A026060A80707D40FE045F04000D7
:101020006060A80708D5234610220D996FF00100D3
:10103000AFF3008080E007E0102223460D996FF0A7
:101040000100FFF7FBFB77E04FF0000963284F46F4
:10105000C8464B46CB4602D05B2806D038E0E806AF
:1010600001D40120A060012732E06269D4F80CB0FD
:101070000B98012190475E2807D14FF0010949469E
:101080006269D4F80CB00B989047216939B90021F6
:101090000A4603AB43F82120491C0829FADBD8B3E0
:1010A000216949B308F1010862690B980121904751
:1010B0005D28F4D1B9F1000F09D0002003A951F83F
:1010C0002020D24341F82020401C0828F7DB03AB46
:1010D0002069002820794FEA40701ED05B462246E6
:1010E000CDF80080CDE901970D9900286FF001003F
:1010F00020DAAFF300801FE0C11703AA00EBD16133
:101100004B1121F01F0102EB8302411A13680120E9
:10111000884003431360C7E719E00D992246002871
:101120006FF00100009702DAFFF72EFC04E0AFF346
:10113000008001E0AFF3008000280ADA401C06D1ED
:101140000C9820B14FF0FF300FB0BDE8F08F504643
:10115000FAE7E90701D10AF1010A064400200C90E0
:1011600054E60000CCCCCC0C007B00F08000704733
:10117000754600F031F8AE4605006946534620F04A
:101180000700854618B020B5FFF716F9BDE82040E6
:101190004FF000064FF000074FF000084FF0000B33
:1011A000AC46ACE8C009ACE8C009ACE8C009ACE8A2
:1011B000C00921F007018D467047000000487047C4
:1011C0003800002410B50446AFF300802046BDE887
:1011D0001040FFF7DCB800000048704718000024FA
:1011E00030B44FF0013C50F8042BCCFA52F451F8D3
:1011F000043BD51A20D1FCB950F8042BCCFA52F498
:1012000051F8043BD51A17D1B4B950F8042BCCFAD5
:1012100052F451F8043BD51A0ED16CB950F8042B96
:10122000CCFA52F451F8043BD51A05D1002CDAD08F
:1012300030BC4FF00000704729BAB1FA81F111F0CB
:101240001801D1F120008440F2D1CA40CB4012F005
:10125000FF0213F0FF0330BCD01A704700000000FB
:1012600043F6B400C2F2004000F062BE000000008D
:1012700043F63010C2F2004000F05ABE00000000F9
:10128000FEE700000000000043F6AC10C2F2004090
:1012900000F04EBE0000000043F62820C2F20040DD
:1012A00000F046BE0000000040F20F42D0F800C03F
:1012B000C4F20202944511DC6F22C4F2020294458A
:1012C00022DC3F22C4F20202944539DC1022C4F22F
:1012D000020294455AD0282254E000BF40F26F42E7
:1012E000C4F2020294451BDC40F23F42C4F2020207
:1012F00094452DDC40F21042C4F20202944545D0E0
:1013000040F228423EE000BF9F22C4F20202944510
:1013100028DC7022C4F20202944537D0882231E0E2
:1013200040F29F42C4F20202944523DC40F2704234
:10133000C4F20202944529D040F2884222E000BF64
:101340004022C4F20202944520D058221AE000BF85
:1013500040F24042C4F20202944517D040F2584293
:1013600010E000BFA022C4F2020294450ED0B822C1
:1013700008E000BF40F2B842C4F20202944505D032
:1013800040F2A042C4F20202944519D16FF00F025C
:101390004AF6AB2352FA8CF2CAF6AA23A2FB033117
:1013A0000AA35F2AC1F302115B5C40F2FF312CEA11
:1013B0000101036688BF0431C1650846704700BF5C
:1013C0002CF0FF01C1650846704700BF00061016EB
:1013D000000610160000000070B540F26F44D0F80F
:1013E00000C0C4F20204D0F85CE0A4451ADC9F25DA
:1013F000C4F20205AC4533DC5725C4F20205AC4506
:101400005ADC1025C4F20205AC4500F0988028256E
:10141000C4F20205AC4500F092804025C4F20205FA
:101420008AE000BF45F22F45C5F60205AC452DDC2C
:1014300040F2B745C4F20205AC454BDC40F27045C2
:10144000C4F20205AC457AD040F28845C4F20205E8
:10145000AC4574D040F2A045C4F202056CE000BF78
:1014600040F22745C4F20205AC4543DCA025C4F296
:101470000205AC4563D0B825C4F20205AC455ED088
:1014800040F21045C4F2020556E000BF45F26B453C
:10149000C5F60205AC453FDC45F23045C5F6020510
:1014A000AC454CD045F24445C5F60205AC4546D0A6
:1014B00045F258453EE000BF5825C4F20205AC4550
:1014C0003DD07025C4F20205AC4538D08825C4F261
:1014D000020531E040F2B845C4F20205AC452ED019
:1014E00045F20845C5F60205AC4528D045F21C4535
:1014F00020E000BF40F22845C4F20205AC451ED0F2
:1015000040F24045C4F20205AC4518D040F25845BF
:10151000C4F2020510E000BF45F26C45C5F60205B5
:10152000AC450CD045F29445C5F60205AC4506D055
:1015300045F28045C5F60205AC4540F0D580856E84
:10154000066F002EC66E6E601CBFD0E91D566E6021
:10155000A44515DC9F24C4F20204A4452CDC5724C6
:10156000C4F20204A44551DC1024C4F20204A445D0
:101570007AD02824C4F20204A44575D040246FE038
:1015800045F22F44C5F60204A44529DC40F2B744D5
:10159000C4F20204A44545DC40F27044C4F20204E3
:1015A000A44561D040F28844C4F20204A4455BD053
:1015B00040F2A04454E000BF40F22744C4F20204C9
:1015C000A4453FDCA024C4F20204A4454CD0B824B6
:1015D000C4F20204A44547D040F2104440E000BFEA
:1015E00045F26B44C5F60204A44555DC45F230448F
:1015F000C5F60204A44561D045F24444C5F6020490
:10160000A4455BD045F2584454E000BF5824C4F2CE
:101610000204A44528D07024C4F20204A44523D0B7
:1016200088241DE040F2B844C4F20204A4451BD053
:1016300045F20844C5F60204A4453FD045F21C44D7
:1016400038E000BF40F22844C4F20204A4450BD0A5
:1016500040F24044C4F20204A44505D040F258448C
:10166000C4F20204A4453FD184683F25006E402C9B
:1016700000F01F0005FA00F0CEF80800DCF80000CA
:1016800020F48020CCF80000CCF8043023D0CCF833
:101690000810CCF80C2070BD45F26C44C5F602046D
:1016A000A4450BD045F28044C5F60204A44505D0FC
:1016B00045F29444C5F60204A44515D1046E0125F3
:1016C000806804F01F04402805FA04F4CEF80440B2
:1016D000CCF8043004D1CCF80820CCF80C1070BD44
:1016E000CCF80810CCF80C2070BD00000000000001
:1016F000704700000000000080B500201A21EF2292
:101700006B2306F015FE40F200401021C5F60200E2
:10171000012202F035F843F634304DF6CE61C2F2C4
:101720000040C0F6000149F6C0124FF47A73BDE8DC
:10173000804004F00DBE0000EFF3108072B600BFD1
:10174000FEE70000000000002DE9F041044602F031
:101750003FF8FCB10546A06B02281FD140F20F47AD
:101760002668C4F2020740F26F48BE42C4F2020883
:101770001CDC6F20C4F20200864229DC3F20C4F248
:101780000200864240DC1020C4F20200864262D091
:1017900028205BE00120BDE8F08100BF8020A0652B
:1017A000002060630120BDE8F08100BF46451BDCDE
:1017B00040F23F40C4F2020086422DDC40F210406D
:1017C000C4F20200864246D040F228403EE000BF0C
:1017D0009F20C4F20200864228DC7020C4F202007E
:1017E000864238D0882031E040F29F40C4F20200A7
:1017F000864223DC40F27040C4F2020086422AD0C6
:1018000040F2884022E000BF4020C4F2020086423D
:1018100021D058201AE000BF40F24040C4F202003C
:10182000864218D040F2584010E000BFA020C4F219
:10183000020086420FD0B82008E000BF40F2B84056
:10184000C4F20200864206D040F2A040C4F2020078
:10185000864240F097813146306820F01E0041F802
:10186000140B6FF080000A68464500EA0200086029
:101870001ADC9F20C4F20200864233DC5720C4F2F7
:10188000020086425ADC1020C4F20200864200F0B8
:1018900097802820C4F20200864200F09180402008
:1018A000C4F202008AE000BF45F22F40C5F60200F4
:1018B00086422DDC40F2B740C4F2020086424BDC87
:1018C00040F27040C4F20200864279D040F2884073
:1018D000C4F20200864273D040F2A040C4F202007B
:1018E0006CE000BF40F22740C4F20200864243DCB5
:1018F000A020C4F20200864262D0B820C4F20200E6
:1019000086425DD040F21040C4F2020056E000BFB3
:1019100045F26B40C5F6020086423FDC45F230409E
:10192000C5F6020086424BD045F24440C5F602009F
:10193000864245D045F258403EE000BF5820C4F2F0
:10194000020086423CD07020C4F20200864237D0AA
:101950008820C4F2020031E040F2B840C4F2020034
:1019600086422DD045F20840C5F60200864227D0B7
:1019700045F21C4020E000BF40F22840C4F20200C3
:1019800086421DD040F24040C4F20200864217D089
:1019900040F25840C4F2020010E000BF45F26C4033
:1019A000C5F6020086420BD045F29440C5F602000F
:1019B000864205D045F28040C5F60200864204D139
:1019C000606E016821F480710160306820F00100D0
:1019D000306000BF3068C0070ED001F0F9FE401B38
:1019E0000628F7D32020A065002060630320A063B1
:1019F0000120BDE8F08100BF2068B84210DC6F21F3
:101A0000C4F2020188421DDC3F21C4F20201884277
:101A100034DC1021C4F20201884255D028214FE065
:101A200040451BDC40F23F41C4F2020188422DDCFC
:101A300040F21041C4F20201884245D040F22841F0
:101A40003EE000BF9F21C4F20201884228DC7021E1
:101A5000C4F20201884237D0882131E040F29F4130
:101A6000C4F20201884223DC40F27041C4F2020158
:101A7000884229D040F2884122E000BF4021C4F2D0
:101A80000201884220D058211AE000BF40F24041B4
:101A9000C4F20201884217D040F2584110E000BF62
:101AA000A021C4F2020188420ED0B82108E000BF94
:101AB00040F2B841C4F20201884205D040F2A04190
:101AC000C4F20201884261D1D4E9171202F01F0268
:101AD0003F2303FA02F28A60404561DC9F21C4F291
:101AE0000201884214DC5721C4F20201884227DC3B
:101AF0001021C4F20201884200F0A8802821C4F21B
:101B00000201884200F0A2804021C4F202019BE061
:101B100040F22741C4F20201884221DCA021C4F234
:101B20000201884200F09280B821C4F2020188428A
:101B300000F08C8040F21041C4F2020184E000BF4A
:101B40005821C4F20201884200F080807021C4F262
:101B5000020188427AD08821C4F2020174E000BFF9
:101B600040F22841C4F2020188426FD040F2404165
:101B7000C4F20201884269D040F25841C4F2020125
:101B800062E000BF6FF00E0031466CE6D4E9171238
:101B900002F01F02012303FA02F24A6040459DDD74
:101BA00045F22F41C5F60201884217DC40F2B741E9
:101BB000C4F20201884227DC40F27041C4F2020103
:101BC000884243D040F28841C4F2020188423DD0AD
:101BD00040F2A041C4F2020136E000BF45F26B4181
:101BE000C5F6020188421FDC45F23041C5F602010C
:101BF00088422BD045F24441C5F60201884225D0E7
:101C000045F258411EE000BF40F2B841C4F2020163
:101C100088421BD045F20841C5F60201884215D022
:101C200045F21C410EE000BF45F26C41C5F60201D1
:101C300088420BD045F29441C5F60201884205D096
:101C400045F28041C5F6020188420BD1A16EE26ED9
:101C5000206F4A6030B1016821F480710160D4E9DD
:101C60001D014160002060630121A163BDE8F08196
:101C700080B5D8B1816B02291AD140F20F420168B8
:101C8000C4F20202914217DC6F23C4F202039942AC
:101C900028DC3F23C4F2020399423FDC1023C4F244
:101CA0000203994260D028235AE000BF012080BD82
:101CB00080218165012080BD40F26F43C4F20203A0
:101CC00099421BDC40F23F43C4F2020399422DDCEF
:101CD00040F21043C4F20203994245D040F2284337
:101CE0003EE000BF9F23C4F20203994228DC702328
:101CF000C4F20203994237D0882331E040F29F4377
:101D0000C4F20203994223DC40F27043C4F202039E
:101D1000994229D040F2884322E000BF4023C4F218
:101D20000203994220D058231AE000BF40F24043FA
:101D3000C4F20203994217D040F2584310E000BFAA
:101D4000A023C4F2020399420ED0B82308E000BFDA
:101D500040F2B843C4F20203994205D040F2A043D6
:101D6000C4F20203994273D191424FF0040282639C
:101D700010DC6F20C4F20200814221DC3F20C4F25B
:101D80000200814238DC1020C4F20200814258D0A7
:101D9000282053E040F26F40C4F2020081421BDC75
:101DA00040F23F40C4F2020081422DDC40F210407C
:101DB000C4F20200814244D040F228403EE000BF1D
:101DC0009F20C4F20200814228DC7020C4F202008D
:101DD000814236D0882031E040F29F40C4F20200B8
:101DE000814223DC40F27040C4F20200814228D0DC
:101DF00040F2884022E000BF4020C4F2020081424D
:101E00001FD058201AE000BF40F24040C4F2020048
:101E1000814216D040F2584010E000BFA020C4F22A
:101E2000020081420DD0B82008E000BF40F2B84067
:101E3000C4F20200814204D040F2A040C4F2020089
:101E40008142086820F001000860002080BD00BFCA
:101E50000A6822F00E020A6045F25742C5F60202F5
:101E600091420A6822F001020A600FDC45F22F421B
:101E7000C5F60202914219DC45F20842C5F602029B
:101E8000914229D045F21C4222E000BF45F27F4238
:101E9000C5F60202914213DC45F25842C5F6020231
:101EA000914219D045F26C4212E000BF45F2304237
:101EB000C5F6020291420FD045F2444208E000BF4D
:101EC00045F29442C5F60202914205D045F28042A5
:101ED000C5F6020291421AD1D0E9191CD0E917E3E4
:101EE0000A6822F480720A6003F01F01012202FADC
:101EF00001F1CEF80410C16ECCF80410016F31B1BD
:101F00000A6822F480720A60D0E91D124A6000213A
:101F1000416301228263426D0AB190470021084665
:101F200080BD000000000000806D704700000000D0
:101F30002DE9F04782B00021019140F208010446EA
:101F4000C2F2004148F2B512C1F64E32E56D0968A1
:101F500040F26F490068C4F20209A1FB021848452B
:101F60002E68296816DC9F21C4F2020188422DDC0C
:101F70005721C4F20201884252DC1021C4F202014E
:101F800088427BD02821C4F20201884276D04021C9
:101F900070E000BF45F22F42C5F60202904229DCF4
:101FA00040F2B742C4F20202904245DC40F2704176
:101FB000C4F20201884261D040F28841C4F20201B9
:101FC00088425BD040F2A04154E000BF40F227417C
:101FD000C4F2020188423FDCA021C4F2020188421F
:101FE0004CD0B821C4F20201884247D040F21041DF
:101FF00040E000BF45F26B42C5F60202904275DC3C
:1020000045F23042C5F60202904200F0818045F26E
:102010004442C5F6020290427AD045F2584273E03B
:102020005821C4F20201884228D07021C4F2020172
:10203000884223D088211DE040F2B842C4F2020257
:1020400090421BD045F20842C5F6020290425FD092
:1020500045F21C4258E000BF40F22841C4F20201A0
:1020600088420BD040F24041C4F20201884205D0C0
:1020700040F25841C4F20201884261D1216E082227
:1020800001F01F0140F20F4A8A40C4F2020A3242B4
:1020900000F0E58050454FF0040313DC6F27C4F2D5
:1020A0000207B8426ADC3F27C4F20207B84200F3D5
:1020B000A3801027C4F20207B84200F0C48028278A
:1020C000BCE000BF484565DC40F23F47C4F2020770
:1020D000B84200F3998040F21047C4F20207B842B8
:1020E00000F0B18040F22847A8E000BF45F26C4202
:1020F000C5F6020290420BD045F28042C5F60202BC
:10210000904205D045F29442C5F60202904217D1A2
:102110000268236E570703F01F0315D504279F405D
:1021200017EA010610D011046F6043D4910603D45E
:10213000016821F004010160616C002940F0EB822C
:1021400002B0BDE8F08700BF97073BD502279F404C
:1021500017EA010636D011046F6000F1E1829106A2
:1021600007D4016821F00A010160002060630120AA
:10217000A063216C002940F0CE82E1E79F27C4F2E2
:102180000207B8424ADC7027C4F20207B8425AD0AC
:10219000882753E040F29F47C4F20207B84245DC6B
:1021A00040F27047C4F20207B8424CD040F2884770
:1021B00044E000BFD00300F1B982E16C002940F097
:1021C000AA82BDE71207BBD508229A401140B7D0BA
:1021D000016821F00E010160012000FA03F169603D
:1021E000A06500216163A063216D0029A8D020466D
:1021F000884702B0BDE8F0874027C4F20207B84222
:1022000021D058271AE000BF40F24047C4F202072D
:10221000B84218D040F2584710E000BFA027C4F2DF
:102220000207B8420FD0B82708E000BF40F2A0472D
:10223000C4F20207B84206D040F2B847C4F202071F
:10224000B84218BF082307681F4208D0036823F06C
:1022500004030360AA60A26D42F00102A26501229C
:102260008A4032426FD0504510DC6F23C4F2020323
:1022700098421DDC3F23C4F20203984234DC102351
:10228000C4F20203984256D028234FE048451BDC95
:1022900040F23F43C4F2020398422DDC40F2104367
:1022A000C4F20203984246D040F228433EE000BF09
:1022B0009F23C4F20203984228DC7023C4F2020375
:1022C000984238D0882331E040F29F43C4F20203A1
:1022D000984223DC40F27043C4F2020398422AD0B1
:1022E00040F2884322E000BF4023C4F20203984238
:1022F00021D058231AE000BF40F24043C4F2020349
:10230000984218D040F2584310E000BFA023C4F216
:10231000020398420FD0B82308E000BF40F2A04368
:10232000C4F20203984206D040F2B843C4F202035A
:10233000984240F0038243691B0604D5AA60A26D4F
:1023400042F00202A26504228A4032426FD0504518
:1023500010DC6F23C4F2020398421DDC3F23C4F259
:102360000203984234DC1023C4F20203984256D090
:1023700028234FE048451BDC40F23F43C4F20203F0
:1023800098422DDC40F21043C4F20203984246D03A
:1023900040F228433EE000BF9F23C4F2020398426C
:1023A00028DC7023C4F20203984238D0882331E03D
:1023B00040F29F43C4F20203984223DC40F2704390
:1023C000C4F2020398422AD040F2884322E000BFC0
:1023D0004023C4F20203984221D058231AE000BFE0
:1023E00040F24043C4F20203984218D040F25843EE
:1023F00010E000BFA023C4F2020398420FD0B8231C
:1024000008E000BF40F2A043C4F20203984206D0A5
:1024100040F2B843C4F20203984240F09781036847
:102420009B0704D5AA60A26D42F00402A2651022A7
:1024300002FA01F1314200F0818050454FF008026C
:1024400010DC6F23C4F2020398421DDC3F23C4F268
:102450000203984234DC1023C4F20203984256D09F
:1024600028234FE048451BDC40F23F43C4F20203FF
:1024700098422DDC40F21043C4F20203984246D049
:1024800040F228433EE000BF9F23C4F2020398427B
:1024900028DC7023C4F20203984238D0882331E04C
:1024A00040F29F43C4F20203984223DC40F270439F
:1024B000C4F2020398422AD040F2884322E000BFCF
:1024C0004023C4F20203984221D058231AE000BFEF
:1024D00040F24043C4F20203984218D040F25843FD
:1024E00010E000BFA023C4F2020398420FD0B8232B
:1024F00008E000BF40F2A043C4F20203984206D0B5
:1025000040F2B843C4F20203984218BF04220368A1
:10251000134213D0A96001684903016808D4C905B2
:1025200008D4016821F008010160616C21B905E05F
:1025300008034FD4616C09B120468847206E00F033
:102540001F01202000FA01F2324200F0A78020682B
:102550001023504510DC6F27C4F20207B8421DDC7F
:102560003F27C4F20207B84238DC1027C4F2020742
:10257000B8425AD0282753E048451BDC40F23F4779
:10258000C4F20207B84231DC40F21047C4F202073D
:10259000B8424AD040F2284742E000BF9F27C4F229
:1025A0000207B8422CDC7027C4F20207B8423CD0C4
:1025B000882735E040F29F47C4F20207B84227DC83
:1025C00040F27047C4F20207B8422ED040F288476A
:1025D00026E000BFE16C0029AED1AFE74027C4F28E
:1025E0000207B84221D058271AE000BF40F2404706
:1025F000C4F20207B84218D040F2584710E000BFBA
:10260000A027C4F20207B8420FD0B82708E000BFE5
:1026100040F2A047C4F20207B84206D040F2B847E1
:10262000C4F20207B84218BF022307681F4235D020
:10263000AA60A26B042A02681AD122F01602026074
:10264000426922F080024261626C0AB9E26C1AB1FE
:10265000026822F0080202603F208840A860002043
:1026600060630120A063616D002954D168E500BF5B
:10267000510301680AD4C9050CD4016821F0100186
:102680000160002060630120A06303E0080301D41F
:10269000A16C00E0216C09B120468847A06D00289C
:1026A0003FF44EADA06DC00731D00420A063206878
:1026B0004FEA9821026822F001020260019A013279
:1026C00001928A421AD80268D20717D0019A0132C1
:1026D00001928A4212D80268D2070FD0019A0132C1
:1026E00001928A420AD80268D20707D0019A0132C1
:1026F00001928A4202D80268D207DFD100216163C9
:102700000068C0074FF0030008BF0120A063216DDF
:1027100000293FF415AD2046884702B0BDE8F08798
:10272000D00307D4A16C0029F5D109E5616C00291B
:10273000F1D105E5216C0029EDD101E50268042203
:102740008A4032427FF403AE71E600BF02686EE653
:102750002DE9F041044601F03BF82CB340F26F47FD
:1027600005462068C4F2020745F22F48B842C5F674
:1027700002081DDC9F21C4F20201884232DC57218D
:10278000C4F20201884259DC1021C4F202018842DD
:1027900000F097802821C4F20201884200F0918065
:1027A0004021C4F2020189E00120BDE8F08100BFB0
:1027B00040452DDC40F2B741C4F2020188424BDCB7
:1027C00040F27041C4F2020188427AD040F288415E
:1027D000C4F20201884274D040F2A041C4F2020166
:1027E0006CE000BF40F22741C4F20201884243DCA2
:1027F000A021C4F20201884263D0B821C4F20201D0
:1028000088425ED040F21041C4F2020156E000BF9F
:1028100045F26B41C5F6020188423FDC45F230418A
:10282000C5F6020188424CD045F24441C5F602018A
:10283000884246D045F258413EE000BF5821C4F2DC
:10284000020188423DD07021C4F20201884238D092
:102850008821C4F2020131E040F2B841C4F2020121
:1028600088422ED045F20841C5F60201884228D0A0
:1028700045F21C4120E000BF40F22841C4F20201B1
:1028800088421ED040F24041C4F20201884218D072
:1028900040F25841C4F2020110E000BF45F26C4121
:1028A000C5F6020188420CD045F28041C5F602010E
:1028B000884206D045F29441C5F60201884240F0B4
:1028C000F183A06850B1402818BF802806D04CF290
:1028D000ED50E221C0F601000AF09AFDE06840F4F4
:1028E0000070B0F5007F09D1206940F48060B0F538
:1028F000806F10D16069B8B91CE000BF4CF2ED5098
:10290000E321C0F601000AF083FD206940F48060F5
:10291000B0F5806FEED04CF2ED50E421C0F601002E
:102920000AF076FD606928B1B0F5006F18BFB0F508
:10293000805F0FD1A069B8B1B0F5005F18BFB0F5E6
:10294000804F11D04CF2ED50E621C0F601000AF0A4
:102950005FFD09E04CF2ED50E521C0F601000AF000
:1029600057FDA0690028E7D1E069FF280ADDB0F52E
:10297000807F18BFB0F5802F0ED0B0F5402F0BD060
:1029800003E000BF40B1202806D04CF2ED50E72113
:10299000C0F601000AF03CFD206A4FEA30400428EE
:1029A00006D34CF2ED50E821C0F601000AF030FDEC
:1029B0002068B84216DC9F21C4F20201884229DC5B
:1029C0005721C4F20201884250DC1021C4F20201F6
:1029D00088427AD02821C4F20201884275D0402171
:1029E0006EE000BF404529DC40F2B741C4F202016D
:1029F000884247DC40F27041C4F20201884264D050
:102A000040F28841C4F2020188425ED040F2A04107
:102A100056E000BF40F22741C4F20201884241DC87
:102A2000A021C4F2020188424FD0B821C4F20201B1
:102A300088424AD040F2104142E000BF45F26B416B
:102A4000C5F60201884200F3158145F23041C5F612
:102A50000201884200F0218145F24441C5F602019D
:102A6000884200F01A8145F2584111E15821C4F220
:102A70000201884229D07021C4F20201884224D088
:102A800088211DE040F2B841C4F2020188421CD006
:102A900045F20841C5F60201884200F0FE8045F289
:102AA0001C41F5E040F22841C4F2020188420CD0FA
:102AB00040F24041C4F20201884206D040F258413F
:102AC000C4F20201884240F0FB826068742807D299
:102AD000606A40F0040104290ED1B0B92BE000BFB8
:102AE0004CF2ED50EC21C0F601000AF091FC606A56
:102AF00040F004010429F0D04CF2ED50ED21C0F675
:102B000001000AF085FC606AA8B1A06A042880F080
:102B10008D80E06A4FEAF050042880F09480206BAA
:102B20004FEA7050042806D34CF2ED50F421C0F661
:102B300001000AF06DFC002060630220A0632068A1
:102B4000016821F0010101600168C9070AD000BFD6
:102B500000F03EFE401B052800F2848020680168DA
:102B6000C907F5D148F23F0204F108060168CFF623
:102B70001062114065694CCE1143A2691943E369A3
:102B80003143266A0D43616A1543042943EA05036C
:102B900043EA060303D1D4E90B6533432B4341F2E7
:102BA0000006C5F600463668B6F1005F1CD36668BD
:102BB000293E292E18D8DFE806F01515151515152C
:102BC0001717171717171717171717171717171795
:102BD0001515151517171717151517171717171791
:102BE0001515151543F4801303600429436923F078
:102BF000070341EA030140F01181D4E90A53002B95
:102C000041EA050100F00A81B2F5005F00F0EE80B4
:102C1000002A40F0F780022D00F0F780012D00F02F
:102C2000EB80002D00F0F180F8E000BF4CF2ED5099
:102C3000F221C0F601000AF0EBFBE06A4FEAF05027
:102C40000428FFF46CAF4CF2ED50F321C0F6010004
:102C50000AF0DEFB206B4FEA70500428BFF464AF2B
:102C600069E700BF2020A0650320A0630120BDE824
:102C7000F08100BF45F26C41C5F6020188420CD0DC
:102C800045F28041C5F60201884206D045F29441E2
:102C9000C5F60201884240F013826168122908D308
:102CA0004CF2ED504FF4B371C0F601000AF0B0FBE6
:102CB0002068002161630221A1630168A268A2F17A
:102CC0008003E668B3FA83F3402A4FEA53134FEACE
:102CD00083336FF3101108BF1023226941EAD60134
:102CE00066691943A36941EAD201E26941EAD60162
:102CF00041EAD3014CF6CD4341EAD2014AF6F8321B
:102D0000CAF2FD72266A0244CCF6CC43A2FB03232E
:102D100041EA161101606FF0030000EA930020669B
:102D20002046FEF7C1FA216E012201F01F0102FACE
:102D300001F141602068B84240F37F80404517DCD4
:102D400040F2B741C4F20201884229DC40F27041EE
:102D5000C4F20201884200F0BA8040F28841C4F215
:102D60000201884200F0B38040F2A041AAE000BF17
:102D700045F26B41C5F60201884223DC45F2304141
:102D8000C5F60201884200F0A28045F24441C5F632
:102D90000201884200F09B8045F2584122E000BFCA
:102DA00040F2B841C4F20201884200F0908045F23E
:102DB0000841C5F60201884200F0898045F21C41B5
:102DC00010E000BF45F26C41C5F60201884200F0F8
:102DD0007E8045F29441C5F60201884200F077807A
:102DE00045F28041C5F602016EE000BF032D15D803
:102DF000DFE805F00E0B0E02A3F1C072B2FA82F208
:102E0000520904E0032D03D308D1C3F300622AB1B1
:102E10004020A0650120A063BDE8F081416120460B
:102E2000FEF742FA216E3F2201F01F0102FA01F182
:102E300081602068B8423FF781AF9F21C4F2020150
:102E4000884211DC5721C4F20201884220DC1021A3
:102E5000C4F2020188423AD02821C4F20201884219
:102E600035D040212EE000BF40F22741C4F20201DC
:102E7000884219DCA021C4F20201884227D0B8217F
:102E8000C4F20201884222D040F210411AE000BF91
:102E90005821C4F20201884219D07021C4F2020103
:102EA000884214D088210DE040F22841C4F202018A
:102EB00088420CD040F24041C4F20201884206D060
:102EC00040F25841C4F20201884240F0E58045F2E8
:102ED000574C45F6FC01C5F6020CC5F602016045EB
:102EE0000EDC404520DC45F20842C5F60202904265
:102EF00034D045F21C42C5F6020290422ED081E049
:102F000045F27F42C5F6020290421BDC45F2584270
:102F1000C5F60202904221D045F26C42C5F602028B
:102F200090421BD06EE000BF45F23042C5F602026F
:102F3000904213D045F24442C5F6020290420DD0B1
:102F400060E000BF45F29442C5F60202904205D00F
:102F500045F28042C5F60202904253D16FF007025B
:102F60004CF6CD4352FA80F2CCF6CC43A2FB0323BD
:102F7000A1F1FC05A1F17C071B0905EB830503F01A
:102F80001F02A3686566802B4FF0010303FA02F667
:102F9000A766E66602D10022626000E06268D3B2F2
:102FA000013A072A2B607E6012D85F1E082F15D2C7
:102FB000604501F1440215DC404545DC45F2084618
:102FC000C5F60206B0425DD045F21C464EE000BF99
:102FD0000020A067C4E91C005EE000BFD4E91C0229
:102FE000A16F56E045F27F46C5F60206B04235DCD9
:102FF00045F25846C5F60206B04243D045F26C464B
:1030000034E000BF6FF00F024AF6AB2352FA80F2B1
:10301000CAF6AA23A2FB032740F20F43C4F202031D
:1030200008253A09984203F1AA06134688BF05EB22
:10303000171340F60005B042C4F2020505F18007FF
:1030400028BF134699E700BF45F23046C5F6020691
:10305000B04217D045F2444608E000BF45F2804632
:10306000C5F60206B0420DD045F29446C5F60206FA
:10307000B04207D040F60000C4F2020000F1FC01AB
:1030800000F5A07201EB83000121B940206762675F
:10309000A1670023036051600020A0650121A163A6
:1030A000BDE8F0814CF2ED50E121C0F601000AF0DC
:1030B000AFF9A06800287FF406ACFFF70FBC00BF93
:1030C0004020D0E500000000F0B581B01D46013B76
:1030D0004FF6FF771646BB420F46044607D34CF225
:1030E000ED5040F2A921C0F601000AF091F9D4B3E5
:1030F000606B012802D1022001B0F0BD01206063A5
:10310000A06B01282AD10220A0630020A0652068BE
:1031100032462B46016821F0010101602046394604
:10312000FEF75AF940F20F422068C4F2020240F260
:103130006F419042C4F2020118DC6F23C4F2020313
:10314000984225DC3F23C4F2020398423CDC102362
:10315000C4F2020398425ED0282357E00020606347
:103160004FF40060A065012001B0F0BD88421BDC77
:1031700040F23F43C4F2020398422DDC40F2104378
:10318000C4F20203984246D040F228433EE000BF1A
:103190009F23C4F20203984228DC7023C4F2020386
:1031A000984238D0882331E040F29F43C4F20203B2
:1031B000984223DC40F27043C4F2020398422AD0C2
:1031C00040F2884322E000BF4023C4F20203984249
:1031D00021D058231AE000BF40F24043C4F202035A
:1031E000984218D040F2584310E000BFA023C4F228
:1031F000020398420FD0B82308E000BF40F2B84362
:10320000C4F20203984206D040F2A043C4F2020383
:10321000984240F02F8103680B2767F34403036053
:10322000636C1BB1036843F008030360884219DC38
:103230009F23C4F20203984232DC5723C4F20203F4
:10324000984259DC1023C4F20203984200F09680A1
:103250002823C4F20203984200F090804023C4F275
:10326000020389E045F22F43C5F6020398422DDCA4
:1032700040F2B743C4F2020398424BDC40F2704381
:10328000C4F20203984279D040F28843C4F20203A8
:10329000984273D040F2A043C4F202036CE000BF36
:1032A00040F22743C4F20203984243DCA023C4F255
:1032B0000203984262D0B823C4F2020398425DD060
:1032C00040F21043C4F2020356E000BF45F26B43E4
:1032D000C5F6020398423FDC45F23043C5F60203CF
:1032E00098424BD045F24443C5F60203984245D07C
:1032F00045F258433EE000BF5823C4F2020398420F
:103300003CD07023C4F20203984237D08823C4F221
:10331000020331E040F2B843C4F2020398422DD0D8
:1033200045F20843C5F60203984227D045F21C43F4
:1033300020E000BF40F22843C4F2020398421DD0AF
:1033400040F24043C4F20203984217D040F258437F
:10335000C4F2020310E000BF45F26C43C5F602035D
:1033600098420BD045F29443C5F60203984205D02B
:1033700045F28043C5F60203984274D1636E1F681C
:10338000FF0303D51F6847F480771F60236F1BB1CD
:103390001F6847F480771F60904211DC6F21C4F2F0
:1033A000020188421EDC3F21C4F20201884235DC62
:1033B0001021C4F20201884255D0282150E000BFFC
:1033C00088421BDC40F23F41C4F2020188422DDCFE
:1033D00040F21041C4F20201884244D040F2284138
:1033E0003EE000BF9F21C4F20201884228DC702128
:1033F000C4F20201884236D0882131E040F29F4178
:10340000C4F20201884223DC40F27041C4F202019E
:10341000884228D040F2884122E000BF4021C4F217
:10342000020188421FD058211AE000BF40F24041FB
:10343000C4F20201884216D040F2584110E000BFA9
:10344000A021C4F2020188420DD0B82108E000BFDB
:1034500040F2B841C4F20201884204D040F2A041D7
:10346000C4F202018842016841F0010101600020BC
:1034700001B0F0BD0368052767F343030360636C85
:10348000002B3FF4D3AE036843F00403CDE6000005
:103490002DE9F04F87B000F1264202F1FF724FEAAA
:1034A000B22202920B2ACDE9040106D34CF2B450A9
:1034B000BB21C0F6010009F0ABFF059800210068B0
:1034C000B1EB104F01D180B230B94CF2B450BC21F5
:1034D000C0F6010009F09CFF05984FF6FF71C1F29C
:1034E0001011406888420BDC122800F23B81012158
:1034F00001FA00F00F21C0F20601084226D131E1A5
:103500004FF6FF71C1F2211188420FDC0021C1F298
:10351000111188421AD00021C1F21211884215D02F
:103520000021C1F22111884210D01BE10021C1F21B
:10353000221188420AD00021C1F23111884205D0FF
:103540000021C1F23211884240F00C810598806858
:10355000032806D34CF2B450BE21C0F6010009F096
:1035600057FF05980068002800F0F88042F20041FB
:103570000A22C5F60201049B8B424FF0000808BFE7
:10358000092202994FF0010909294FF0000A38BFBA
:103590000A464FF0000B01920EE000BF05980BF1B8
:1035A000010B0AF1020A08F10408006830FA09F177
:1035B00009F1010900F0D280A9F10106012101FA07
:1035C00006F510EA0507E9D00598406812282DD8BD
:1035D0000121814011F0061F28D00599C9680429EE
:1035E00009D34CF2B450CE21C0F6010009F010FF0F
:1035F00005994868C968DDF810E0032303FA0AF367
:10360000DEF8082001FA0AF19A434FEA4B0C114305
:10361000CEF80810C0F30012DEF80410DC43A94312
:10362000B2401143CEF8041006E000BF0321D44697
:1036300001FA0AF1CC4300BF049D40F01002122AA7
:10364000E968059A01EA0401926802FA0CF241EA7B
:103650000201E9602BD10298CDF80CC00B2806D3EB
:103660004CF2B450E621C0F6010009F0D1FE0598F5
:103670000069102808D34CF2B450E721C0F60100CD
:1036800009F0C6FE059800696FF00301049A01EA8B
:1036900056010F25114408F01C0295400B6A90401A
:1036A000AB43184308620598DDF80CC04068049DE0
:1036B00000F0030101FA0CF12A68C00002EA0402DA
:1036C00041EA020028607FF569AF44F2F44140F21C
:1036D0000844C5F60201C5F600040F234FF0B045BB
:1036E000086840F002000860086800F002000690D8
:1036F00026F00300069908F00C0102598B409A430A
:10370000019B03FA01F1114301510424C5F60004A1
:10371000E06F059940EA07024968CB0358BF20EAE9
:1037200007028B03E267D4F8800040EA070258BF23
:1037300020EA0702CB02C4F88020286840EA07028A
:1037400058BF20EA070289022A60206840EA07027F
:1037500058BF20EA0702226020E700BF07B0BDE89B
:10376000F08F00BF4CF2B450BD21C0F6010009F04B
:103770004FFE059880680328BFF4ECAEF1E6000028
:1037800070B50C461646054631B1022E0ED2002EFB
:1037900008BF2404AC6170BD4CF2B45040F2AD11CE
:1037A000C0F6010009F034FE022EF0D34CF2B45002
:1037B0004FF4D771C0F6010009F02AFEAC6170BD6C
:1037C00041F20000C5F600400068000C70470000A0
:1037D00044F28810C2F20040006870470000000008
:1037E00040F2000044F28811C2F20040C2F20041EF
:1037F00040680A681044086070470000000000003C
:1038000080B5032000F098F901F072FF44F21841EE
:1038100047F68E03C5F60201C0F601030A6809687F
:1038200001F00F01C2F30322595C9A5C01F01F0101
:1038300002F01F02D04040F20C02C2F2004220FA15
:1038400001F1116040F20801C2F20041086000205D
:1038500000F00AF800281CBF012080BD00F000F92C
:10386000002080BD0000000070B540F20006C2F2EA
:1038700000467168E1B1044640F20800C2F200401F
:103880004FF47A72B2FBF1F10068B0FBF1F002F094
:103890002BFF0F2C4FF0010508D838B94FF0FF303F
:1038A00000222146002500F003F93460284670BD4F
:1038B000012070BD0000000070B50446407810285B
:1038C00007D34CF2065040F22D11C0F6010009F06A
:1038D0009FFD2078022808D34CF206504FF49771D0
:1038E000C0F6010009F094FD20784EF69C566178F0
:1038F000CEF20006002846F8041C47D0207B0228A0
:1039000007D34CF206504FF49B71C0F6010009F04A
:103910007FFDE07A06283DD804283BD0A07A032812
:1039200043D2607B02284BD2A07B022853D2E07B9B
:1039300002285BD2607AFF2863D0207A011F1C29FD
:1039400008D34CF2065040F23D11C0F6010009F0D8
:103950005FFD207A61683160217BE27AA37A657B22
:10396000120642EA0171A27B41EAC341E37B41EACC
:103970008541657A41EA4241227841EA034141EAC0
:10398000052141EA40001043706070BD00203060A6
:10399000706070BD4CF2065040F23711C0F6010065
:1039A00009F036FDA07A0328BBD34CF206504FF441
:1039B0009C71C0F6010009F02BFD607B0228B3D397
:1039C0004CF2065040F23911C0F6010009F020FD1A
:1039D000A07B0228ABD34CF206504FF49D71C0F689
:1039E000010009F015FDE07B0228A3D34CF206503C
:1039F00040F23B11C0F6010009F00AFD607AFF2891
:103A00009BD14CF206504FF49E71C0F6010009F0B4
:103A1000FFFC207A011F1C299CD392E700000000C4
:103A20004EF62450CEF20000BFF35F8F016821F400
:103A30008031016000210167704700000000000034
:103A40004EF6245140F00100CEF2000108670868EC
:103A500040F480300860BFF34F8FBFF36F8F704723
:103A600081B044F2F440C5F60200016841F0020161
:103A70000160006800F002000090009801B07047FB
:103A8000B0F1FF3F0CDD00F01F01012202FA01F14D
:103A90004EF200124009CEF2000242F820107047A8
:103AA0004CF20650BE21C0F6010009F0B1BC000086
:103AB00070B51446102A0E46054606D34CF2065041
:103AC000AA21C0F6010009F0A3FC102E06D34CF287
:103AD0000650AB21C0F6010009F09AFC4EF60C50DE
:103AE0004FF0FF33CEF200000168C1F3022181F0F4
:103AF0000702042A28BF0422033903FA02F226EA45
:103B0000020205F00F0638BF0021043EB5F1FF3F69
:103B1000304405F1604600F10C0003FA01F3C8BF20
:103B200006F5644002FA01F124EA03021143090197
:103B3000017070BD0000000010B504460338052870
:103B400006D34CF206509221C0F6010009F060FC49
:103B50004EF60C504FF6FF02CEF200000168114005
:103B600064F30A2141F0806141F0FD71016010BDF4
:103B7000B0B504460138022807D34CF2256040F264
:103B80003F11C0F6010009F043FC44F60C05C5F6F0
:103B9000020528684007286806D400F00700001BCB
:103BA00018BF0120B0BD00BF20F0070020432860EF
:103BB000FFF70EFE044600BF55F8080C800407D43A
:103BC000FFF706FE001BB0F57A7FF5D90120B0BDE6
:103BD0000020B0BD0000000080B501F001FD44F2FE
:103BE000204147F68E02C5F60201C0F601020968BF
:103BF000C1F30211515C01F01F01C84080BD0000FB
:103C000080B544F2384EC5F6020E5EF8103C5EF800
:103C1000101CC1F3053C5EF80C1CBCF1000FDEF873
:103C2000042015D0C1F30011C2F3CC02514300EEC1
:103C3000101A03F003010229B8EE400A0ED089B928
:103C40005EF8381C890611D49FED361A1CE000BFBF
:103C500000218160C0E9001180BD00BF9FED301AD6
:103C600012E000BF9FED2D1A0EE000BF5EF8381C79
:103C700049F20002C0F2D032C1F3C10122FA01F1CF
:103C800001EE101AB8EE411ADEF800109FED263A48
:103C90006FF35F2102EE101ADEF80010C1F3462127
:103CA000B8EE422A00EE032A00EE10CAB7EE003A40
:103CB000B8EE400A81EE000A32EE031A02EE101A44
:103CC000B8EE422A20EE010A32EE031A80EE011A03
:103CD000BCEEC11A80ED001ADEF80010C1F30641F7
:103CE00001EE101AB8EE411A31EE031A80EE011AF5
:103CF000BCEEC11A80ED011ADEF80010C1F30661B6
:103D000001EE101AB8EE411A31EE031A80EE010AE4
:103D1000BCEEC00A10EE101A816080BD0024744A07
:103D2000001B374B0024744C0000003900000000D9
:103D300080B544F2404EC5F6020E5EF8183C5EF8BF
:103D4000181CC1F3055C5EF8141CBCF1000FDEF812
:103D5000042015D0C1F30021C2F3CC02514300EE80
:103D6000101A03F003010229B8EE400A0ED089B9F7
:103D70005EF8401C890611D49FED361A1CE000BF86
:103D800000218160C0E9001180BD00BF9FED301AA5
:103D900012E000BF9FED2D1A0EE000BF5EF8401C40
:103DA00049F20002C0F2D032C1F3C10122FA01F19E
:103DB00001EE101AB8EE411ADEF800109FED263A17
:103DC0006FF35F2102EE101ADEF80010C1F34621F6
:103DD000B8EE422A00EE032A00EE10CAB7EE003A0F
:103DE000B8EE400A81EE000A32EE031A02EE101A13
:103DF000B8EE422A20EE010A32EE031A80EE011AD2
:103E0000BCEEC11A80ED001ADEF80010C1F30641C5
:103E100001EE101AB8EE411A31EE031A80EE011AC3
:103E2000BCEEC11A80ED011ADEF80010C1F3066184
:103E300001EE101AB8EE411A31EE031A80EE010AB3
:103E4000BCEEC00A10EE101A816080BD0024744AD6
:103E5000001B374B0024744C0000003900000000A8
:103E60002DE9F0470446C07844F22C490007C5F616
:103E7000020933D5606E4FEA305103290CD8DFE8D0
:103E800001F003111D2600BFD9F8001041F40031E4
:103E9000C9F800101BE000BF01266078C0070AD0F7
:103EA00020E000BF201D022107F066FF064668B132
:103EB0006078C00716D1B2465AE000BF04F1240072
:103EC000022108F06DF806460028F1D1606ED9F89D
:103ED000241021F440110843C9F82400002660781A
:103EE000C007E8D0606D042810D8B246DFE800F0C3
:103EF00016222C04040000BFBAF1000F57462DD043
:103F00006078800740F17E8036E000BF4FF0010A04
:103F10000127607880072FD474E000BFD9F8000033
:103F2000B24640F40030C9F80000BAF1000F57461D
:103F3000E6D113E0201D002107F01EFF8246BAF1F2
:103F4000000F5746DCD109E004F12400002108F0FD
:103F500027F88246BAF1000F5746D1D1D9F824008C
:103F6000616D20F007004FF0000A0843C9F82400F3
:103F700037466078800745D5A06D4FEAB010042819
:103F80000ED8DFE800F015212B030300BAF1000F73
:103F900056462DD06078400740F1818036E000BF62
:103FA0004FF0010A0126607840072FD477E000BF68
:103FB000D9F8000040F40030C9F80000BAF1000F51
:103FC0005646E7D114E000BF201D002107F0D4FEC3
:103FD0008246BAF1000F5646DCD109E004F1240014
:103FE000002107F0DDFF8246BAF1000F5646D1D11D
:103FF000D9F82400A16D20F4E0704FF0000A0843C6
:10400000C9F824003E466078400748D5D4F8A4009B
:104010004FEA705004280FD8DFE800F016222C0475
:10402000040000BFBAF1000F55462DD0607800079C
:1040300040F17F8037E000BF4FF0010A0125607832
:10404000000730D475E000BFD9F8000040F400301C
:10405000C9F80000BAF1000F5546E7D114E000BFDF
:10406000201D002107F088FE8246BAF1000F554658
:10407000DCD109E004F12400002107F091FF824621
:10408000BAF1000F5546D1D1D9F82C00D4F8A410BC
:1040900020F460004FF0000A0843C9F82C003546B0
:1040A0006078000745D5D4F8A8004FEA30600428AE
:1040B0000CD8DFE800F0131F29030300BAF1000F4A
:1040C00057462BD0E078800771D536E04FF0010AD3
:1040D0000127E078800730D469E000BFD9F80000FC
:1040E00040F40030C9F80000BAF1000F5746E9D19A
:1040F00014E000BF201D002107F03EFE8246BAF109
:10410000000F5746DED109E004F12400002107F03A
:1041100047FF8246BAF1000F5746D3D1D9F82C0099
:10412000D4F8A81020F0E0604FF0000A0843C9F866
:104130002C002F46E078800739D5A06C4FEA30106C
:1041400003280DD8DFE800F002142002BAF1000FB6
:10415000564622D06078C00640F17C802BE000BF3C
:104160004FF0010A01266078C00624D472E000BF37
:10417000D9F8000040F40030C9F80000BAF1000F8F
:104180005646E7D109E000BF201D022107F0F4FDEB
:104190008246BAF1000F5646DCD1D9F82000A16C56
:1041A00020F030004FF0000A0843C9F820003E46D6
:1041B0006078C0064ED5E06D4FEA3030042817D83D
:1041C000DFE800F01E2A3404040000BFBAF1000F3B
:1041D000574635D06078800640D43E466078400629
:1041E0004DD437466078000640F1EF805DE000BFB7
:1041F0004FF0010A0127607880062FD4EDE700BF59
:10420000D9F8000040F40030C9F80000BAF1000FFE
:104210005746DFD114E000BF201D002107F0ACFDA0
:104220008246BAF1000F5746D4D109E004F12400C8
:10423000002107F0B5FE8246BAF1000F5746C9D1FA
:10424000D9F82400E16D20F4E0404FF0000A084363
:10425000C9F82400374660788006BED5206E4FEA44
:104260003040052854D8DFE800F0035B6503030302
:10427000BAF1000F564668D060784006B1D5D4F840
:10428000AC004FEA3070052800F27080DFE800F0E3
:1042900004768204040400BFBAF1000F574600F010
:1042A00084806078000640F19080E06E58B1B0F1F3
:1042B000005F11D0B0F1805F22D1D9F8000040F446
:1042C0000030C9F80000BAF1000F55460DD0E07873
:1042D000C00700F0B4807CE0201D012107F04CFDF8
:1042E0008246BAF1000F5546F1D1D9F82400E16EAB
:1042F00020F040504FF0000A0843C9F8240064E061
:104300004FF0010A0125E078C00762D197E000BFB5
:104310004FF0010A012660784006B0D461E700BF83
:10432000201D012107F028FD8246BAF1000F5646F4
:10433000A2D10AE004F12400012107F031FE8246F7
:10434000BAF1000F56467FF497AFD9F82400216EDA
:1043500020F4E0204FF0000A0843C9F824003E464C
:10436000607840067FF53DAF89E700BF4FF0010A56
:1043700001276078000698D427E000BF201D0121A6
:1043800007F0FAFC8246BAF1000F57467FF489AF76
:104390000BE000BF04F12400012107F001FE82467A
:1043A000BAF1000F57467FF47CAFD9F82C00D4F84F
:1043B000AC1020F0E0404FF0000A0843C9F82C0090
:1043C0003746607800063FF570AF3D46E078C0079D
:1043D00035D0606C03280BD8DFE800F002121E0213
:1043E000BAF1000FD04620D0A07840062ED42AE0A3
:1043F0004FF0010A4FF00108A078400623D525E0D0
:10440000D9F8000040F40030C9F80000BAF1000FFC
:10441000D046E9D109E000BF201D022107F0ACFC25
:104420008246BAF1000FD046DED1D9F82000616C87
:1044300020F003004FF0000A0843C9F82000A84606
:10444000A078400602D4474637E200BF40F2FF2181
:10445000D4F8B000C0F2020188421BDC40F2FF2118
:10446000C0F2010188423BDCB0F5034F76DAB0F5CB
:10447000864F80F2D180B0F50C5F80F25D81B0F59F
:10448000807F00F0FE81B0F5007F00F0FA8100F03F
:1044900035BE00BF40F2FF21C0F2030188423FDC7D
:1044A00048F2FF21C0F20201884269DC44F2FF2198
:1044B000C0F20201884200F3BD8042F2FF21C0F247
:1044C0000201884200F3408140F20031C0F2020153
:1044D000884200F0D68141F20031C0F20201CDE104
:1044E00048F2FF21C0F20101884263DC44F2FF215F
:1044F000C0F20101884200F3B18042F2FF21C0F214
:104500000101884200F32C8140F20031C0F2010128
:10451000884200F0B68141F20031C0F20101ADE104
:1045200048F2FF21C0F2030188425DDC44F2FF2122
:10453000C0F20301884200F3A58042F2FF21C0F2DD
:104540000301884200F3188140F20031C0F20301F8
:10455000884200F0968141F200318DE1B0F5434F81
:1045600080F2A280B0F5234F80F21081B0F5034FA6
:1045700000F08781B0F5134F00F0838100F0BEBDDD
:104580004CF2FF21C0F20201884200F39B804AF204
:10459000FF21C0F20201884200F3FE8048F20031A0
:1045A000C0F20201884200F06C8149F20031C0F291
:1045B000020163E14CF2FF21C0F20101884200F3E5
:1045C00095804AF2FF21C0F20101884200F3F08099
:1045D00048F20031C0F20101884200F0528149F2F4
:1045E0000031C0F2010149E14CF2FF21C0F20301A8
:1045F000884200F38F804AF2FF21C0F20301884213
:1046000000F3E28048F20031C0F20301884200F07A
:10461000388149F200312FE1B0F5C64F80F2DE80DB
:10462000B0F5864F00F02D81B0F5A64F00F029813E
:1046300000F064BD46F2FF21C0F20201884200F39F
:10464000D38044F20031C0F20201884200F01981A7
:1046500045F20031C0F2020110E100BF46F2FF2135
:10466000C0F20101884200F3CB8044F20031C0F275
:104670000101884200F0058145F20031C0F20101DC
:10468000FCE000BF46F2FF21C0F20301884200F3C4
:10469000C38044F20031C0F20301884200F0F1808F
:1046A00045F20031E8E000BFB0F5634F80F2BE8014
:1046B000B0F5434F00F0E580B0F5534F00F0E180D6
:1046C00000F01CBD4EF2FF21C0F20201884200F34F
:1046D000B3804CF20031C0F20201884200F0D18078
:1046E0004DF20031C0F20201C8E000BF4EF2FF21DE
:1046F000C0F20101884200F3AB804CF20031C0F2FD
:104700000101884200F0BD804DF20031C0F201018C
:10471000B4E000BF4EF2FF21C0F20301884200F373
:10472000A3804CF20031C0F20301884200F0A9805E
:104730004DF20031A0E000BF00F0A380B0F54C5F67
:1047400000F09F8000F0DABC42F20031C0F20201BA
:10475000884200F0968043F20031C0F202018DE001
:1047600042F20031C0F20101884200F08A8043F237
:104770000031C0F2010181E042F20031C0F20301D8
:10478000884200F07E8043F2003175E079D0B0F5C8
:10479000334F76D000F0B2BC4AF20031C0F20201D1
:1047A00088426ED04BF20031C0F2020166E000BFD9
:1047B0004AF20031C0F20101884262D04BF200316E
:1047C000C0F201015AE000BF4AF20031C0F2030119
:1047D000884256D04BF200314EE000BF51D0B0F5C8
:1047E000E64F4ED000F08ABC46F20031C0F2020122
:1047F000884246D047F20031C0F202013EE000BFDD
:1048000046F20031C0F2010188423AD047F200314D
:10481000C0F2010132E000BF46F20031C0F20301F4
:1048200088422ED047F2003126E000BF29D0B0F5F3
:10483000734F26D000F062BC4EF20031C0F202018C
:1048400088421ED04FF20031C0F2020116E000BFD4
:104850004EF20031C0F20101884212D04FF2003115
:10486000C0F201010AE000BF4EF20031C0F20301C4
:10487000884206D04FF20031C0F20301884240F076
:104880003D84D9F8D40340F48070C9F8D403FEF70E
:104890009FFF0646D9F8D403C00509D4FEF798FF58
:1048A000801B6428F6D94FF0030A032705E000BFF8
:1048B000BAF1000F574600F08B802078C00700F057
:1048C000E280A06F4FEAF000052800F2B380DFE835
:1048D00000F003B9C5030303BAF1000F564600F018
:1048E000C8802078800700F1D380374620784007C1
:1048F00000F1E3803E462078800600F1F4803746E0
:104900002078400600F107813E462078000600F13D
:104910001A8137462068010740F12D81D4F88000C4
:104920004FEA3031042909D34CF2795040F20F514B
:10493000C0F6010008F06CFDD4F88000B0F5805F8F
:1049400009D104F12400022107F02AFB002818BF36
:104950000127D4F88000D9F8281021F440510843E9
:10496000C9F828002068C10640F10881D4F89400F5
:10497000B0F5007F04DA88B1B0F5807F0ED003E097
:104980000CD0B0F5405F09D04CF2795040F2225182
:10499000C0F6010008F03CFDD4F89400B0F5807F2B
:1049A00009D104F12400022107F0FAFA002818BF07
:1049B0000127D4F89400D9F82C1021F44071084351
:1049C000C9F82C002068000340F10381D8E000BF43
:1049D000D9F84410D4F8B000414011F4407F11D010
:1049E000D9F84410D9F8442042F48032C9F8442060
:1049F000D9F8442021F4407122F48032C9F84420CF
:104A0000C9F84410B0F5807F40F05A83FEF7E0FE0D
:104A1000064641F288354FF0030A0327D9F84400CF
:104A2000800700F14B83FEF7D3FE801BA842F5D927
:104A300043E700BF4FF0010A01262078800727D402
:104A400053E700BF201D012107F096F98246BAF115
:104A5000000F56467FF445AF0BE000BF04F1240081
:104A6000012107F09DFA8246BAF1000F56467FF405
:104A700038AFD9F82800A16F20F038004FF0000AB5
:104A80000843C9F828003E46207880077FF52DAFFF
:104A9000606F052800F21282DFE810F006001802AD
:104AA0002402060006000600BAF1000F574600F087
:104AB0002482207840077FF51DAFD4F890000528A8
:104AC00000F22C82DFE810F0060032023E020600FF
:104AD00006000600BAF1000F564600F03E8220782C
:104AE00080067FF50CAFD4F88C004FEA30700528B3
:104AF00000F24482DFE810F006004A025602060087
:104B000006000600BAF1000F574600F056822078E2
:104B100040067FF5F9AED4F898004FEAB02005289A
:104B200000F25C82DFE810F0060062026E0206000E
:104B300006000600BAF1000F564600F06E8220789B
:104B400000067FF5E6AED4F89C004FEA70300528E9
:104B500000F27482DFE810F006007C028802060092
:104B600006000600BAF1000F574600F08882206860
:104B700001073FF5D3AEC1063FF5F8AE000328D5D7
:104B8000D4F8A000B0F5003F10D0B0F5803F07D0BA
:104B900000283DD1201D002107F0EEF805E000BF00
:104BA00004F12400022107F0FBF98246BAF1000F5C
:104BB000564603D0A078400747D50EE0D9F82C0020
:104BC000D4F8A01020F440304FF0000A0843C9F890
:104BD0002C003E46A078400737D5D4F88400B0F5C5
:104BE000401F0CD0B0F5001F1AD0B0F5801F40F068
:104BF0008580D9F8000040F40030C9F80000BAF10F
:104C0000000F574616D0A078C00722D17CE000BF25
:104C100001264FF0010AA0784007DED415E000BF5E
:104C200004F12400012107F0BBF98246BAF1000F1C
:104C30005746E8D1D9F82800D4F8841020F4401061
:104C40004FF0000A0843C9F828003746A078C0078B
:104C50005AD0E06C40F48031B1F5803F26D1B0F5F8
:104C6000803F2FD0002841D1D9F8000040F4003017
:104C7000C9F80000BAF1000F56462CD02068810018
:104C800046D481034FD4C10266D4C10000F17E80B6
:104C9000810200F19780410000F1AE80B0F1FF3F4A
:104CA00040F3CB80000240F1EA80D8E04CF279502A
:104CB0004FF4B161C0F6010008F0AAFBE06CB0F55A
:104CC000803FCFD1201D022107F056F88246BAF16D
:104CD000000F5646D2D1D9F82000E16C20F4803084
:104CE0004FF0000A0843C9F820000DE001264FF0FC
:104CF000010A20688100C4D50AE000BF01274FF0F7
:104D0000010AA078C007A4D13E4620688100B8D52A
:104D100004F12400022107F043F9002818BF0126FE
:104D200020688103AFD5E16F6FF0010202EB312201
:104D3000022A0AD34FEA31223AB1012A09D1D9F81D
:104D4000002042F40032C9F80020BAF1000F00F050
:104D50009D800126C10298D5216F41F00042B2F139
:104D6000004F09D04CF2795040F2E751C0F60100F3
:104D700008F04EFB2068216FD9F8242022F0004271
:104D80001143C9F82410C1007FF582AFD4F8B410E4
:104D900041F48042B2F5804F0AD04CF2795040F293
:104DA000F151C0F6010008F033FB2068D4F8B410CC
:104DB00059F81C2C22F48042114349F81C1C810232
:104DC0007FF569AFA16E41F08072B2F1807F09D0AA
:104DD0004CF2795040F2FB51C0F6010008F018FB8C
:104DE0002068A16ED9F8242022F080721143C9F8FE
:104DF000241041007FF552AFD4F8B81041F40042BE
:104E0000B2F5004F0AD04CF2795040F21161C0F671
:104E1000010008F0FDFA2068D4F8B81059F81C2CED
:104E200022F4004249F81C2C59F81C2C114349F873
:104E30001C1CB0F1FF3F3FF735AF216D31B1B1F12F
:104E4000805F18BFB1F1005F40F02C81D9F82020BD
:104E500022F040521143C9F8201000020FD5D4F8B7
:104E6000880028B1B0F5800F18BFB0F5000F19D138
:104E7000D9F8281021F440010843C9F82800002E71
:104E800018BF01263046BDE8F08700BFD9F82820BA
:104E900022F440721143C9F82810C1027FF5F5AE23
:104EA0005AE700BF4CF2795040F22561C0F601008C
:104EB00008F0AEFAD4F88800DAE700BF4FF0010A34
:104EC0000127207840073FF5F8AD13E5201D0121AB
:104ED00006F052FF8246BAF1000F57467FF4E9AD63
:104EE0000BE000BF04F12400012107F059F88246CD
:104EF000BAF1000F57467FF4DCADD9F82800616F96
:104F000020F007004FF0000A0843C9F82800374690
:104F1000207840077FF5EEACCFE500BF01264FF0CB
:104F2000010A207880063FF5DEADE8E4201D01216E
:104F300006F022FF8246BAF1000F56467FF4CFAD4D
:104F40000BE000BF04F12400012107F029F882469C
:104F5000BAF1000F56467FF4C2ADD9F82C00D4F850
:104F6000901020F007004FF0000A0843C9F82C0009
:104F70003E46207880067FF5C2ACB4E501274FF0AD
:104F8000010A207840063FF5C6ADBDE4201D002192
:104F900006F0F2FE8246BAF1000F57467FF4B7AD35
:104FA0000BE000BF04F12400022106F0F9FF824665
:104FB000BAF1000F57467FF4AAADD9F82800D4F80B
:104FC0008C1020F0E0404FF0000A0843C9F8280098
:104FD0003746207840067FF597AC9CE501264FF0D8
:104FE000010A207800063FF5AEAD92E4201D0021B5
:104FF00006F0C2FE8246BAF1000F56467FF49FAD1E
:105000000BE000BF04F12400022106F0C9FF824634
:10501000BAF1000F56467FF492ADD9F82C00D4F8BF
:10502000981020F4E0504FF0000A0843C9F82C0013
:105030003E46207800067FF56CAC84E501274FF0F2
:10504000010A206801077FF596ADFFF767BC00BF36
:10505000201D002106F090FE8246BAF1000F57464F
:105060007FF485AD0BE000BF04F12400022106F0BF
:1050700097FF8246BAF1000F57467FF478ADD9F812
:105080002C00D4F89C1020F460404FF0000A084334
:10509000C9F82C003746206801077FF56CADFFF793
:1050A0003DBC00BF4CF2795040F21B61C0F60100DC
:1050B00008F0AEF92068216DC8E600BFD4F8B00052
:1050C0004FF6CF7359F81C2CC0F2FF0300F4407167
:1050D00022F47C5203EA10136FF31F30B1F5407FC6
:1050E00008BF1A434FF0000A49F81C2CD9F84410A5
:1050F0000843C9F84400FFF7A6B900BF4CF2795045
:1051000040F27F31C0F6010008F082F9FFF7B9BB29
:105110002DE9F04381B0002800F03E82044600688B
:1051200001380D463F2807D34CF2415040F28631FA
:10513000C0F6010008F06CF9102D07D34CF2415075
:1051400040F28731C0F6010008F062F942F200082F
:10515000C5F20028D8F8000000F00F00A8420DD2D8
:10516000D8F8000020F00F002843C8F80000D8F855
:10517000000000F00F00A84240F00E82206844F2C8
:1051800018494107C5F6020920D52169D9F8002040
:1051900002F07002914219D96FF0030202EB311252
:1051A000042A0CD34FEA31124AB14CF2415040F27A
:1051B000A331C0F6010008F02BF920682169D9F865
:1051C000002022F070021143C9F80010010720D519
:1051D0006169D9F8042002F07002914219D96FF088
:1051E000030202EB3112042A0CD34FEA31124AB106
:1051F0004CF2415040F2B531C0F6010008F008F918
:1052000020686169D9F8042022F070021143C9F8BE
:105210000410C10620D5A169D9F8042002F4E06287
:10522000914219D96FF0030202EB3122042A0CD308
:105230004FEA31224AB14CF2415040F2C631C0F639
:10524000010008F0E5F82068A169D9F8042022F4EB
:10525000E0621143C9F80410810620D5E169D9F84C
:10526000082002F07002914219D96FF0030202EB9C
:105270003112042A0CD34FEA31124AB14CF2415098
:105280004FF47671C0F6010008F0C2F82068E169B9
:10529000D9F8082022F070021143C9F808108107DC
:1052A0001BD5E168D9F8002002F00F02914214D911
:1052B00021F00702082A09D04CF2415040F2EB31AC
:1052C000C0F6010008F0A4F82068E168D9F80020D1
:1052D00022F00F021143C9F80010C10759D0A0688D
:1052E0006FF0070101EB302108296FD260680428B4
:1052F00008D34CF241504FF47F71C0F6010008F022
:1053000087F86068D9F80010A26821F4706101285C
:1053100041EA0201C9F800100AD003280ED0022881
:1053200012D159F8181C890340F1368111E000BFF1
:1053300059F8181CC90540F12F810AE059F8181CCA
:10534000890140F1298104E059F8181C490740F10E
:10535000238159F8081C21F00701084349F8080C7B
:10536000FEF736FA064641F2883700BF59F8080CB6
:10537000616800F03800B0EBC10F09D0FEF728FAE1
:10538000801BB842F2D9032001B0BDE8F08300BF12
:105390002068800733D5264656F80C0FD9F8001040
:1053A00001F00F0188422AD2102806D281B24FF6AE
:1053B000017222FA01F1C90716D14CF2415040F2B4
:1053C0003D41C0F6010008F023F810E04FEA30201C
:1053D00000283FF48BAF4CF2415040F2FB31C0F655
:1053E000010008F015F881E76DA101EB8006306837
:1053F000D9F8001021F00F010843C9F80000D8F8CF
:10540000000000F00F00A8420DD9D8F8000020F0ED
:105410000F002843C8F80000D8F8000000F00F0083
:10542000A84240F0B9802068410720D52169D9F809
:10543000002002F07002914219D26FF0030202EBD9
:105440003112042A0CD34FEA31124AB14CF24150C6
:1054500040F25E41C0F6010007F0DAFF20682169E2
:10546000D9F8002022F070021143C9F8001001079A
:1054700020D56169D9F8042002F07002914219D256
:105480006FF0030202EB3112042A0CD34FEA3112FF
:105490004AB14CF241504FF48E61C0F6010007F062
:1054A000B7FF20686169D9F8042022F07002114327
:1054B000C9F80410C10620D5A169D9F8042002F466
:1054C000E062914219D26FF0030202EB3122042A0A
:1054D0000CD34FEA31224AB14CF2415040F28241A2
:1054E000C0F6010007F094FF2068A169D9F80420F4
:1054F00022F4E0621143C9F8041080061FD5E06968
:10550000D9F8081001F07001884218D26FF0030139
:1055100001EB301104290BD34FEA301141B14CF2A9
:10552000415040F29441C0F6010007F071FFE0697C
:10553000D9F8081021F070010843C9F8080000F0FC
:10554000D7F8D9F8001047F68E03D9F80020C0F636
:105550000103C1F3032102F00F02595C9A5C01F0D0
:105560001F0120FA01F102F01F0040F20C0221FAA3
:1055700000F0C2F20042106040F2000040F2080267
:10558000C2F20040C2F200420068116001B0BDE802
:10559000F043FEF769B900BF012001B0BDE8F08318
:1055A00000000000000000000000000000000000FB
:1055B00000000000000000000000000000000000EB
:1055C00008000000090000000A0000000B000000B5
:1055D0000C0000000D0000000E0000000F00000095
:1055E00080B500F085F844F2184147F68E03C5F601
:1055F0000201C0F601030A68096801F00F01C2F355
:105600000322595C9A5C02F01F0220FA02F201F0B8
:105610001F0040F20C0122FA00F0C2F200410860C3
:1056200040F20801C2F200410A6080BD00000000A3
:1056300080B500F05DF844F2184C47F68E01C5F6CF
:10564000020CC0F60101DCF80020DCF8003003F0A9
:105650000F03C2F30322CB5C8A5C02F01F02D0402E
:1056600003F01F0240F20C0320FA02F2C2F20043E0
:105670001A6040F20803C2F200431860DCF804002C
:10568000C0F30210085C00F01F0022FA00F080BD99
:1056900080B500F02DF844F2184C47F68E01C5F69F
:1056A000020CC0F60101DCF80020DCF8003003F049
:1056B0000F03C2F30322CB5C8A5C02F01F02D040CE
:1056C00003F01F0240F20C0320FA02F2C2F2004380
:1056D0001A6040F20803C2F200431860DCF80400CC
:1056E000C0F30220085C00F01F0022FA00F080BD29
:1056F00044F20041C5F602010869C0F3C200032864
:1057000010D002282CD088BB0868800649F200001F
:10571000C0F2D03058BF70470968C1F3C101C8401A
:10572000704700BF8A6A886AC0F3051CC86ABCF16A
:10573000000F4B6B20D0C3F3CC0300F001005843A3
:1057400002F00302022A00EE100AB8EE400A15D059
:10575000C2B90868800619D49FED281A23E000BF5B
:1057600041F60030C0F2B700704700BF40F60010AD
:10577000C0F23D00704700BF002070479FED1E1A29
:1057800011E000BF9FED1B1A0DE000BF086849F251
:105790000002C0F2D032C0F3C10022FA00F001EEE4
:1057A000100AB8EE411A086B9FED153A6FF35F20AF
:1057B00002EE100A086BC0F34620B8EE422A013010
:1057C00000EE032A00EE10CAB7EE003AB8EE400A27
:1057D00081EE000A32EE031A20EE010A01EE100AF1
:1057E000B8EE411A80EE010ABCEEC00A10EE100AB3
:1057F000704700BF0024744A001B374B0024744CD0
:105800000000003900000000F0B581B0002800F071
:10581000B1810446006858B110F03F0108D14CF244
:10582000415040F2A311C0F6010007F0F1FD2068DD
:1058300044F20046C007C5F6020622D0606868B18F
:10584000B0F5803F18BFB0F5A02F07D04CF2415003
:105850004FF4D471C0F6010007F0DAFD306900F0B2
:105860003801B06A102905D0182923D100F00300AF
:1058700002281FD13068800303D56068002800F03B
:1058800079812078800740F1BC80E068192825D80C
:10589000012101FA00F040F20321C0F20221084286
:1058A0001CD02069802824D2306910F03801B06AF9
:1058B0002CD145E06068002872D0B0F5A02F00F030
:1058C0008780B0F5803F00F08780306820F480301A
:1058D0003060306820F4802081E000BF4CF24150FD
:1058E0004FF4EE71C0F6010007F092FD20698028A8
:1058F000DAD34CF2415040F2DD11C0F6010007F05E
:1059000087FD306910F03801B06A19D0182908BF36
:105910005FEA807014D0E068316878B321F0190133
:1059200008433060FDF754FF054600BF306840076C
:105930000DD4FDF74DFF401B0228F7D991E100BFC0
:105940003068400703D5E068002800F01381FDF7B8
:1059500037FF41F20301884208D820697168402866
:1059600021F47C314AD141F4003049E0706821696A
:1059700020F0FE4040EA016042E000BF21F001005B
:105980003060FDF725FF05463068400739D5FDF743
:105990001FFF401B02284FF00300F5D97BE200BF38
:1059A000306820F480303060306820F4802030602F
:1059B000FDF70EFF054600BF306880037FF561AF3D
:1059C000FDF706FF401B64284FF00300F4D962E2A4
:1059D000306840F480203060306840F480303060BF
:1059E000FDF7F6FE054600BF306880033FF549AF7E
:1059F000FDF7EEFE401B6428F6D932E141EA0030A3
:105A000070602078C0066ED5E06940F08000802884
:105A100040D1206A402807D34CF241504FF408711E
:105A2000C0F6010007F0F4FC306900F03801B06AFC
:105A3000082905D0182919D100F00300012815D133
:105A40003068C00503D5E069802840F09380FDF7F9
:105A5000B7FE41F20301884228D8206A71682028E5
:105A600021F0F8413CD141F080403BE0E069002862
:105A7000306823D040F080003060FDF7A9FE054675
:105A80003068C005E3D4FDF7A3FE401B0228F7D918
:105A9000E7E000BF4CF2415040F21F21C0F6010088
:105AA00007F0B6FC206A4028B6D2BDE7F068216A4C
:105AB00020F07C5040EA0160F06014E020F08000AB
:105AC0003060FDF785FE05463068C0050BD5FDF753
:105AD0007FFE401B02284FF00300F5D9DBE100BF39
