:020000040800F2
:10000000083300249D030008D9180008610B00087C
:10001000D1180008410B0008514000080000000002
:10002000000000000000000000000000F93C000893
:10003000590B000800000000F13C0008013D0008D9
:10004000B7030008B7030008B7030008B7030008A8
:10005000B7030008B7030008B7030008B703000898
:10006000B7030008B7030008B7030008490B0008EE
:10007000510B0008B7030008B7030008B7030008D6
:10008000B7030008B7030008B7030008B703000868
:10009000B7030008B7030008B7030008B703000858
:1000A000B7030008B7030008B7030008B703000848
:1000B000B7030008413F0008B7030008B703000872
:1000C000B7030008B7030008B7030008B703000828
:1000D000B7030008B7030008B7030008513F000842
:1000E000B7030008B703000800000000B7030008CA
:1000F000B7030008B7030008B7030008B7030008F8
:10010000B7030008B7030008B7030008B7030008E7
:10011000B7030008B7030008B7030008B7030008D7
:10012000B7030008B7030008B7030008B7030008C7
:10013000B7030008B7030008B7030008B7030008B7
:1001400000000000000000000000000000000000AF
:10015000B7030008B7030008B7030008B703000897
:10016000B7030008B7030008B7030008B703000887
:10017000B7030008B7030008B70300080000000039
:10018000B7030008B7030008B7030008B703000867
:10019000B7030008B7030008B7030008B703000857
:1001A000B7030008B7030008B7030008B703000847
:1001B000B7030008B7030008B7030008B703000837
:1001C000B7030008B7030008B7030008B703000827
:1001D000B7030008B7030008B7030008B703000817
:1001E000B7030008B7030008B7030008B703000807
:1001F000B7030008B7030008B7030008B7030008F7
:10020000B7030008B7030008B7030008B7030008E6
:10021000B7030008B7030008B7030008B7030008D6
:10022000B7030008B7030008B70300080000000088
:10023000B7030008B703000800000000B703000878
:10024000B7030008310B0008390B0008B70300089A
:10025000B7030008B7030008B7030008B703000896
:10026000B7030008B7030008B7030008B703000886
:10027000B7030008B7030008C11800080000000019
:10028000B7030008B7030008B70300080000000028
:1002900000000000B703000800F002F800F06EF85C
:1002A0000AA090E8000C82448344AAF10107DA45D1
:1002B00001D100F063F8AFF2090EBAE80F0013F0B5
:1002C000010F18BFFB1A43F001031847684B0000E9
:1002D000984B00000A4410F8014B14F00F0508BFBA
:1002E00010F8015B240908BF10F8014B6D1E05D002
:1002F00010F8013B6D1E01F8013BF9D1641E03D0DB
:10030000641E01F8015BFBD19142E4D37047000009
:10031000103A24BF78C878C1FAD8520724BF30C831
:1003200030C144BF04680C60704700000023002403
:1003300000250026103A28BF78C1FBD8520728BFF5
:1003400030C148BF0B607047642900F025817529D2
:1003500000F02281732900F03683002070471FB51A
:1003600004F02EFD00F092FB04000020002104F0B8
:1003700011FD401C60601FBD10B510BD00F060FB9A
:100380001146FFF7ECFF03F0EFFE00F083FB03B430
:10039000FFF7F2FF03BC03F05FFE0000094880474F
:1003A00009480047FEE7FEE7FEE7FEE7FEE7FEE757
:1003B000FEE7FEE7FEE7FEE704480549054A064B6F
:1003C00070470000613E00089902000808230024DD
:1003D00008330024082B0024082B002472B6704731
:1003E00062B6704772B602B4EFF3118180F31188E0
:1003F000BFF34F8FBFF36F8F084602BC62B67047E2
:1004000072B680F31188BFF34F8FBFF36F8F62B660
:10041000704730BF704720BF7047B0FA80F0704718
:1004200090FAA0F0B0FA80F0704790FAA0F0704710
:1004300053EA020C00F069802DE9F04B4FF0000602
:10044000002B1FBFB3FA83F503FA05F424FA05F66F
:100450005E4012BF1643B2FA82F502FA05F4C5F106
:1004600020051EBF22FA05FC44EA0C04203556EA9A
:10047000044C4FEA144418BF641C4FF000084FF0BE
:100480000009904271EB030C39D3002919BFB1FA6E
:1004900081F701FA07F6B0FA80F700FA07F6C7F11C
:1004A00020071EBF20FA07FC46EA0C062037B6FBE1
:1004B000F4FCA7EB0507103F07F01F0BCBF120065C
:1004C0002CFA06F60CFA0BFB44BFB3460026202F8D
:1004D000A4BF5E464FF0000B5BEA060C08BF4FF06E
:1004E000010B19EB0B0948EB0608ABFB027C06FB82
:1004F00002CC0BFB03CCC01B71EB0C01C1E70B461C
:10050000024641464846BDE8F08B13B5084318BF84
:100510004FF0FF300146AFF30080BDE81C4070474C
:1005200009684A0501D540B27047C905FCD500B23B
:10053000704709684A0501D5C0B27047C905FCD5A6
:1005400080B2704770B50C460546012A05D0287860
:10055000800600D5EA69002302E0012305E05B1C68
:10056000934202D2E05C0028F9D1A869E618C01ACB
:10057000A861286A184428622846AFF3008004E086
:10058000D5E9012114F8010B9047B442F8D328466D
:10059000AFF3008070BD00002DE9F0410646002455
:1005A00010687529314616A510D0FFF7B9FF00284D
:1005B00002DA404213A507E031688A0701D512A587
:1005C00002E0490704D511A5012401E0FFF7B1FFBE
:1005D00000210A2206F1240709E0B0FBF2FCB0FB7F
:1005E000F2F302FB1C00303078541846491C0028F6
:1005F000F3D123462A463046BDE8F04100F078B9F1
:10060000000000002D0000002B0000002000000072
:100610002DE9FF5F1D464FF0FF3B91464FF000086C
:100620005F46D5E90146A96901987F1C8847296A78
:10063000824688470028F6D1BAF1FF3F0CD0002E41
:1006400024F4C06419DD600614D5BAF12B0F09D06B
:10065000BAF12D0F0ED103E0584604B0BDE8F09F6B
:1006600044F48064A96901987F1C8847761E8246FD
:10067000002E02DDBAF1300F03D0B9F1000F26D001
:1006800032E0A969761E01987F1C44F40074884703
:10069000002E824605DDBAF1780F06D0BAF1580F68
:1006A00003D0B9F1000F10D01EE0B9F1000F02D055
:1006B000B9F1100F18D1A969761E01987F1C24F496
:1006C000007488478246102002E0082000E00A20DB
:1006D000814609E0A96908FB0908761E01987F1C7C
:1006E00044F4007488478246002E05DD4946504692
:1006F00000F06DF90028EDDAE96901988847A00556
:1007000002D46FF00100A8E7E00725D1600613D5F9
:10071000600502D5C8F1000000E0404629680A1DC6
:100720002A600968220501D5087015E0220701D565
:10073000088011E008600FE02868011D296000684A
:10074000210502D580F8008006E0210702D5A0F837
:10075000008001E0C0F8008038467EE72DE9FF4FB9
:100760004FF000089A461446C146464683B0D2E987
:1007700001B7CDF80080CDF80480916904988847CE
:10078000109905465AEA010005D009E0A1690498CC
:10079000761C88470546216A284688470028F5D1F7
:1007A000681C03D05FEACB7005D029E04FF0FF3022
:1007B00007B0BDE8F08F2068011D2160D0F80080EF
:1007C0001EE002A86A46E9B200F00FF9411C07D00A
:1007D000801C09D04FF000095FEACB7007D009E018
:1007E000E169049888473DE04FF0010903E0029970
:1007F00048F8041B7F1EA1690498761C88470546AB
:10080000002F1ADD681C18D0BAF1000F0DD0E817C0
:1008100005EBD060421120F01F005AF822102A1A6E
:10082000012090400142CCD107E010980028C8D1A7
:100830002846216A88470028C3D0E1690498884780
:10084000B9F1000F0ED1109830B9002E04DD5FEA27
:10085000CB7001D1C8F80000A068B84202DD109842
:1008600018B117B16FF00100A2E73046A0E7000011
:1008700010B5044603E003F027FC401C09D014F82F
:10088000010B05490028F6D1BDE810400A2003F00D
:100890001BBC4FF0FF3010BD541E00244FF000026F
:1008A00000B5134694469646203922BFA0E80C5066
:1008B000A0E80C50B1F12001BFF4F7AF090728BF41
:1008C000A0E80C5048BF0CC05DF804EB890028BFBD
:1008D00040F8042B08BF704748BF20F8022B11F0E6
:1008E000804F18BF00F8012B704770477047704762
:1008F0002DE9F0470D4699469246044600F124083A
:100900000168880604D5E06921F01001216000E04B
:100910000120A84201DD471B00E00027A1697A19E8
:1009200002EB0900081AA0612078C00602D4204614
:10093000AFF30080002608E0D4E901211AF8060090
:100940009047206A401C761C20624E45F4DB2078DC
:10095000C0060AD52046AFF3008006E0D4E90121A5
:1009600030209047206A401C2062381EA7F1010702
:10097000F4DC07E0D4E9012118F805009047206A6B
:10098000401C2062281EA5F10105F3DC2046AFF3D0
:1009900000802078000602D50220BDE8F087012003
:1009A000FBE710B5436913B1AFF3008001E0FFF737
:1009B000C9FD012010BD127800F124010A70002247
:1009C0004A700122EDE711684FF0FF32E9E73A285B
:1009D00000D2303820F02002412A01D3A2F13700A2
:1009E000884201D34FF0FF3070472DE9F0411646A1
:1009F0000C46054600F01CF8036893F80101012835
:100A000005D0185D80B101202C60BDE8F081D3F8DD
:100A100003013246214603F20313C7182846BC4699
:100A2000BDE8F041012360474FF0FF30EDE70000E3
:100A300010B500F02BF8001D10BD00BF5943000099
:100A4000754600F031F8AE4605006946534620F081
:100A50000700854618B020B5FFF7AEFCBDE8204082
:100A60004FF000064FF000074FF000084FF0000B6A
:100A7000AC46ACE8C009ACE8C009ACE8C009ACE8D9
:100A8000C00921F007018D467047000000487047FB
:100A90002800002410B50446AFF300802046BDE8CE
:100AA0001040FFF774BC00000048704708000024A5
:100AB00030B44FF0013C50F8042BCCFA52F451F80A
:100AC000043BD51A20D1FCB950F8042BCCFA52F4CF
:100AD00051F8043BD51A17D1B4B950F8042BCCFA0D
:100AE00052F451F8043BD51A0ED16CB950F8042BCE
:100AF000CCFA52F451F8043BD51A05D1002CDAD0C7
:100B000030BC4FF00000704729BAB1FA81F111F002
:100B10001801D1F120008440F2D1CA40CB4012F03C
:100B2000FF0213F0FF0330BCD01A70470000000032
:100B30007047000000000000704700000000000047
:100B4000FEE7000000000000704700000000000009
:100B50007047000000000000704700000000000027
:100B6000FEE70000000000002DE9F0430B6893FA57
:100B7000A3F2B2FA82F233FA02F659D04FF0010C26
:100B80000CE000BFD1E90034066804FB0EF72E40EC
:100B900037430760013233FA02F749D00CFA02F604
:100BA00013EA0604F6D04E6804FB04FE751E022DFF
:100BB00018D2D0F808808F680EEB4E0507FB0EF9AF
:100BC00028EA0507D1F80C80ED4347EA090787605A
:100BD000D0F8049008FB03F729EA03033B43436082
:100BE00003E000BF0EEB4E03DD430B69C7682F40E7
:100BF000022E03FB0EF343EA0703C360C2D1230AAC
:100C0000B4F5807F03FB03F34FF0240403FB03F3ED
:100C10003CBF20240EFB0EF3D1F814800759C3EB20
:100C2000031608FB03F327EA060633430351A9E73B
:100C30000020BDE8F083000044F6D3514EF21002CC
:100C4000C1F26201CEF20002A0FB01014FF0FF30C1
:100C500000EB9110506000209060052010607047FC
:100C600070B504460068C00734D10D464EF6F31146
:100C700005F108032068CEF6FF7108400ECB08434B
:100C80006969184308432060606820F440501043AD
:100C90006060A869A16821F440710843A060072042
:100CA00000F036F8D0B16A68D2B1298811A30026C5
:100CB00033F811100023B0FBF1F0010E000210EB2D
:100CC000520041F10001FFF7B3FB6FF31F50E060EA
:100CD00007E000BF0126304670BD00BF012600E0DE
:100CE00001262888E16A21F00F010843E0623046BE
:100CF00070BD00BF010002000400060008000A00E9
:100D00000C001000200040008000000100000000E6
:100D100010B584B044F20044C5F60204A06D00F0A2
:100D2000070005282FD8DFE800F00317212B313BFF
:100D30002069C0F3C200032846D8DFE800F003476B
:100D40004D5300BF206849F20001C0F2D031C0F31A
:100D5000C10021FA00F049E02068000113D501A884
:100D600000F032F9029804B010BD00BF2068800086
:100D700009D501A800F0F8F9029804B010BD00BF31
:100D80002068400714D4002004B010BD206840F64D
:100D90000011C005C0F23D0101EAE07004B010BDD1
:100DA000206F4FF4004101EA803004B010BD00BF55
:100DB000206849F20001C0F2D031C0F3C10021FA2D
:100DC00000F004B010BD00BF00200FE040F600109E
:100DD000C0F23D000AE000BF41F60030C0F2B700AB
:100DE00004E000BF01A800F01FF80198A16944F6D3
:100DF000DA52C0F60002A369C1F30321246A03F0AA
:100E00000F03C4F30214515CD35C125D01F01F01A7
:100E1000C84003F01F01C84002F01F01C84004B0E1
:100E200010BD00000000000080B544F2004EC5F681
:100E3000020EDEF8282002F00302022A0AD0012A5C
:100E400010D022B9DEF80020520700F1AD804FF03B
:100E5000000C10E0DEF8002041F600339203C0F2EF
:100E6000B70306E0DEF8002040F60013D205C0F21A
:100E70003D0303EAE27C00228260C0E90022DEF842
:100E80002830DEF83020DEF82C10C907C3F3051334
:100E90007AD19FED4B0A002B00F085806FF35F2223
:100EA000DEF82C10C90302F1010220D501EE10CAB0
:100EB00002EE103A03EE102ADEF83010C1F346219C
:100EC000B8EE411AB8EE422A0131B8EE433A81EE4B
:100ED000021A30EE032A21EE021A02EE101AB8EEC0
:100EE000422A81EE021ABCEEC11A80ED001ADEF829
:100EF0002C10890320D501EE10CA02EE103A03EE41
:100F0000102ADEF83010C1F30641B8EE411AB8EEEF
:100F1000422A0131B8EE433A81EE021A30EE032A3A
:100F200021EE021A02EE101AB8EE422A81EE021ADF
:100F3000BCEEC11A80ED011ADEF82C10490358BF2F
:100F400080BD01EE10CA02EE103A03EE102ADEF860
:100F50003010C1F30661B8EE411AB8EE422A0131F1
:100F6000B8EE433A81EE021A30EE030A21EE000A8F
:100F700001EE101AB8EE411A80EE010ABCEEC00A6A
:100F800080ED020A80BD00BFDEF834109FED0D1A1F
:100F9000C1F3CC0100EE101AB8EE400A20EE010AAF
:100FA000002B7FF47BAF80BDDEF8002049F2000308
:100FB000C0F2D033C2F3C10223FA02FC5BE700BFE8
:100FC000000000000000003980B544F2004EC5F674
:100FD000020EDEF8282002F00302022A0AD0012ABB
:100FE00010D022B9DEF80020520700F1AD804FF09A
:100FF000000C10E0DEF8002041F600339203C0F24E
:10100000B70306E0DEF8002040F60013D205C0F278
:101010003D0303EAE27C00228260C0E90022DEF8A0
:101020002830DEF83820DEF82C10C906C3F305336B
:101030007AD49FED4B0A002B00F085806FF35F227E
:10104000DEF82C10090302F1010220D501EE10CACE
:1010500002EE103A03EE102ADEF83810C1F34621F2
:10106000B8EE411AB8EE422A0131B8EE433A81EEA9
:10107000021A30EE032A21EE021A02EE101AB8EE1E
:10108000422A81EE021ABCEEC11A80ED001ADEF887
:101090002C10C90220D501EE10CA02EE103A03EE60
:1010A000102ADEF83810C1F30641B8EE411AB8EE46
:1010B000422A0131B8EE433A81EE021A30EE032A99
:1010C00021EE021A02EE101AB8EE422A81EE021A3E
:1010D000BCEEC11A80ED011ADEF82C10890258BF4F
:1010E00080BD01EE10CA02EE103A03EE102ADEF8BF
:1010F0003810C1F30661B8EE411AB8EE422A013148
:10110000B8EE433A81EE021A30EE030A21EE000AED
:1011100001EE101AB8EE411A80EE010ABCEEC00AC8
:1011200080ED020A80BD00BFDEF83C109FED0D1A75
:10113000C1F3CC0100EE101AB8EE400A20EE010A0D
:10114000002B7FF47BAF80BDDEF8002049F2000366
:10115000C0F2D033C2F3C10223FA02FC5BE700BF46
:10116000000000000000003910B544F20044C5F64C
:101170000204A26A02F00302022A09D0012A0FD057
:101180001AB92268520700F1A7804FF0000E0FE055
:10119000226841F600339203C0F2B70306E000BFB5
:1011A000226840F60013D205C0F23D0303EAE27E56
:1011B00000228260C0E90022A36A226CE16AC905AC
:1011C00006D49FED4A0ABEF1000F0FD182E000BFA6
:1011D000616C9FED471AC1F3CC0100EE101AB8EE16
:1011E000400A20EE010ABEF1000F73D0C3F305538D
:1011F000002B6FD06FF35F22E16A490202F1010C0C
:101200001FD501EE10EA02EE103A03EE10CA216C6F
:10121000C1F34621B8EE411AB8EE422A0131B8EEC8
:10122000433A81EE021A30EE032A21EE021A02EE50
:10123000101AB8EE422A81EE021ABCEEC11A80EDF5
:10124000001AE16A09021FD501EE10EA02EE103A17
:1012500003EE10CA216CC1F30641B8EE411AB8EE94
:10126000422A0131B8EE433A81EE021A30EE032AE7
:1012700021EE021A02EE101AB8EE422A81EE021A8C
:10128000BCEEC11A80ED011AE16AC90158BF10BD58
:1012900001EE10EA02EE103A03EE10CA216CC1F31F
:1012A0000661B8EE411AB8EE422A0131B8EE433A6F
:1012B00081EE021A30EE030A21EE000A01EE101A46
:1012C000B8EE411A80EE010ABCEEC00A80ED020AB7
:1012D00010BD00BF10BD00BF226849F20003C0F27C
:1012E000D033C2F3C10223FA02FE61E7000000001E
:1012F000000000390000000010B584B040F2442125
:101300000246C0F30423C0F2580161F31F2244F2E5
:101310000044010EC5F60204D26C99401140D94038
:1013200040EA01410720C0F2037081424FF0000003
:1013300018DC40F20732C0F2017291422ADC082226
:10134000C0F20072914275D040F20832C0F20072D1
:10135000914200F083800822C0F20172914259D07C
:1013600056E000BF40F20732C0F2047291422BDC1B
:101370000822C0F2037291423ED040F20832C0F21D
:101380000372914238D00822C0F20472914247D0D1
:101390003EE000BF40F20832C0F20172914239D003
:1013A0000822C0F20272914205D040F20832C0F227
:1013B000027291422CD1206880002ED501A8FFF73F
:1013C000D3FE029804B010BD40F20832C0F204729D
:1013D000914225D00822C0F20572914205D040F218
:1013E0000832C0F20572914212D1206F4FF40041D1
:1013F00001EA803004B010BD206840070DD5206898
:1014000049F20001C0F2D031C0F3C10021FA00F06E
:1014100004B010BD2068000134D4002004B010BD19
:10142000206840F60011C005C0F23D0101EAE070FD
:1014300004B010BD2069C0F3C200032828D8DFE83B
:1014400000F003292F3500BF206849F20001C0F2E7
:10145000D031C0F3C10021FA00F02BE02069C0F3C5
:10146000C200032848D8DFE800F003353B4100BF45
:10147000206849F20001C0F2D031C0F3C10021FA66
:1014800000F03AE001A8FFF79FFD029804B010BDFC
:1014900000200FE040F60010C0F23D000AE000BF5F
:1014A00041F60030C0F2B70004E000BF01A8FFF72A
:1014B000BBFC0198A16944F6DA52C0F60002A369A8
:1014C000C1F30321E46903F00F03C4F30214515C78
:1014D00021E000BF40F60010C0F23D000DE000BF6B
:1014E00041F60030C0F2B70007E000BF01A8FFF7E7
:1014F0009BFC019801E000BF0020A16944F6DA528C
:10150000C0F60002A369C1F30321E46903F00F03ED
:10151000C4F30224515CD35C125D01F01F01C8408A
:1015200003F01F01C84002F01F01C84004B010BD05
:10153000B0B50268D20729D14FF6E0738268C8F6C9
:10154000BF73D1F820C01A408B691A438B6842EAF6
:101550000C024C68D1F814E01A438260B4F5800F95
:10156000C26805D1BEF1806F08BF12F080520FD063
:10157000C268002C08BFBEF1806F0ED112F08052FD
:101580001EBF026842F48052026006E00120B0BD36
:10159000026842F480520260C2684FF6FF73C2686C
:1015A000CDF6390344EA0E0402EA0305CB6823436F
:1015B0000C692B430A68CD69234302F4C0242B43F2
:1015C0002343C3600368D20A62F3CB23BCF5800FC8
:1015D000036001D1496A0164016D21F001010165D7
:1015E0000020B0BD0000000040F20001C2F2004146
:1015F000086070470000000040F6FF330246C4F266
:101600000003984200680FDCB2F1804F1DD040F219
:101610000043C4F200039A4217D040F60003C4F21C
:1016200000039A4211D014E040F60043C4F20003D4
:101630009A420AD040F20043C4F201039A4204D015
:101640000023C4F201039A4203D120F070004B68DA
:1016500018434FF6FF7343F6FF7CC4F20003C4F255
:10166000010C9A4214DD624522DD44F20003C4F20B
:1016700001039A4234D044F60003C4F201039A42B3
:101680002ED044F20043C4F201039A4228D02BE04A
:1016900040F2FF73C4F200039A4215DCB2F1804FAE
:1016A0001ED040F20043C4F200039A4218D01BE05F
:1016B0000023C4F201039A4212D040F20043C4F264
:1016C00001039A420CD00FE040F60003C4F200037D
:1016D0009A4205D040F60043C4F200039A4203D177
:1016E00020F44070CB681843106062458868D0626F
:1016F0000888906212DD44F20000C4F201008242C8
:1017000017D044F60000C4F20100824211D044F226
:101710000040C4F2010082420BD00CE00020C4F271
:101720000100824205D040F20040C4F20100824232
:1017300001D1086910635169002041F00101516134
:101740007047000000000000B0B504460068C00704
:101750003AD10D4646F6F31105F108032068CEF69E
:10176000FF7108400ECB084369691843EB690843D1
:10177000082118432060606847F2FF7320F440504E
:10178000C4F2000310436060A869A26822F44072AA
:10179000C0F2007110439C42A0604FF0010015DCC4
:1017A00044F6FF32C4F20002944223DC44F20042C9
:1017B000C4F20002944239D044F60002C4F200029E
:1017C000944233D05BE000BF0120B0BD40F6FF7211
:1017D000C4F2010294421BDC47F60002C4F200028C
:1017E000944223D047F60042C4F2000294421DD036
:1017F00045E000BF44F60042C4F20002944215D016
:1018000045F20002C4F2000294420FD037E000BF5C
:1018100041F2000201F54071C4F20102944205D088
:1018200041F20042C4F20102944228D10846FFF777
:1018300063FDC8B16968C9B12A680B2A1ED813A311
:1018400053F82220B0FBF2F0EA69B2F5004F0FD155
:10185000400000EB5100B0FBF1F04FF6F071014099
:10186000C0F34200084408E0012008E0012006E03F
:1018700000EB5100B0FBF1F080B2E060002029885D
:10188000E26A22F00F021143E162B0BD01000000E4
:101890000200000004000000060000000800000034
:1018A0000A0000000C0000001000000020000000F2
:1018B0004000000080000000000100000000000067
:1018C00040F60040C5F6000002F04ABB00000000F0
:1018D000FEE7000000000000FEE70000000000003E
:1018E0007047000000000000B0B58AB0044600F068
:1018F000B3F841F2D9100025C2F2004041F2BC41D8
:10190000C2F20041057041F2F030C2F200400D60B9
:101910004CF6CD41057041F2F130C2F20040CCF6F8
:10192000CC41057041F2B840C2F20040056044F677
:101930001C60C0F600000068A0FB010141F2E41049
:10194000C2F20040C908057041F2F430C2F2004012
:10195000016041F2E51044F6EC51C2F20040C0F6DD
:1019600000010570086841F2F831C2F200410D70C3
:1019700040B144F6F051C0F60001096811B1890088
:10198000FEF78CFF41F2C640C2F20040057001F044
:10199000EFF841F2F0104FF40071C2F20040FEF790
:1019A0007DFF204600F008FE206808B10AB0B0BDF7
:1019B000204600F005FE20680028F7D1204601F0FF
:1019C00067FC20680028F1D144F6F45044F6FC523C
:1019D000C0F6000044F6F851C0F60002C0F600015F
:1019E0000068002315683F22CDE900200020069002
:1019F000CDE904000B20079041F2301042F29952D9
:101A000009680291C2F20040C0F600020021089469
:101A1000039500F0CDFA20680028C7D1204601F0D8
:101A200057FC20680028C1D1204601F051FB2068F6
:101A30000028BBD1204601F03BFE20680028B5D12C
:101A4000FFF74EFF41F2D8100121C2F200400170B1
:101A50000AB0B0BD0000000044F6EC5044F6F0516E
:101A6000C0F60000C0F600010068096800EB8100C4
:101A700020F0070140F26800C2F2004001604EF61B
:101A80003471CEF200010968890F022902D9402180
:101A900041607047FEE7000041F2F030C2F20040C2
:101AA0000078012808D141F2D910C2F20040017833
:101AB000F9299CBF0131017070470000000000004F
:101AC00010B541F2F030C2F200400078012818BF92
:101AD00010BD4020FEF786FC41F2D9110446C2F247
:101AE00000410A784AB141F2F130013AC2F20040B5
:101AF0000A7000781043000604D02046BDE810406C
:101B0000FEF77EBC01F020F841F2E51141F2B84247
:101B1000C2F20041C2F20042087041F2F011C2F27A
:101B2000004151F830001168884241F2BC41C2F2D4
:101B300000410860E1D041F2C042D0F88410C2F206
:101B400000420131C0F8841010680130106003F0C9
:101B5000D2F82046BDE81040FEF752BC000000005D
:101B6000F0B581B041F2D9111446C2F200410978B2
:101B700021B142F6E167276001B0F0BD054698B19A
:101B800045F24D574020C5F65407FEF72BFC296857
:101B90000646B9420ED13046FEF732FC45F6C15733
:101BA000276001B0F0BD00BF45F6C357276001B004
:101BB000F0BD00BF281D2F6000272F75C5E90377F2
:101BC00000F0FEFE3046FEF71BFC276001B0F0BDC2
:101BD0002DE9F04381B041F2D913089EC2F20043CF
:101BE0001B782BB146F2AE10306001B0BDE8F08337
:101BF000044641F2F030C2F200400078012831D1B1
:101C0000B4B342F400401746B0F5004F36D10D464C
:101C100045F24D512068C5F65401884234D1402028
:101C2000FEF7E0FB41F2B849227DC2F2004980464E
:101C3000D9F8001072B32069814239D03AB2B2F1BA
:101C4000FF3F41DD41F2F132C2F200421278002A38
:101C500050D04046FEF7D4FB46F66350306001B0EA
:101C6000BDE8F08345F68960306001B0BDE8F083DF
:101C700045F6C350306001B0BDE8F08345F62560FD
:101C8000306001B0BDE8F08345F6C450306001B06B
:101C9000BDE8F08301202075486BE060404621617B
:101CA0004C63FEF7ADFB0020306001B0BDE8F0836F
:101CB000FF2A13D14046FEF7A3FB45F28470306043
:101CC00001B0BDE8F08300BF4046FEF799FB46F245
:101CD000B010306001B0BDE8F08300BF501C20752B
:101CE0004046FEF78DFB45F28270306001B0BDE8E2
:101CF000F08300BF90F82F3091F82F20934204D941
:101D0000114601F059FAD9F80010042220462B465A
:101D100000F076FD4046FEF773FB00F01DF8402012
:101D2000FEF760FBD9F8001091F92D10032903D8B4
:101D300005A252F8211001E046F62E61316001B093
:101D4000BDE8F043FEF75CBB00000000A9610000A5
:101D5000C25D0000D972000010B541F2F030C2F24D
:101D60000040007801283CD141F2D91041F2F13114
:101D7000C2F20040C2F2004100780978084318BF5F
:101D800010BD4020FEF72EFB044600F0DDFE41F2C0
:101D9000E51141F2B842C2F20041C2F200420870BD
:101DA00041F2F011C2F2004151F83000116888424E
:101DB00041F2BC41C2F20041086013D041F2C0427E
:101DC000D0F88410C2F200420131C0F884101068CB
:101DD0000130106002F08FFF2046FEF711FBBFF3C9
:101DE0006F8F10BD2046BDE81040FEF709BB000014
:101DF0002DE9F04381B041F2F0339146C2F2004345
:101E00001B78012B0ED10646B0B10D46B1F5004F3F
:101E10004FF0000745F6256018DAEDB1B5F5007F03
:101E20001AD031E0002745F68960C9F8000038462D
:101E300001B0BDE8F08300BF002745F6C350C9F8E4
:101E40000000384601B0BDE8F08300BFB5F5024F91
:101E500002D0B5F5004F17D144F253513068C4F2A7
:101E60004D11884216D14020FEF7BCFA71688046B9
:101E7000D1B1A80526D400220023002000903046CE
:101E800000F0CEFD2AE000BFC9F80000384601B0DE
:101E9000BDE8F083002745F6C450C9F80000384675
:101EA00001B0BDE8F08300BFF068471C26D0404673
:101EB000F760FEF7A5FA0020C9F80000384601B027
:101EC000BDE8F083002700BF0022002330460C6AE3
:101ED000009700F0A5FD002C2146F5D14046FEF705
:101EE0008FFA280401D4FFF737FF00200027C9F834
:101EF0000000384601B0BDE8F08300BF4046FEF761
:101F00007FFA002746F6C550C9F80000384601B0F0
:101F1000BDE8F08300000000B0B541F2D8110446DE
:101F2000C2F20041097801290AD141F2C440C2F24B
:101F300000400088042807D245F68C602060B0BDC0
:101F400045F68B602060B0BD41F2F035C2F200452D
:101F5000287818B145F68A602060B0BD00F0F4FD25
:101F600041F2E511C2F20041087041F2E411C2F2FF
:101F70000041087041F2F011C2F2004151F8300006
:101F800041F2BC41C2F20041086041F2B841C2F2E4
:101F9000004108600120287002F06EFE43F699208F
:101FA0002060B0BD0000000070470000000000008D
:101FB0002DE9F04F89B041F2D9111A9DC2F20041CA
:101FC000097829B147F24A10286009B0BDE8F08FBE
:101FD0000446A8B11746CAB1DDF84CB0BBF1000FFA
:101FE0001AD044F61860DDF85480C0F6000000688E
:101FF000404517D946F63060286009B0BDE8F08F3B
:1020000047F2AD10286009B0BDE8F08F47F24F10DD
:10201000286009B0BDE8F08F46F62F60286009B04F
:10202000BDE8F08FDDF850A0C24517D21E46129BC6
:10203000402B0CD241F23010DDF864C0C2F20040F7
:10204000189A8442DDE916010ED03F2B0CD146F2DE
:102050007320286009B0BDE8F08F00BF46F63160FC
:10206000286009B0BDE8F08FCDE90413CDE9062062
:1020700004F15C000021CDF820C04FF00009C4F845
:102080005490A4F85890C4E90099C4E90299C4E9AD
:102090000499C4F81890C4F81C90039000F020FB39
:1020A000DDF820C044F24000A4F82F005FEA8C70F5
:1020B000C4F83890A4F83C90C4E90899C4F8289072
:1020C000C4F82B90C4E91099C4E91299C4F850904F
:1020D000C4E91A99C4E91C99C4F87890C4F87B90B3
:1020E000C4E92099C4E92299C4F89090C4E92699DA
:1020F000C4E92899C4F83490C5F8009006D54FEA91
:1021000088015846E146FEF7C9FBCC460BEB8A0A2C
:10211000384631465A4653466646CDE9008C00F0B3
:1021200047F9584506D246F63260286009B0BDE846
:10213000F08F00BF206041F2F430C2F20040059AF7
:1021400084F82F2084F830200068049AC4F808A08E
:10215000002A18BF10460799C4F81CB0C4E9132020
:1021600006986060002020670398C4F83880A6872E
:1021700000F0B6FA204600F027F84020FEF732F9CA
:1021800094F82F100546084600F0FAFC204600F0AF
:102190007BFD41F2C44041F2F032C2F20040C2F293
:1021A000004201881478013101802846FEF728F9A1
:1021B000012C05D109B0BDE8F04FFFF7CDBD00BF40
:1021C00009B0BDE8F08F000070470000000000007B
:1021D0002DE9F04381B041F2D9120C46C2F200421F
:1021E00012782AB147F24E10206001B0BDE8F083AA
:1021F000054641F2F030C2F200400078012840F07C
:10220000898041F23010C2F20040854200F088809F
:102210004DB94020FEF7E6F841F2B841C2F2004164
:102220000D68FEF7EDF84020FEF7DCF895F82E106B
:102230008146072900F27A80DFE801F08216040463
:102240001916040495F82C00411F022903D3042811
:102250007ED0012802D1284600F0B6FB95F82E006A
:1022600040F00400072802D1284601F06DF9686BA0
:1022700010B1284600F040FA05F15C07384600F03E
:102280000FFA284600F08CF841F2C4400026C2F252
:1022900000406E65A5F85860018801390180002171
:1022A0003846C5E90066C5E90266C5E90466C5E9C0
:1022B000066600F015FAAE6244F24000C5F82B60E5
:1022C000A5F82F00FF2085F82E004846AE63AE87A4
:1022D000C5E90866C5E91066C5E912662E65C5E957
:1022E0001A66C5E91C66AE67C5F87B60C5E920665D
:1022F000C5E92266C5F89060C5E92666C5E9286685
:102300006E632660FEF77CF801B0BDE8F043FFF78E
:1023100023BD00BF45F68960206001B0BDE8F083B1
:1023200047F24C10206001B0BDE8F0834846FEF74C
:1023300067F846F62D60206001B0BDE8F08300BF6D
:10234000284600F0BDFC686B002892D194E700BFDE
:10235000A86A0769284697F82F8000F035FB97F8A0
:102360002F0097F8301088420ED095F82F10884231
:102370000AD1384600F0FCF997F83010804697F8FB
:102380002F00884588BF884680454FF0000085F8BB
:102390002C003FF463AF3846414600F00DFF5DE787
:1023A00070470000000000007047000000000000BF
:1023B000DDF800C002EB8C0222F0070C4FF0043273
:1023C0004CF8442D4FF00232CCF8241043F2B121E6
:1023D000CCF83C004FF08070CCF840004FF0053056
:1023E000CCF804004FF00630CCF808004FF007306E
:1023F000CCF80C004FF00830CCF810004FF009304A
:10240000CCF814004FF01030CCF818004FF0113019
:10241000CCF81C006FF00200CCF820006046C0F63B
:102420000001CCF82830CCF82C204FF00332CCF847
:1024300030204FF01232CCE90D217047000000002F
:1024400041F2B84041F2BC42C2F20040C2F2004246
:1024500001681068814208D0D1E9232C5342C1F8A9
:102460008830ACEB0202C1F890200021C0F88C103B
:1024700070470000000000002DE9F04141F2D9133F
:102480001446C2F200431B7823B147F27520206046
:10249000BDE8F081064641F2F030C2F2004000781B
:1024A00001280BD141F2F130C2F20040007858B15E
:1024B00046F663502060BDE8F08100BF45F68960B4
:1024C0002060BDE8F08100BF0D46082928D8012012
:1024D00040F21511A840084222D04020FDF782FFAB
:1024E00041F2B8480746C2F2004831462A46234620
:1024F000D8F8000000F078FF206828B13846BDE821
:10250000F041FDF77DBF00BFD8F8000000F0D8FB18
:102510003846FDF775FFBDE8F041FFF71DBC00BF71
:1025200045F625602060BDE8F08100000000000055
:1025300080B541F2F030C2F200400078012818BFA7
:1025400080BD00F015F841F2E41041F2F011C2F242
:102550000040C2F20041007801EBC00000F0E8FB4F
:102560000120BDE8804001F01FB80000000000001D
:10257000704700000000000010B54020FDF732FF5A
:102580000446FFF789FA2046FDF73AFFFFF7D0FF30
:10259000BDE81040FFF794BA41F20044C2F2004493
:1025A0004020FDF71FFF216801312160FDF728FF62
:1025B000F6E7000000000000002101607047000005
:1025C000F0B544F60061C0F600010A68002A5DD04B
:1025D00044F60461C0F60001B1F800E0BEF1000F5E
:1025E00058D0AEF101041346210440D0AEF10201EF
:1025F00004F0030C89B2032911461DD34FF6FC7178
:10260000154604EA010300242E462F4605F1300149
:10261000043B46F8241F47F8186F2E462C8146F8D5
:102620000C7FC5E900642C611E04AC82EC612C8433
:10263000AC62AC850D46E7D1BCF1000F0B4616D05D
:1026400001F10C030024BCF1010F0C81C1E900343D
:102650000DD001F11803BCF1020FC1E903348C82E3
:1026600005D001F124038B610027CF610F84002185
:102670001981C3E9001141F2DC13C2F200431A6070
:10268000A3F804E0D9800160F0BD00BF45F21E71DF
:102690000160F0BD45F21D710160F0BD0000000059
:1026A00080B501464089002808BF80BD41F2DC1298
:1026B000D1F800C0C2F20042B2F806E01368CCF8CC
:1026C0000030B2F804C0AEEB0003D3804B68136057
:1026D0000CEB0003938000224A81C1E9002280BDF7
:1026E000018100214181C0E9001170470000000014
:1026F000426BCA60416370472DE9F04182B00546E4
:1027000055F8346F86B3044600274FF0010812E0F5
:102710000E60416861B14A6BC2600022002304610F
:1027200080F814804863009700F07AF91EB91BE026
:1027300007750761C6B13046F6682A461368114628
:1027400083421FBF03F10C010A68824202F10C01AF
:102750001CBF0A688242DBD002F10C010A68824287
:1027600002F10C02EAD1D3E702B0BDE8F08100002B
:10277000416B3F2001E000BFC96819B34A6822B12C
:1027800092F82F20824238BF1046C968D1B14A68FA
:1027900022B192F82F20824238BF1046C96889B111
:1027A0004A6822B192F82F20824238BF1046C96889
:1027B00041B14A68002ADFD092F82F20824238BF08
:1027C0001046D9E7C0B2704700F1340213681046D2
:1027D0008B4210D003F10C0002688A421EBF02F146
:1027E0000C0002688A4206D002F10C0002688A429C
:1027F00002F10C02EAD1C9680160704700000000D4
:10280000B0B50C46054681F82C204FF0000081F849
:102810002D005BB141F2C8400021C2F200400268C5
:10282000204600F065FD032101E000BF022122697E
:1028300094F82F0084F82E10E1681AB1D16059B1D4
:102840000A611DE081B100220A6141F2F012C2F278
:10285000004242F8301013E041F2F011C2F20041A0
:1028600001EBC00042600BE041F2F0110023C2F224
:10287000004101EBC00241F83030536000F09CF998
:102880000020E06020612DB36868A56220B394F851
:102890002F1090F82F20914224D3006A90B190F825
:1028A0002F2091421ED3006A60B190F82F209142F0
:1028B00018D3006A30B190F82F20914212D3006AE9
:1028C0000028E6D100202062A8686062AC60046243
:1028D000B0BD00BFA062B0BD0020C4E90800C5E9DA
:1028E0000144B0BD416A206221B161620C62446260
:1028F000B0BD00BF0021616244626C60B0BD0000E9
:1029000080B5D0F828C0E6465EF8042F116A002989
:1029100008BF80BD416A036A21B14BB10B625962A5
:102920000AE000BF00215962CEF8003005E000BF88
:1029300000230B62CCF80810134690F82F200021DA
:102940000162416293F82F108A4221D31B6A93B12E
:1029500093F82F108A421BD31B6A63B193F82F1090
:102960008A4215D31B6A33B193F82F108A420FD3D2
:102970001B6A002BE6D1002101625CF8081F41624E
:1029800001F12003E6461860CEF8000080BD00BFCC
:102990001A46036252F8241F41B101F12003964602
:1029A00041621860CEF8000080BD00BF0021416286
:1029B00013461860CEF8000080BD00000000000043
:1029C0000021C0E900117047816A002908BF7047E3
:1029D0004A68126A52B1426A036A7AB1B3B11362A9
:1029E0005A6200218162C0E9081170470022C1E9E2
:1029F000012200218162C0E90811704700225A6259
:102A00004B6000218162C0E9081170470023136206
:102A10008A6000218162C0E908117047000000004F
:102A200010B591F82EC00C46ACF10601022915D361
:102A3000ACF10201012988BF10BD6265A4F85830CD
:102A4000B8B3A06AA8B34168096AD9B1626A236AB7
:102A500002B33BB313625A6227E000BF00286265ED
:102A6000A4F8583063D0A06A002860D04168096A91
:102A700061B1626A236A8AB1002B51D013625A6233
:102A800051E000BF0021C0E901110EE00021C0E9C2
:102A9000011148E000215962436006E000215962BB
:102AA000436040E00021116282600020A062C4E91E
:102AB0000800BCF1030F02D1204600F045FD94F858
:102AC0002F0000F05DF841F2E41094F82F10C2F2EC
:102AD000004041F2F012C2F200420078814202EB63
:102AE000C10052F8311009D100294FF00001E16016
:102AF0000CD050F8041F2161CC600AE021B1E160E4
:102B0000002222610C6104E00021E16040F8044BE6
:102B100021610460002084F82E000020A08510BDF3
:102B20000021116282600020A062C4E90800BCF1AB
:102B3000070F02D1204600F007FD042084F82E0084
:102B40000020A08510BD000080B541F2E811C2F25E
:102B50000041086820B1FDF760FCC0B280BD00BF35
:102B60004868FDF75AFC202151FA80F0C0B280BDC0
:102B700041F2E8100021C2F20040C0E900117047A4
:102B8000C0F13F01012202FA01FC41F2E811C2F258
:102B900000414FF000420B46C240202853F8040F7A
:102BA00038BF0B46096840EA0C0038BF41EA020012
:102BB000186070470000000041F2E812C0F13F01C8
:102BC000C2F200420123202803FA01F128BF043297
:102BD0004FF0004338BF23FA00F1106888431060BB
:102BE000704700000000000010B5044690F82F0068
:102BF000FFF7C6FF41F2E41094F82F10C2F2004034
:102C000041F2F012C2F200420078814202EBC100B0
:102C100052F831100AD100294FF00001E1600FD0C5
:102C200050F8041F2161CC60046010BD31B1E16037
:102C3000002222610C61046010BD00BF0021E16030
:102C400040F8044B2161046010BD0000000000004A
:102C500090F82F1041F2F013C2F2004353F83120E4
:102C600003EBC10132B1C26000230361106108604F
:102C7000704700BF41F8040B0022C2600261086087
:102C8000704700000000000090F82F1041F2F01291
:102C9000C2F2004252F8313002EBC101002B4FF07A
:102CA0000003C36006D051F8042F02610860D060B1
:102CB000704700BF41F8040B0361086070470000D3
:102CC00010B50446026990F82F00E16832B1D16076
:102CD00091B10A610020C4E9030010BDC1B1002216
:102CE0000A6141F2F012C2F2004242F830100020B4
:102CF000C4E9030010BD00BF41F2F011C2F200416F
:102D000001EBC00042600020C4E9030010BD00BF19
:102D100041F2F0110023C2F2004101EBC00241F880
:102D200030305360FFF748FF0020C4E9030010BDB6
:102D3000F0B581B041F2F831C2F2004109780129C1
:102D400016D104464020FDF74DFB216851B141F2F8
:102D50003012C2F20042914204D00A6D52B1013ADF
:102D60000A6507D001B0BDE8F040FDF749BB00BFE0
:102D700001B0F0BD62689142F4D041F2F133C2F289
:102D800000431B78002BEDD1CB6800259C469E4666
:102D90001F4693420EBF8C464FF0000E0F469E1A00
:102DA00018BF1646CCF810E03E6141F2F437C2F28B
:102DB0000047CD60D1602360DA6C3F68002A616013
:102DC00018BF17461F6501B0BDE8F040FDF718BBFE
:102DD00082B041F20C4744F60861C2F20047C0F6E7
:102DE000000138780E6801280AD0740001AD00BFD8
:102DF000002120462A46FFF73FFB38780128F7D10B
:102E00004020FDF7EFFA41F2FC310027C2F2004109
:102E10000F80FDF7F5FA44F61C60C0F6000000686C
:102E2000B04298BF0A260197B0FBF6F444F6F05082
:102E3000C0F60000D0F80080B8F1000F00F0B880B4
:102E400044F6EC5041F2004AC0F6000041F2084B53
:102E500041F2F93548F20046D0F80090C2F2004A3B
:102E6000C2F2004BC2F20045C1F2D77605E000BFC6
:102E70000021204601AAFFF7FFFA4020FDF7B2FA31
:102E8000DAF80010CBF80010CAF80070FDF7B8FAB5
:102E900041F20440DBF80010C2F2004000688842B2
:102EA0000AD941F68022C0F2060290420AD242F2CA
:102EB0001073012222E000BF41F2FA30C2F200405A
:102EC000078035E040F60012C0F23D02904203D286
:102ED0004FF47A730A2211E045F60022C0F2622212
:102EE000904203D26422642308E000BF42F21072D1
:102EF0000123B0423CBF4FF47A720A235943B0FB1E
:102F0000F2F0B1FBF0F042F21071081A41F2FC311C
:102F100082B2C2F200410988914241F2FA31C2F212
:102F20000041088004D241F2FC31C2F20041088025
:102F3000FFF73AF8D9F8000010B100201BE000BFFD
:102F4000002000BF421C904514D909EB80014B685A
:102F500083B9821C90450DD98B685BB9C21C904522
:102F600008D9CB6833B90430804504D909690029F0
:102F7000E8D000E01046297841F22812C2F200425F
:102F8000012941F22C11C2F200411060A8EB0000AF
:102F900008607FF46DAF40202F70FDF723FA41F2F7
:102FA000FC31C2F200410F80FDF72AFA01975FE77A
:102FB00041F2004541F2084641F2281A41F22C192B
:102FC00041F2F93BC2F20045C2F20046C2F2004AA9
:102FD000C2F20049C2F2004B0DF1040805E000BF47
:102FE000002120464246FFF747FA4020FDF7FAF954
:102FF000296831602F60FDF703FA41F2044031681F
:10300000C2F20040006888420AD941F68022C0F22C
:10301000060290420AD242F21073012226E000BF5B
:1030200041F2FA30C2F20040078039E040F6001267
:10303000C0F23D02904203D24FF47A730A2215E0A7
:1030400045F60022C0F26222904203D26422642339
:103050000CE000BF48F200420123C1F2D772904257
:1030600042F210723CBF4FF47A720A235943B0FB0C
:10307000F2F0B1FBF0F042F21071081A41F2FC31AB
:1030800082B2C2F200410988914241F2FA31C2F2A1
:103090000041088004D241F2FC31C2F200410880B4
:1030A000FEF782FF9BF80000CAF80070C9F80070B4
:1030B000012895D140208BF80070FDF793F941F27B
:1030C000FC31C2F200410F80FDF79AF9019787E7C2
:1030D00080B58AB041F200410022C2F2004144F6BC
:1030E0000C63C0F600030A6041F20841C2F20041DD
:1030F0000A6041F20441C2F200410A6041F20C410F
:10310000C2F200410A7041F2F931C2F200410A7084
:1031100041F22811C2F200410A60196841F22C13F1
:10312000C2F200431A6089B144F6146244F618638F
:10313000C0F60002C0F6000312681B689A420BD268
:1031400046F62C6101600AB080BD00BF46F62B61D7
:1031500001600AB080BD00BF44F60663C0F60003FC
:1031600093F800C0BCF13F0F04D346F62A6101601A
:103170000AB080BD44F610630890C0F6000300203A
:10318000CDE904001B680690CDE9023241F21040FF
:1031900042F6D152CDE900C1C2F20040C0F60002B1
:1031A000002100234FF0030CCDF81CC0FEF700FFF8
:1031B0000AB080BD00000000F0B581B090F82F701B
:1031C00004460D46012601E08F421DD094F82E00E2
:1031D000072835D806FA00F111F0CC0F32D094F858
:1031E0002C0084F82F5004281CD12046FFF788FBC0
:1031F000F9B2A06A0469E8B294F82F708142E3D969
:103200008742E3D81CE000BF2046FFF7B1FA94F8EC
:103210003010054694F82F70884288BF0D46BD4295
:10322000D4D10DE006280BD8012101FA00F010F0EE
:10323000620F05D0204601B0BDE8F040FFF760BB4B
:1032400001B0F0BD012101FA00F010F0320F1EBFF5
:1032500084F82F5001B0F0BD2046FFF731FDE8B2F1
:1032600084F82F50FFF78CFC41F2B840C2F20040C6
:103270000068844206D0204601B0BDE8F040FFF768
:1032800003BD00BF204601B0BDE8F040FFF7E0BC41
:1032900041F2C4410022C2F200410A8041F2C04121
:1032A000C2F200410A6002607047000000000000A6
:1032B00080B582B041F2B840C2F200400068FFF72A
:1032C00073F801A90020FEF783FF02B080BD000063
:1032D0000021016041F2C840C2F20040016041F2A9
:1032E000CC40C2F2004001607047000000000000C6
:1032F00080B541F2C84C1A44C2F2004CDCF800C060
:103300000CEB0103B2EB030C3AD041F2CC43C2F216
:103310000043D3F800E0BEF1000F35D0DEF84420C2
:10332000511A8C4502D2DEF81820AAB3DEF8143008
:10333000ACEB0101002B40D05A6C914247D3D3F83B
:1033400014E0891ABEF1000F36D0DEF84420914215
:103350003CD3DEF81430891A7BB35A6C914236D3D1
:10336000D3F814E0891ABEF1000F25D0DEF844200E
:1033700091422BD3DEF81430891A002BDCD11CE0EB
:1033800000214164084680BDC0F844C00021C0E966
:1033900005111860012080BDC0F844C0A1EB0C01EC
:1033A000CEF844100021C0F814E08161CEF8180076
:1033B0001860012080BD00BF9E4641640021C0E925
:1033C000051ECEF81400012080BD00BF7346D3F85F
:1033D00018C04164C0E9053C5A6C9861CCF81400EF
:1033E0000120511A596480BD10B5082A0ED0042A54
:1033F0002ED141F2C842C2F20042D2F800C00022EF
:103400001144B1EB0C012ED11BE000BFD9B141F248
:10341000C844826CC2F20044D4F800C0ACEB020491
:103420008C4208D3B4FBF1F202FB1144ACEB040272
:10343000002C18BF0A44541884641144B1EB0C01E9
:1034400011D10021416447F27E20186010BD00BFF9
:1034500041F2C842C2F20042D2F800C062461144B2
:10346000B1EB0C01EDD041F2CC42C2F20042D2F8F5
:1034700000C0BCF1000F31D0DCF84440A14202D2C0
:10348000DCF81820A2B3E646091B5EF8142F002AC8
:1034900041D0546CA14244D3D2F814C0091BBCF1F2
:1034A000000F35D0DCF84440A14239D3DCF81420B9
:1034B000091B72B3546CA14233D3D2F814C0091B58
:1034C000BCF1000F24D0DCF84440A14228D3DCF842
:1034D0001420091B002ADCD11BE000BF41F2CC4EB6
:1034E00041640021C2F2004EC0E9051124E000BF92
:1034F00041F2CC4E4164611ACCF84410C0F814C0BB
:1035000000218161C2F2004ECCF8180014E000BF27
:1035100094460CF1140E41640021C0E9051C0BE037
:1035200062464164D2F818C0546C0CF1140EC0E924
:10353000052C611A51649061CEF80000012180F8D9
:103540002E100020186010BD8269416972B151616E
:1035500021B18A61426C4B6C1A444A640021C0E973
:103560000511443000210160704700BF91B150F84F
:10357000443F4A6C1A444A6441F2CC424FF0000C7A
:10358000C2F20042C1F818C040F830CC11600021EE
:103590000160704741F2CC410022C2F20041443048
:1035A0000A600021016070472DE9F04F81B00646A6
:1035B0004020FCF717FF41F2CC498046C2F2004997
:1035C00041F2C840C2F20040D9F800500168002D15
:1035D0003144016064D0686C0024811B38BF2146EF
:1035E00069645DD8371A4FF0040A4FF4407B00BF7E
:1035F00095F82E00052807D0012809D1284685F81E
:103600002E40FFF7F1FA3DE085F82EA03AE000BF2A
:1036100095F82C00042803D1A86A066901E000BFD0
:10362000002628466C65A5F85840FFF7CDF995F8B7
:103630002E00072806D0032807D12846FFF7D4FA22
:10364000002000E0042085F82E00A5F82CB0CEB1B3
:1036500096F82F0096F83010884213D095F82F1066
:1036600088420FD13046FFF783F896F830200146A4
:10367000904296F82F0088BF1146814202D0304612
:10368000FFF79AFD6D69C9F800504DB1686CAC61E7
:10369000C11B38BF2146381A28BF07466964A7D224
:1036A000404601B0BDE8F04FFCF7AABE00000000A4
:1036B00070B58AB044F61C6144F62462C0F600017D
:1036C000C0F60002002341F2E4450968126804468E
:1036D000C2F20045B1FBF2F141F2E0422846C2F2EB
:1036E0000042136041F2A852C2F200421160002170
:1036F0002246FEF735FA206810B10AB070BD00BF4F
:103700004020FCF76FFE41F2D04144F64372C2F212
:1037100000410646081DC4F24E420A60CD60FFF724
:103720004FF93046FCF76CFE44F62860C0F6000006
:10373000006888B144F6306144F61862C0F60001B2
:10374000C0F600020968126891420BD247F2483075
:1037500020600AB070BD00BF47F2473020600AB059
:1037600070BD00BF44F62062C0F6000212783F2A06
:1037700004D347F2463020600AB070BD44F62C6393
:103780000894C0F600030B26CDE900200020069027
:10379000CDE9040041F2FC4043F6B9021B68C2F2D5
:1037A0000040CDE90231C0F6000200210023079657
:1037B000FEF7FEFB0AB070BDB0B582B041F2E04E3C
:1037C000C2F2004EDEF8002072B341F2A45C4569FB
:1037D000C2F2004C0D44DCF800402D1B5469A54298
:1037E00001D2136963B3D368291B002B51D05D69E3
:1037F000A94256D3DA68491B002A49D05569A94223
:103800004ED3D368491B002B43D05D69A94248D3EE
:10381000DA68491BE2B35569A94241D3D368491B11
:10382000002BE4D135E000BF0025CEF80000C0E950
:10383000035541F2A450C2F2004001600AE000BF0B
:10384000631B5361C260002505611061CEF8000062
:10385000CCF800104020FCF7C5FD41F2D0410446F1
:10386000C2F20041496861B141F2D04041F2FC41ED
:10387000C2F20040C2F20041002200230095FFF78F
:10388000CFF8204602B0BDE8B040FCF7B9BD00BF9C
:103890001A4600234161C0E90332D06002B0B0BDD6
:1038A00013461A69C360C0E904215D691861691A89
:1038B0005961D06002B0B0BD82B041F2E44401A8C9
:1038C000C2F20044002100220023009020464FF065
:1038D000000AFEF77DF941F2E04B41F2FC48C2F2EA
:1038E000004BC2F20048DBF8000000E0384618B197
:1038F000D0F8149002E000BF4FF000094020FCF720
:1039000071FD064640462146FEF75EFF98F82F10EF
:1039100098F83000814206D041F2E41188F82F0077
:10392000C2F200410870676841F2D045C2F200451A
:1039300087B101202075384621462761FEF7D8FE61
:103940000022002320463946CDF800A0FFF768F892
:1039500004E000BFC4F810A084F814A00322284695
:1039600041464B46FEF74CFF3046FCF749FDFEF75B
:10397000F3F94020FCF736FD2269064642B192F881
:103980002F0098F82F104FF0010988420BD907E05B
:1039900040462146FEF7ACFE4FF001095AE000BF59
:1039A0001046FFF709FC0422002320464146FEF79B
:1039B00027FF3046FCF724FDFEF7CEF9DBF80000C8
:1039C000002852D14020FCF70DFD06464046214616
:1039D000FEF7FAFE98F82F1098F83000814206D0D2
:1039E00041F2E41188F82F00C2F2004108706768C4
:1039F00087B138462146276184F81490FEF778FE97
:103A00000022002320463946CDF800A0FFF708F831
:103A100004E000BFC4F810A084F814A0032200231F
:103A200028464146FEF7ECFE3046FCF7E9FCFEF77F
:103A300093F94020FCF7D6FC2269064632B192F891
:103A40002F0098F82F108842AAD8ACE740462146AC
:103A5000FEF74EFEC4F81080304684F81490FCF750
:103A6000CFFCDBF800000028ACD04020FCF7BAFC0B
:103A700041F2C841C2F200410E68FCF7C1FC41F2BC
:103A8000A455DBF80070C2F2004528682E60301A99
:103A900030D0394677B300BF4B691E1ACA6838BFA9
:103AA0005646C31A38BF53464E6123D912B35169E3
:103AB000CE1AD06838BF5646591A38BF514656619B
:103AC00018D9B8B143695E1AC26838BF5646CB1AD6
:103AD00038BF534646610DD962B15069C61AD168E4
:103AE00038BF5646181A38BF5046566102D90029C9
:103AF000D2D100BF4FF000004FF003094FF0040691
:103B00004FB9F4E6C7E903AAC7F814A087F82290D2
:103B1000DBF8007027B3786900287FF4E7AE7A6895
:103B200087F8226052B1B9683846904797F822006A
:103B300041F2A455C2F200450428E9D1296838466B
:103B400000F012F8388C0228DCD1022087F822001D
:103B5000F869786129683846FFF72EFED8E700BF7C
:103B60000020C4E600000000F0B581B00269044600
:103B7000C0686AB1D06020B10261616942691144D4
:103B800041610020C4E90300606101B0F0BD00BFE5
:103B9000002845D041F2A45C6369C2F2004C45693B
:103BA0001D4441F2E043DCF80020C2F200438A1ACF
:103BB0004FF000060661456118600AD0B5EB020EB1
:103BC000C36828BF7646002B466118BFAA4251D869
:103BD000456915B1606985421CD04020CCF80010C1
:103BE000FCF700FC41F2D0410546C2F200414968B1
:103BF00069B141F2D04041F2FC41C2F20040C2F250
:103C000000410022002300270097FEF709FF284605
:103C1000FCF7F6FB0020E060606101B0F0BD00BF82
:103C200041F2E0400025C2F200406561056041F2CA
:103C3000A450C2F2004001604020FCF7D3FB41F2E7
:103C4000D0410446C2F20041496861B141F2D0401E
:103C500041F2FC41C2F20040C2F2004100220023C6
:103C60000095FEF7DDFE204601B0BDE8F040FCF710
:103C7000C7BB00BF4FF0000E551B38BF75465E69CD
:103C8000771BDA6838BF7746002A5F6118BFB542F4
:103C90009ED9A5EB060538BF75465669771BD368D4
:103CA00038BF7746002B576118BFB54290D9A5EBB6
:103CB000060238BF72465D69AF1ADE6838BF7746C4
:103CC000002E5F6118BFAA427FF682AFA2EB050209
:103CD00038BF72467569AF1AF36838BF7746002B54
:103CE00077613FF475AFAA42C6D871E700000000C3
:103CF00001F006B80000000070470000000000005E
:103D0000FEF73ABC0000000010B542F200000422A9
:103D1000C5F20020016862F303010160016801F04F
:103D20000F0104291FBF016801F00F010429016878
:103D30001CBF01F00F01042904D0016801F00F013C
:103D40000429EBD144F60C010222C5F602010868F1
:103D500062F30200086044F20040CA68C5F602003F
:103D600042F44042CA60016841F48031016000BF02
:103D7000016889035FBF01685FEA813101685FEA1A
:103D8000813102D401688903F2D5816A022262F38B
:103D900001018162C16A012241F48031C162C16ABC
:103DA0004F2341F48021C162C16A41F00C01C1621C
:103DB000C16A21F00201C162816A62F30911816264
:103DC000016B63F308010163016B62F34F2101632F
:103DD000016B62F316410163016B62F31E610163C3
:103DE000016841F0807101600168890109D40168AE
:103DF00089015CBF01685FEA811102D40168890111
:103E0000F2D58169082262F303018161016903230C
:103E100063F302010161816943F6000421F47061DA
:103E200081618169C1F69C4462F303018161C169CA
:103E3000042262F30611C161C16962F30A21C16102
:103E4000816962F306118161016A62F30611016200
:103E50002046FCF7F1FE2046BDE81040FDF7C4BB4C
:103E600080B54EF6885C42F2000ECEF2000CC5F230
:103E7000002EDCF8001041F47001CCF80010DEF8E0
:103E8000001001F00F01062906D8DEF80010072205
:103E900062F30301CEF8001044F200414EF67F5366
:103EA000C5F60201CEF6F6230A6842F001020A6066
:103EB00000220A61086818400860DEF80000000768
:103EC00006D5DEF80000072363F30300CEF80000F8
:103ED00040F200208A61CA61C0F202200A62886250
:103EE0000020C0F2FF10C86240F28020C0F2011032
:103EF00008634A638863CA6308644A64086820F4F4
:103F00008020086041F200000A66C5F600400068A3
:103F1000B2EB507F05D148F208100121C5F2001024
:103F2000016044F2000043F2D201C5F200200160BA
:103F30004FF000604CF8800C80BD000000000000D5
:103F400041F6A860C2F2004000F00EBE0000000082
:103F500044F60000C4F2000000F002B800000000C7
:103F600080B582B044F60001C4F20001884211D04D
:103F700040F60042C5F60002904208D140F61C42CD
:103F8000C5F600021368DB061ED4884202D002B0D8
:103F900080BD00BFC869C006F9D5102041F6F06C9D
:103FA000C4F20200C2F2004C026822F00102026078
:103FB0004268C2F58063ACF810301A0422D041F692
:103FC000F060C2F2004016E045F2084040F2000CFA
:103FD000C5F60200C3F6000C016821F00101016082
:103FE0004168C1F58063ACF8103019041CD040F270
:103FF0000000C3F6000001AA0021FDF7F9FE02B09F
:1040000080BD00BF0022ACF8102042684FF48063EE
:1040100063F30F024260026842F001020260102066
:10402000086202B080BD00BF0021ACF810104168EA
:104030004FF4806363F30F014160016841F00101B7
:1040400001601020506002B080BD00000000000040
:10405000FEE70000000000007047000000000000C4
:1040600080B58AB009A8089041F2AC500421C2F290
:10407000004044F2F102CDE90010332002904FF4E9
:104080000070039000200690CDE9040041F6AC508A
:1040900006A1C2F20040C0F6000200234FF0030C5C
:1040A000CDF81CC0FDF784FF0AB080BD5461736B6E
:1040B000340000000000000080B582B001AA082191
:1040C000FEF7DAF902B080BDC2B240F61C41C5F677
:1040D0000001CA600A68120609D40A6812065CBFA9
:1040E0000A685FEA026202D40A681206F2D57047D3
:1040F00040F6180419A0C5F60204FCF7B9FB4FF40A
:1041000080354FF004084FF400394FF4802A02271D
:10411000012600BF4FF4FA702560C4F80080FFF755
:10412000CBFF4FF4FA70C4F80090FFF7C5FF4FF4CF
:10413000FA702560FFF7C0FF4FF4FA70C4F800A0D2
:10414000FFF7BAFF4FF4FA702760FFF7B5FF4FF49F
:10415000FA702660FFF7B0FFDCE700BFE4BDA0E522
:10416000A5BD0D00000000002DE9F04F9BB04EF6FC
:104170000C550122CEF200050020BFF35F8FC5F879
:1041800088004FF01041C5F88C00C1F20002C5F85C
:104190009010C5F89420C5F88C00D5F8942042F012
:1041A0000102C5F894200122C5F88C20C5F89010B2
:1041B0002D21C0F20351C5F89410C5F88C204FF0A2
:1041C0006052D5F8941041F00101C5F89410022115
:1041D000C5F88C10C5F890201B22C0F20532C5F836
:1041E0009420C5F88C10D5F8941041F00101C5F861
:1041F00094100521C5F88810BFF34F8FBFF36F8F60
:10420000A968890311D4BFF34F8FBFF36F8FC5F82F
:104210004402BFF34F8FBFF36F8FA86840F40030A4
:10422000A860BFF34F8FBFF36F8FA868C0035BD444
:104230000020A867BFF34F8F696F0123CA0843F6B8
:10424000E07AC1F3C907C1F34E30A7F1020903EBCD
:10425000D1017B1E4FEA827B01F003044FEA837891
:104260004FEA89710A91F91E099103E00028A0F133
:1042700001002FD00AEA401639469CB1012C4BEAC6
:104280000601C5F8541219460CD0022C48EA060162
:10429000C5F85412494605D00A993143C5F854125D
:1042A000099900BF032FE1D346EA8176013106F177
:1042B000404286F0004C06F1804E00BF0439C5F83C
:1042C0005462C5F85422C5F854C2C5F854E2F5D179
:1042D000CCE700BFBFF34F8FA86840F48030A860E0
:1042E000BFF34F8FBFF36F8F44F2E0464FF6FF01ED
:1042F000C5F60206002440F61C49C5F602047069A2
:10430000C5F6000940F002007061706900F002001B
:104310000B900B982868084040F20031C0F2FA5127
:1043200008432860FFF7F0FC4FF0000A40F6004118
:10433000CDE90FAACDE90DAA3068C5F6020140F01B
:104340001000306030680BAF00F010001590159829
:10435000306840F00400306030684FF0070B00F028
:10436000040015901598306840F080003060306887
:1043700000F0800015901598306840F00100306022
:10438000306800F0010015901598306840F0020088
:104390003060306800F0020015901598306840F0E9
:1043A00008003060306800F00800159015984FF64E
:1043B0001840CFF6FF7041F800B04FF49E00A061A6
:1043C0004FF4C01088614FF48010C4F818044FF601
:1043D000FF700B9003200C9001F580603946CDF8FA
:1043E0003CA0FCF7C1FB04F500644FF40050CDE99C
:1043F0000B0A204639464FF00108CDF83C80FCF707
:10440000B3FB20463946CDE90BB8CDE90DAACDF86E
:104410003C80FCF7A9FB41F6F8700B90204639462A
:104420004FF0030BCDF830B0CDF83CA0FCF79CFB6F
:104430000BA900244120C5F6020481E801090220ED
:104440000F90204639464FF0030BCDF838A0FCF70B
:104450008BFB0BA90E20CDF838A081E801050220C6
:104460000F9020463946FCF77FFB49F6B0103946DD
:10447000CDE90B0B2046CDF83CA0FCF775FB04F50D
:1044800080644FF2C730CDE90B0B20463946CDF89A
:104490003CA0FCF769FB4FF6E7703946CDE90B0B02
:1044A00040F6004BCDF83CA0C5F6020B5846FCF791
:1044B0005BFB0BA91820CDE90EA881E80105584641
:1044C0004EF20B4B3946CEF2000BFCF74DFB1020A1
:1044D0000B9001203946CDE90C0ACDE90EA020460B
:1044E0000A94FCF741FB3068042740F40010306068
:1044F00030684FF0FF3200F400100B900B982868E2
:104500004EF200184FF0FF33C0F30220CEF2000845
:1045100080F007014FF0FF34042928BF39460338E3
:1045200038BF504602FA01F1032222EA010101FAE2
:1045300000F000018BF876000220C8F8100028680F
:10454000C0F3022080F00701042928BF3946033850
:1045500038BF504603FA01F1434622EA0101032223
:1045600001FA00F000018BF87700C8F810704FF0E6
:10457000030856F8080C40F0010046F8080C56F8FD
:10458000080C00F001000B900B982868C0F3022083
:1045900080F00701042928BF3946033838BF504648
:1045A00004FA01F14FF0FF3422EA010101FA00F0B0
:1045B00000018BF800004FF4006018602868C0F319
:1045C000022080F00701042928BF3946033838BF8C
:1045D000504604FA01F128EA010101FA00F015A998
:1045E00000018BF801004FF4805018604FF0010B70
:1045F000CDF844A0CDE90FAACDE90DAACDE90BAACB
:1046000056F8880C20F0070046F8880C706940F0D6
:1046100008007061706900F0080015901598306806
:1046200040F001003060306800F0010015901598EE
:104630004FF4C06015900220CDE916000020CDF89F
:1046400060A0C5F60200CDE919B8FCF78DFA45F275
:1046500008400922C5F602000A230124D0F8F81305
:1046600062F30701C0F8F8134BF6EF720168CFF65A
:10467000FF721140016001686BF30D310160016848
:1046800021F020010160016821F040010160016812
:1046900041F080010160016821F44071016001680E
:1046A00021F440610160D0F8FC1363F30701C0F806
:1046B000FC134169114010314161416964F30D31CE
:1046C0004161416921F020014161416921F04001CE
:1046D0004161416941F080014161416921F44071CA
:1046E0004161416921F4406141612868C0F30220C1
:1046F00080F00701042938BF0F4603384FF0FF311F
:1047000038BF5046B94028EA010101FA00F04EF2E4
:104710000B41CEF20001000181F883004EF200113E
:10472000CEF200014FF4804008614FF4E1300BA954
:10473000CDE90C0A0C20CDF82CA0CDE9100AA9F186
:104740001C00CDE90EAAFCF78BFA59F8140C20F0E6
:10475000604049F8140C59F8140C20F0606049F8D6
:10476000140C59F81C0C20F0005049F81C0C59F896
:104770001C0C40F0010049F81C0C00BFD9F80000E7
:10478000800244BFD9F800005FEA402019D4D9F86C
:104790000000800244BFD9F800005FEA402010D436
:1047A000D9F80000800244BFD9F800005FEA402039
:1047B00007D4D9F800008002E0D5D9F80000400203
:1047C000DCD5002744F61C04CDE91177CDE90F773D
:1047D000CDE90D77CDE90B7756F88C0C15A920F0B3
:1047E000070046F88C0CB068C4F2000440F4802046
:1047F000B060B0684FF0010800F480201590159863
:10480000306840F002003060306800F0020015901F
:1048100015984FF4406015900220CDE9160007204E
:104820001A900A981897CDF86480FCF79DF910202B
:104830002D22C4F202002E234EF2001AD0F8F017F7
:10484000CEF2000A62F30701C0F8F017016821F008
:10485000C0010160016868F311410160016821F441
:1048600090710160016821F400710160016841F4F8
:1048700080610160016821F4C0510160016821F488
:10488000C0410160416921F00401416140F6040129
:10489000C4F202010A6863F307020A6081694FF0FB
:1048A000FF3268F387118161816968F31141816189
:1048B000816921F490718161816921F400718161C4
:1048C000816941F480618161816921F4C051816114
:1048D000816921F4C0418161C16A21F00401C16292
:1048E0002868C0F3022080F00701042928BF0421B2
:1048F000033838BF384602FA01F1032222EA0101E7
:1049000001FA00F04EF20B41CEF2000100010877EF
:104910008020CAF804004FF4E130CDE90C070C20E8
:104920000BA9CDE91007A4F11C000B97CDE90E7778
:104930001297FCF709FF54F8140C20F0604044F87B
:10494000140C54F8140C20F0606044F8140C54F863
:104950001C0C20F0005044F81C0C54F8180C20F4E7
:10496000904044F8180C54F8140C20F02A0044F835
:10497000140C54F81C0C40F0010044F81C0C00BF4F
:104980002068800244BF20685FEA402014D4206879
:10499000800244BF20685FEA40200DD42068800276
:1049A00044BF20685FEA402006D42068800244BFEC
:1049B00020685FEA4020E3D50BAC28212046282759
:1049C000FBF76CFF56F8880C15A920F0E04046F87C
:1049D000880C70694FF0020840F020007061706927
:1049E00000F0200015901598306840F0020030600B
:1049F000306800F002001590159808201A900A9867
:104A000015970027CDF85880CDE917771997FCF74F
:104A1000ABF84FF4C1200B904FF480000C900720AE
:104A20000D904FF000700E904FF080700F904FF08F
:104A3000806010904FF080502146CDE9110709F2B7
:104A4000E470CDE91377FCF773FD41F20C404FF0B1
:104A5000FF32C5F600000BAC016821F46011016063
:104A6000016841F0804101600F97CDE90D77CDE9F4
:104A70000B77B06840F00200B060B06800F0020050
:104A800015901598286840F20845C0F30220C4F23A
:104A9000000580F00701042928BF0421033838BF2E
:104AA000384602FA01F128EA010101FA00F04EF25B
:104AB0000B41CEF20001000188744FF00050CAF89B
:104AC000000040F2DF10ADF82C0009200D90A5F198
:104AD000080021460C970E97FCF78EFD55F8080C40
:104AE0004BF6F87120F0800045F8080C2868CFF6E6
:104AF000FE710840286055F8040C20F0700045F85D
:104B0000040C286820F0800028602046FCF7ECFEAA
:104B100040F2700044F26102C2F200400EA1CDE901
:104B20000080332002904FF40070C0F60002CDE9FF
:104B3000030740F670000023C2F200400894CDE95C
:104B4000057703270797FDF733FA2046FDF7E4F9C9
:104B500000201BB0BDE8F08F417070205461736B72
:104B60000000000000000000B0B5026ABAB3C368DC
:104B7000B0F838E0D0F814C047F23054416A6344CA
:104B8000A3424FEA0E458D61C36006D31C1BC4606F
:104B9000446801344460C1F818E0032A26D0022A90
:104BA0001ED0012A1BD147F230518B4202D38168BB
:104BB00001318160418B828B036902FB01314EF62A
:104BC0006023016199423BD2018B51438C4547D20E
:104BD0000168426802294AD3B2EB510F49D2B0BDF5
:104BE00090E80E00891A9942F9D842E0418B828BF5
:104BF000036902FB01314EF66022016191420DD33F
:104C00004BF27323C4F2E753A1FB0335891A016108
:104C1000AB0B9C4502D3ACEB03014161D0E9001220
:104C20008A4238BFB0BD41F6A8610022C2F20041FD
:104C30000262496CC86820F00100C860B0BD00BFC6
:104C40004BF27325C4F2E755A1FB0554C91A016163
:104C50000CEB943CC0F814C0018B51438C45B7D386
:104C6000416102210162016842680229B4D2002A2E
:104C7000B5D003210162B0BD72B64EF62250CEF21D
:104C8000000040F2FF01C0F200010170002080F33B
:104C9000098840F26800C2F20040016881F3088888
:104CA000FDF7CEFB41F2E410C2F2004041F2E51103
:104CB000C2F200410A78027041F2B840C2F20040EC
:104CC00041F2BC41C2F200410A680260106880F300
:104CD0000988EFF3148040F0020020F0040080F314
:104CE0001488BFF36F8FBDE8F04F0FBCBDE80050D4
:104CF00006BC62B6084726484FF0805101607047F5
:104D000072B640F26C02C2F20042116881F311885F
:104D1000BFF34F8FBFF36F8F62B6EFF309801EF0C2
:104D2000100F08BF20ED108A20E9F04F41F2B8457E
:104D3000C2F20045296808607446FDF781FB41F224
:104D4000E410C2F2004041F2E511C2F200410A78DB
:104D5000027041F2BC41C2F200410A682A6044F08C
:104D6000040E1068B0E8F04F1EF0100F08BFB0EC52
:104D7000108A80F3098840F20002C0F2000272B685
:104D800082F31188BFF34F8FBFF36F8F62B6704706
:104D900004ED00E010B500290AD00878002807D0FB
:104DA00005487844FBF784FE002801D0002010BDA0
:104DB0000248784410BD0000C2000000BA000000A4
:104DC000F1EE100A4FF6FF71C0F2C03120EA010087
:104DD00040F04070E1EE100A704700000000010250
:104DE000030401020304060708090000180900244F
:104DF00080000000180B00240600000040000000A6
:104E0000180C002420003E000A000000980D002429
:104E10000A0000006400000040000000E8030000F9
:104E20003D0000000A000000280F00240C000000D4
:104E300080000000744F00080000003814040000D7
:104E4000D4020008804F0008000000240800000081
:104E500010030008884F00080800002400330000F9
:104E60002C0300081001000043000000F8FFFFFFC2
:104E7000004040404040404040404141414141406D
:104E80004040404040404040404040404040404022
:104E900040050202020202020202020202020202B1
:104EA00002202020202020202020200202020202B6
:104EB000020290909090909010101010101010100E
:104EC000101010101010101010101010020202021A
:104ED000020288888888888808080808080808085E
:104EE000080808080808080808080808020202025A
:104EF0004000000000000000000000000000000072
:104F000000000000000000000000000000000000A1
:104F10000000000000000000000000000000000091
:104F20000000000000000000000000000000000081
:104F30000000000000000000000000000000000071
:104F40000000000000000000000000000000000061
:104F50000000000000000000000000000000000051
:104F60000000000000000000000000000000000041
:104F70000000000001FF01FF01FF01FF011D000013
:084F80000090D0030090D00363
:040000050800029954
:00000001FF
