:020000040800F2
:10000000205200249D03000881360008F91C0008D6
:100010007936000871120008F16000080000000045
:10002000000000000000000000000000495D000822
:10003000B912000800000000495C0008515D00088A
:10004000B7030008B7030008B7030008B7030008A8
:10005000B7030008B7030008B7030008B703000898
:10006000B7030008B7030008B703000879120008B7
:1000700081120008B7030008B7030008B70300089F
:10008000B7030008B7030008B7030008B703000868
:10009000B7030008B7030008B7030008B703000858
:1000A000B7030008B7030008B7030008B703000848
:1000B000B7030008A95F0008B7030008B7030008EA
:1000C000B7030008B7030008B7030008B703000828
:1000D000B7030008B7030008B7030008B95F0008BA
:1000E000B7030008B703000800000000B7030008CA
:1000F000B7030008B7030008B7030008B7030008F8
:10010000B7030008B7030008B7030008B7030008E7
:10011000B7030008B7030008B7030008B7030008D7
:10012000B7030008B7030008B7030008B7030008C7
:10013000B7030008B7030008B7030008B7030008B7
:1001400000000000000000000000000000000000AF
:10015000B7030008B7030008B7030008B703000897
:10016000B7030008B7030008B7030008B703000887
:10017000B7030008B7030008B70300080000000039
:10018000B7030008B7030008B7030008B703000867
:10019000B7030008B7030008B7030008B703000857
:1001A000B7030008B7030008B7030008B703000847
:1001B000B7030008B7030008B7030008B703000837
:1001C000B7030008B7030008B7030008B703000827
:1001D000B7030008B7030008B7030008B703000817
:1001E000B7030008B7030008B7030008B703000807
:1001F000B7030008B7030008B7030008B7030008F7
:10020000B7030008B7030008B7030008B7030008E6
:10021000B7030008B7030008B7030008B7030008D6
:10022000B7030008B7030008B70300080000000088
:10023000B7030008B703000800000000B703000878
:10024000B70300086112000869120008B70300082C
:10025000B7030008B7030008B7030008B703000896
:10026000B7030008B7030008B7030008B703000886
:10027000B7030008B7030008693600080000000053
:10028000B7030008B7030008B70300080000000028
:1002900000000000B703000800F002F800F06EF85C
:1002A0000AA090E8000C82448344AAF10107DA45D1
:1002B00001D100F063F8AFF2090EBAE80F0013F0B5
:1002C000010F18BFFB1A43F00103184788560100BD
:1002D000B85601000A4410F8014B14F00F0508BF8E
:1002E00010F8015B240908BF10F8014B6D1E05D002
:1002F00010F8013B6D1E01F8013BF9D1641E03D0DB
:10030000641E01F8015BFBD19142E4D37047000009
:10031000103A24BF78C878C1FAD8520724BF30C831
:1003200030C144BF04680C60704700000023002403
:1003300000250026103A28BF78C1FBD8520728BFF5
:1003400030C148BF0B607047642900F06D8175298A
:1003500000F06A81732900F0BE84002070471FB549
:1003600006F0B4FF00F02AFF04000020002106F090
:1003700097FF401C60601FBD10B510BD00F0F8FE77
:100380001146FFF7ECFF06F06BF800F01BFF03B41B
:10039000FFF7F2FF03BC05F0AFFE000009488047FD
:1003A00009480047FEE7FEE7FEE7FEE7FEE7FEE757
:1003B000FEE7FEE7FEE7FEE704480549054A064B6F
:1003C00070470000C95E000899020008204200241E
:1003D00020520024204A0024204A002472B670478C
:1003E00062B6704772B602B4EFF3118180F31188E0
:1003F000BFF34F8FBFF36F8F084602BC62B67047E2
:1004000072B680F31188BFF34F8FBFF36F8F62B660
:10041000704730BF704720BF7047B0FA80F0704718
:1004200090FAA0F0B0FA80F0704790FAA0F0704710
:1004300053EA020C00F069802DE9F04B4FF0000602
:10044000002B1FBFB3FA83F503FA05F424FA05F66F
:100450005E4012BF1643B2FA82F502FA05F4C5F106
:1004600020051EBF22FA05FC44EA0C04203556EA9A
:10047000044C4FEA144418BF641C4FF000084FF0BE
:100480000009904271EB030C39D3002919BFB1FA6E
:1004900081F701FA07F6B0FA80F700FA07F6C7F11C
:1004A00020071EBF20FA07FC46EA0C062037B6FBE1
:1004B000F4FCA7EB0507103F07F01F0BCBF120065C
:1004C0002CFA06F60CFA0BFB44BFB3460026202F8D
:1004D000A4BF5E464FF0000B5BEA060C08BF4FF06E
:1004E000010B19EB0B0948EB0608ABFB027C06FB82
:1004F00002CC0BFB03CCC01B71EB0C01C1E70B461C
:10050000024641464846BDE8F08B13B5084318BF84
:100510004FF0FF300146AFF30080BDE81C4070474C
:100520000FB4044910B503AA029800F0D9FB10BC1F
:100530005DF814FB603800240FB41CB5084B06AA04
:100540007B4469460090059800F09BFB0446002020
:10055000694600F0A9FB20461CBC5DF814FB0000B6
:100560006507000070B5044685690068C10601D5BD
:10057000302600E02026C00707D070BDD4E9012155
:1005800030469047206A401C20626D1EF6D570BD33
:1005900070B5044685690078C00707D170BDD4E9FD
:1005A000012120209047206A401C20626D1EF6D554
:1005B00070BD09684A0501D540B27047C905FCD530
:1005C00000B2704709684A0501D5C0B27047C90535
:1005D000FCD580B2704770B50C460546012A05D09F
:1005E0002878800600D5EA69002302E0012305E0AF
:1005F0005B1C934202D2E05C0028F9D1A869E6189E
:10060000C01AA861286A184428622846FFF7AAFF82
:1006100004E0D5E9012114F8010B9047B442F8D366
:100620002846FFF7B5FF70BD2DE9F04106460024CE
:1006300010687529314616A510D0FFF7BAFF0028BB
:1006400002DA404213A507E031688A0701D512A5F6
:1006500002E0490704D511A5012401E0FFF7B2FF2C
:1006600000210A2206F1240709E0B0FBF2FCB0FBEE
:10067000F2F302FB1C00303078541846491C002865
:10068000F3D123462A463046BDE8F04100F09ABA3D
:10069000000000002D0000002B00000020000000E2
:1006A0002DE9F0474FF0000A89460446C0F820A023
:1006B0002046E1688847002876D0252806D0D4E96E
:1006C00001219047206A401C2062F1E7E168204642
:1006D00000268847C4F81CA005460027C4F818A0C7
:1006E0002A2D09D0284606F0D3FD38B304EB87083D
:1006F000303DC8F8185019E059F8041B204604EBA7
:1007000087029161E1688847012F054618D1E069A9
:10071000002820DA26F020061DE0D8F8180000EBAB
:10072000800005EB40003038C8F818002046E1682A
:100730008847054606F0ACFD0028EED1012F0AD00F
:100740002E2D08D12046E16888477F1C0546022FE0
:1007500046F02006C4DBA069002803DA404246F0D8
:100760000106A061F00701D026F010066C2D0AD01A
:10077000682D08D04C2D39D06A2D35D0742D35D048
:100780007A2D33D016E0E1682F4620468847B842DC
:1007900005460AD16C2F27D04FF48060E1680643EC
:1007A00020468847054605E027E06C2F1AD04FF415
:1007B000807006430DB3A5F14100192802D82035F9
:1007C00046F400664A462946204626604E46FFF714
:1007D000BBFD80B101280BD0F61D26F0070000F10B
:1007E000080965E74020E4E78020D7E70020D5E747
:1007F00006F104095CE7284661E7206ABDE8F08756
:100800000FB400B58DB010A9099000910B904FF076
:10081000FF300A9000200C90064878440690064865
:1008200078446A4607900F9909A800F07FFA0DB046
:100830005DF814FB2F050000470500002DE9FF5F60
:100840001D464FF0FF3B91464FF000085F46D5E94B
:100850000146A96901987F1C8847296A8246884712
:100860000028F6D1BAF1FF3F0CD0002E24F4C0646A
:1008700019DD600614D5BAF12B0F09D0BAF12D0F8E
:100880000ED103E0584604B0BDE8F09F44F4806404
:10089000A96901987F1C8847761E8246002E02DDDA
:1008A000BAF1300F03D0B9F1000F26D032E0A969B8
:1008B000761E01987F1C44F400748847002E8246FF
:1008C00005DDBAF1780F06D0BAF1580F03D0B9F1AF
:1008D000000F10D01EE0B9F1000F02D0B9F1100FD7
:1008E00018D1A969761E01987F1C24F400748847EA
:1008F0008246102002E0082000E00A20814609E03C
:10090000A96908FB0908761E01987F1C44F400744D
:1009100088478246002E05DD4946504600F0F2F930
:100920000028EDDAE96901988847A00502D46FF044
:100930000100A8E7E00725D1600613D5600502D5C0
:10094000C8F1000000E0404629680A1D2A600968D5
:10095000220501D5087015E0220701D5088011E0B5
:1009600008600FE02868011D29600068210502D594
:1009700080F8008006E0210702D5A0F8008001E0A1
:10098000C0F8008038467EE72DE9FF4F4FF00008A1
:100990009A461446C146464683B0D2E901B7CDF81F
:1009A0000080CDF804809169049888471099054625
:1009B0005AEA010005D009E0A1690498761C88472D
:1009C0000546216A284688470028F5D1681C03D0CF
:1009D0005FEACB7005D029E04FF0FF3007B0BDE8EB
:1009E000F08F2068011D2160D0F800801EE002A871
:1009F0006A46E9B200F0CAF9411C07D0801C09D050
:100A00004FF000095FEACB7007D009E0E169049874
:100A100088473DE04FF0010903E0029948F8041BC4
:100A20007F1EA1690498761C88470546002F1ADDB1
:100A3000681C18D0BAF1000F0DD0E81705EBD06094
:100A4000421120F01F005AF822102A1A012090406B
:100A50000142CCD107E010980028C8D12846216A6D
:100A600088470028C3D0E16904988847B9F1000F8E
:100A70000ED1109830B9002E04DD5FEACB7001D1A1
:100A8000C8F80000A068B84202DD109818B117B18C
:100A90006FF00100A2E73046A0E7000010B5044661
:100AA00003E005F0C5FB401C09D014F8010B054913
:100AB0000028F6D1BDE810400A2005F0B9BB4FF080
:100AC000FF3010BD6038002410B5203AC0F00B8014
:100AD000B1E81850A0E81850B1E81850A0E8185034
:100AE000203ABFF4F5AF5FEA027C24BFB1E81850AA
:100AF000A0E8185044BF18C918C0BDE810405FEA0C
:100B0000827C24BF51F8043B40F8043B08BF704787
:100B1000D20728BF31F8023B48BF11F8012B28BF8C
:100B200020F8023B48BF00F8012B70474FF000024D
:100B30000429C0F0128010F0030C00F01B80CCF1EF
:100B4000040CBCF1020F18BF00F8012BA8BF20F85D
:100B5000022BA1EB0C0100F00DB85FEAC17C24BFB1
:100B600000F8012B00F8012B48BF00F8012B70475B
:100B70004FF0000200B5134694469646203922BF36
:100B8000A0E80C50A0E80C50B1F12001BFF4F7AF81
:100B9000090728BFA0E80C5048BF0CC05DF804EB63
:100BA000890028BF40F8042B08BF704748BF20F8D1
:100BB000022B11F0804F18BF00F8012B70477047CF
:100BC000704770472DE9F0470D4699469246044616
:100BD00000F124080168880604D5E06921F01001BD
:100BE000216000E00120A84201DD471B00E0002752
:100BF000A1697A1902EB0900081AA0612078C006E1
:100C000002D42046FFF7AEFC002608E0D4E901211B
:100C10001AF806009047206A401C761C20624E4558
:100C2000F4DB2078C0060AD52046FFF79BFC06E0DF
:100C3000D4E9012130209047206A401C2062381EF0
:100C4000A7F10107F4DC07E0D4E9012118F8050059
:100C50009047206A401C2062281EA5F10105F3DCA4
:100C60002046FFF795FC2078000602D50220BDE85B
:100C7000F0870120FBE7000001694A1C0261087847
:100C8000704700B58FB0CDE90131002105910549CC
:100C90007944CDE9031011466846FFF701FD0FB016
:100CA00000BD0000E5FFFFFF0A6802F8010B0A60C3
:100CB000704710B5436913B1AFF3008001E0FFF74F
:100CC0008AFC012010BD127800F124010A70002274
:100CD0004A700122EDE711684FF0FF32E9E70000AA
:100CE000074B70B50D467B44FFF7CBFF0446284603
:100CF00000F03AFA10B14FF0FF3070BD204670BDE1
:100D0000475500003A2800D2303820F02002412A0E
:100D100001D3A2F13700884201D34FF0FF30704772
:100D2000026811441378016018467047D160054984
:100D300079445161044979441162002111611146DD
:100D400000F058B8EDFFFFFFA7000000426842B175
:100D5000016811F8013B23B1521EC0E90012184688
:100D600070470121C160881E704742685AB1C3684C
:100D7000016843B983688B4205D0491E521CC0E903
:100D80000012002070474FF0FF3070472DE9F0410E
:100D900016460C46054600F01BF8036893F801015F
:100DA000012805D0185D80B101202C60BDE8F081DC
:100DB000D3F803013246214603F20313C71828462D
:100DC000BC46BDE8F041012360474FF0FF30EDE73E
:100DD00010B500F0F3F9001D10BD00BFC5640000A0
:100DE00010B50446FFF7F4FF0068005D00F0010055
:100DF00010BD00002DE9F34F4FF0000A0C46564697
:100E00008DB001200C9001F10C000B9062690B98E1
:100E100001219047051E2DD0252D2CD0216A884711
:100E2000C0B162690B9801219047216A8847002868
:100E3000F7D16269411E0B98904700E0761CA169CA
:100E40000D988847216A88470028F7D1E1690D98F5
:100E50008847DBE7A1690D988847A842074601D17A
:100E6000761CD3E7E1690D9888477F1C02D1BAF15F
:100E7000000F6FD06BE162690B9800273D46394641
:100E800090472A2804D162690B98012190470125D7
:100E9000DFF8D08262690B9801219047A0F1300100
:100EA0000A290AD24745E5DC07EB870100EB410739
:100EB000303FDFD445F01005ECE7E90601D46FF0D0
:100EC00000476C280AD04C2814D0682815D06A280E
:100ED0000DD074281CD07A281AD01DE062690B98B6
:100EE000012190476C2802D045F0040514E045F03C
:100EF00002050DE045F020050AE062690B9801212A
:100F00009047682802D045F0080505E045F40065E3
:100F100062690B9801219047C4E9015765283DD0CB
:100F200019DC58287AD00CDC452837D004DC252879
:100F300026D041289ED131E046282FD0472899D18C
:100F40002CE05B2877D0612828D063287CD06428E7
:100F500023D15AE0F6E06F2848D008DC66281DD07F
:100F600067281BD0692821D06E2816D127E0702869
:100F700045D0732868D0752847D078280DD14DE02A
:100F8000A1690D988847252805463FF469AFE169B6
:100F90000D9888476D1C3FF46AAFD8E00D99234641
:100FA0006A466FF00100AFF30080C5E045F04000F5
:100FB00023464FF000026060A80736D43EE0E80701
:100FC0007FF447AF2068011D21600068290501D525
:100FD00006701BE7290701D5068017E7A90703D587
:100FE000F117C0E9006111E706600FE745F0400026
:100FF00023464FF008026060A80716D41EE040F6B2
:101000000E0125EA0100606016E045F0400023462D
:101010004FF00A026060A80707D40FE045F04000D7
:101020006060A80708D5234610220D996FF00100D3
:10103000AFF3008080E007E0102223460D996FF0A7
:101040000100FFF7FBFB77E04FF0000963284F46F4
:10105000C8464B46CB4602D05B2806D038E0E806AF
:1010600001D40120A060012732E06269D4F80CB0FD
:101070000B98012190475E2807D14FF0010949469E
:101080006269D4F80CB00B989047216939B90021F6
:101090000A4603AB43F82120491C0829FADBD8B3E0
:1010A000216949B308F1010862690B980121904751
:1010B0005D28F4D1B9F1000F09D0002003A951F83F
:1010C0002020D24341F82020401C0828F7DB03AB46
:1010D0002069002820794FEA40701ED05B462246E6
:1010E000CDF80080CDE901970D9900286FF001003F
:1010F00020DAAFF300801FE0C11703AA00EBD16133
:101100004B1121F01F0102EB8302411A13680120E9
:10111000884003431360C7E719E00D992246002871
:101120006FF00100009702DAFFF72EFC04E0AFF346
:10113000008001E0AFF3008000280ADA401C06D1ED
:101140000C9820B14FF0FF300FB0BDE8F08F504643
:10115000FAE7E90701D10AF1010A064400200C90E0
:1011600054E60000CCCCCC0C007B00F08000704733
:10117000754600F031F8AE4605006946534620F04A
:101180000700854618B020B5FFF716F9BDE82040E6
:101190004FF000064FF000074FF000084FF0000B33
:1011A000AC46ACE8C009ACE8C009ACE8C009ACE8A2
:1011B000C00921F007018D467047000000487047C4
:1011C0003800002410B50446AFF300802046BDE887
:1011D0001040FFF7DCB800000048704718000024FA
:1011E00030B44FF0013C50F8042BCCFA52F451F8D3
:1011F000043BD51A20D1FCB950F8042BCCFA52F498
:1012000051F8043BD51A17D1B4B950F8042BCCFAD5
:1012100052F451F8043BD51A0ED16CB950F8042B96
:10122000CCFA52F451F8043BD51A05D1002CDAD08F
:1012300030BC4FF00000704729BAB1FA81F111F0CB
:101240001801D1F120008440F2D1CA40CB4012F005
:10125000FF0213F0FF0330BCD01A704700000000FB
:101260007047000000000000704700000000000010
:10127000FEE70000000000007047000000000000D2
:1012800070470000000000004EF6FC50CEF2000057
:101290000168C90148BF7047016841F08071016071
:1012A00041F200000021CEF200004160016841F0EF
:1012B000010101607047000070470000000000005D
:1012C00080B500201A21EF226B2300F019FD40F2B7
:1012D000184C47F2E621C5F6020C41F20040C0F678
:1012E0000001C5F60000002249F6C0134FF0100EB1
:1012F000CCF800E0BDE8804004F016BD000000001E
:101300002DE9F04F86B00F680290002F00F0E880C2
:1013100002988C4600F126420A2102F1FF7342F244
:101320000042C5F602024FF0000990424FEAB32294
:1013300008BF0921092A4FF0010238BF4FEAB32143
:1013400001264FF0000A4FF000080091CDF804C0CC
:101350000EE000BFDCF8007008F1010837FA06F172
:101360000AF1020A06F1010609F1040900F0B88049
:10137000701E02FA00FE17EA0E01EBD0DCF804B092
:101380000491BBF1120F00F2A38002FA0BF717F0E1
:10139000061F00F09D80029C032101FA0AF2A36857
:1013A000DCF80C709343D14307FA0AF21A43A260A7
:1013B00062684FEA1B134FEA480522EA0E02834097
:1013C0001A4362604BF01003E268122BDCF808301D
:1013D00002EA010203FA05F3039142EA0302E26022
:1013E00014D16FF0030109F01C0701EA50020F212C
:1013F0002244B940D2F820E0DCF810302EEA010196
:10140000BB40029C19431162DCF804B00BF00301ED
:101410002268039BA9401A405FEACB0341EA02011C
:101420002160DDF804C04FF00102049C92D544F223
:10143000F44240F2084EC5F60202C5F6000E0F2730
:10144000116841F002011160116801F0020105917B
:1014500020F00301059A09F00C024FF0B04051F85A
:101460000E309740BB43009F07FA02F21A4341F83F
:101470000E2040F2040EC5F6000EDEF87C10DCF8FB
:10148000042041EA0403D70358BF21EA0403970369
:10149000CEF87C30DEF8801041EA040358BF21EA20
:1014A0000403D702CEF88030016841EA040358BF34
:1014B00021EA040392024FF001020360DEF80010FB
:1014C00041EA040358BF21EA0403CEF8003041E7A3
:1014D0000321554601FA0AF7029CF94372E700BF5F
:1014E00006B0BDE8F08F000044F21820C2F20040C0
:1014F000006870470000000040F2000044F218212C
:10150000C2F20040C2F2004140680A68104408601C
:10151000704700000000000080B5032000F098F83C
:1015200000F0A6F844F2184140F6A643C5F60201C1
:10153000C0F601030A68096801F00F01C2F3032233
:10154000595C9A5C01F01F0102F01F02D04040F28A
:101550000C02C2F2004220FA01F1116040F20801CF
:10156000C2F200410860002000F00AF800281CBF09
:10157000012080BD00F02CF8002080BD000000009C
:1015800070B540F20006C2F200467168E1B104464F
:1015900040F20800C2F200404FF47A72B2FBF1F15F
:1015A0000068B0FBF1F000F08FFB0F2C4FF001054D
:1015B00008D838B94FF0FF3000222146002500F04E
:1015C00017F83460284670BD012070BD000000008F
:1015D00081B044F2F440C5F60200016841F0020116
:1015E0000160006800F002000090009801B07047B0
:1015F00070B54EF60C5C4FF0FF36CEF2000C00F1E9
:101600006045DCF80030C3F3022E8EF00703042B94
:1016100028BF0423BEF1030406FA03F321EA030101
:1016200000F00F0338BF0024043BB0F1FF3F6344D8
:1016300006FA04F003F10C0301FA04F1C8BF05F542
:10164000644322EA000008430001187070BD0000E6
:101650004EF60C514FF6FF03CEF200010A681A4015
:1016600060F30A2242F0806040F0FD70086070472D
:1016700044F20041C5F602010869C0F3C200032824
:1016800010D002282CD088BB0868800649F20000E0
:10169000C0F2D03058BF70470968C1F3C101C840DB
:1016A000704700BF8A6A886AC0F3051CC86ABCF12B
:1016B000000F4B6B20D0C3F3CC0300F00100584364
:1016C00002F00302022A00EE100AB8EE400A15D01A
:1016D000C2B90868800619D49FED281A23E000BF1C
:1016E00041F60030C0F2B700704700BF40F600106E
:1016F000C0F23D00704700BF002070479FED1E1AEA
:1017000011E000BF9FED1B1A0DE000BF086849F211
:101710000002C0F2D032C0F3C10022FA00F001EEA4
:10172000100AB8EE411A086B9FED153A6FF35F206F
:1017300002EE100A086BC0F34620B8EE422A0130D0
:1017400000EE032A00EE10CAB7EE003AB8EE400AE7
:1017500081EE000A32EE031A20EE010A01EE100AB1
:10176000B8EE411A80EE010ABCEEC00A10EE100A73
:10177000704700BF0024744A001B374B0024744C90
:101780000000003900000000F0B581B0002852D000
:1017900043F6000304460068C4F2000343F2000E5F
:1017A00043F6004C9842C4F2010EC4F2000C4FF014
:1017B0000001A16203D0604518BF704538D1E16BCC
:1017C0000125E268984202F1080205EB51114FEA47
:1017D000D20202FB01F118BF70451FD110292AD88F
:1017E000D4F8841031B90020C4F88000204600F0FD
:1017F0007BF820680221C4F88410016821F00101FF
:101800000160D4F818C06768BCF1806F1ED1AFB119
:10181000B7F5800F1AD1A36BC3B913E0604518BFA9
:10182000082908D8704518BF6045D7D0D8E700BF51
:10183000E1680F29C3D9012001B0F0BDA36BB3F15A
:10184000805F03D1036843F480530360E369A56AB2
:101850002B43E56B2B43D4E902E2D4E9045642EA78
:1018600003028260626BA16B636A42EA0C0242EA85
:101870000302A36C41EA0201226A41EA050141EA3E
:10188000060141EA0201E26C41EA070141EA020174
:10189000A26D41EA0E0141EA030141EA0201C16081
:1018A00067B1016D7A0221F00101016514D5C168AB
:1018B000626D21F000411143C1600DE08168012299
:1018C00062F3CC2181608168022262F34A21816047
:1018D000016D21F0010101650020C4F8880001219B
:1018E000C4F8841001B0F0BD80B586B041F200416B
:1018F0000068C5F60001884202D006B080BD00BF76
:1019000044F2E040C5F6020050F8882C22F0E04294
:1019100040F8882C426942F020024261426902F09C
:1019200020020192019A026842F0020202600068FD
:1019300000F00200019001982820019002200290FE
:101940000020CDE903000820059001F5F83001A939
:10195000FFF7D6FC06B080BD2DE9F04381B0044608
:10196000D0F8800001281CD01D4617460E46D4F83A
:1019700000900120C4F88000FFF7B6FDD4F8841071
:1019800001290BD1002E18BF002F0FD10020C4F861
:101990008000012001B0BDE8F08300BF0020C4F842
:1019A0008000022001B0BDE8F08300BF8046032024
:1019B000C4F884000020C4F88800E665A4F86070CC
:1019C000A4F862706066A4F86800A4F86A00A168D0
:1019D0002067B1F5C02F6067206803D1016841F42A
:1019E0000061016041684FF6FF72914339444160E4
:1019F000016841F0010101606168B1F5800F03D118
:101A0000016841F400710160E268102A3CD3B4F827
:101A10006210002900F01A81691C1ED041698907F3
:101A200006D4FFF761FDA0EB0800A8420AD339E114
:101A3000E16D51F8042B0262E165B4F862000138EF
:101A4000A4F86200B4F86200002800F0FF8020686B
:101A500041698907E5D5EBE720684169890703D427
:101A6000FFF742FD0AE000BFE16D51F8042B02626E
:101A7000E165B4F862000138A4F86200B4F86200CD
:101A80000028E9D1E2E000BFB4F86210072A5DD96E
:101A9000002900F0DB80691C31D04FF6FE714E1C2E
:101AA0004169890706D4FFF71FFDA0EB0800A84293
:101AB0001AD3F7E0B4F86210022909D3E16B39B107
:101AC000E16D51F8042B0262E1654FF6FE7006E00D
:101AD000E06D30F8021BA9F82010E0653046B4F83C
:101AE00062100844A4F86200B4F86200002800F014
:101AF000AD80206841698907DCD4D4E7206841695A
:101B0000890703D4FFF7F0FC1BE000BFB4F86210B4
:101B100002290BD3E16B49B1E16D51F8042B02624C
:101B2000E165B4F86200023809E000BFE06D30F80A
:101B3000021BA9F82010E065B4F862000138A4F88F
:101B40006200B4F862000028D8D17FE0002900F0DC
:101B50007D80691C43D04FF6FE718E1E4F1C41697B
:101B6000890707D4FFF7C0FCA0EB0800A8422CD3DC
:101B700098E000BFB4F86210042909D3E16B402952
:101B800006D9E16D51F8042B0262E165304617E099
:101B9000B4F8621002290BD3E16B49B1E06D30F863
:101BA000021BA9F82010E0654FF6FE7008E000BFA8
:101BB000E16D097880F82010E06D0130E06538466D
:101BC000B4F862100844A4F86200B4F86200002877
:101BD0003CD0206841698907CCD4C3E720684169BB
:101BE000890703D4FFF780FC2CE000BFB4F8621033
:101BF00004290BD3E16B412908D3E16D51F8042B83
:101C00000262E165B4F86200043819E0B4F86210C9
:101C100002290BD3E16B49B1E06D30F8021BA9F842
:101C20002010E065B4F86200023809E0E16D09783F
:101C300080F82010E06D0130E065B4F862000138F2
:101C4000A4F86200B4F862000028C7D1681C13D061
:101C500020684069000713D4FFF746FCA0EB08009A
:101C6000A842F5D3D4F8880040F02000C4F88800DA
:101C700006E000BFFFF738FC206840690007F9D58F
:101C8000204603F0E5FF0020C4F880000120C4F8DE
:101C90008400D4F88800002818BF012001B0BDE8F6
:101CA000F08300BF204603F0D3FF0020C4F880007B
:101CB000D4F8880040F48070C4F888000120C4F88B
:101CC000840001B0BDE8F083411E0020B0EB116F2D
:101CD00002D00120704700BF4EF21002F023CEF276
:101CE000000251604EF62351CEF200010B70072125
:101CF0009060116070470000FEE7000000000000E7
:101D00002DE9F04F83B040F2184641F20044C5F689
:101D10000206C5F6000498461546894607462A205D
:101D20008DF807000DF107010022012320464FF432
:101D3000801AC6F800A003F0F7FF07F128000DF1A4
:101D4000080B0022022300BA5946000CADF8080027
:101D500020461027376003F0E7FF05F12800002236
:101D60000223594600BA000CADF80800204637603F
:101D700003F0DAFF2B208DF80A000DF10A01002292
:101D800001232046C6F800A003F0CEFF09F135007C
:101D900000220223594600BA000CADF80800204684
:101DA000376003F0C1FF08F13500002202235946D5
:101DB00000BA000CADF808002046376003F0B4FF0D
:101DC0002C208DF80B000DF10B0100220123204681
:101DD000C6F800A003F0A8FF03B0BDE8F08F000034
:101DE0002DE9F04F81B0044600200021F022872326
:101DF0004FF00009FFF784FF43F6401541F2004819
:101E0000260A4FF4906B4FF6903AC2F20045C5F6A1
:101E10000008B9EB5B0F2BD04FEA5B0000220021DA
:101E2000530005F812605F1C41F001039BB2984219
:101E3000EC551DD95A0005F81360571C41F00202F9
:101E400092B29042EC5513D9530005F812605F1C12
:101E500041F003039BB29842EC5509D95A00043172
:101E6000571C05F813608AB29042EC55D8D800BFD1
:101E700040F2184010211FFA8BF3C5F60200002231
:101E800001604046294603F04FFFBAF1000F0BD026
:101E9000BAF5906038BF484698BFD3468246B9EB42
:101EA0005B0FB9D1E4E700BF01B0BDE8F08F0000DF
:101EB0002DE9F04F81B040F218454FF40020C5F6EF
:101EC0000205C5F80008782004F0AAF978204FF43C
:101ED0008019C5F8009804F0A3F978201027C5F8F8
:101EE000007804F09DF941F200441120C5F6000489
:101EF0008DF803000DF103010022012320464FF06D
:101F0000110AC5F800904FF0000B4FF0010803F0E4
:101F10000BFF782004F084F936208DF803000DF1D2
:101F20000301002201232046C5F8009003F0FCFEC7
:101F300070208DF803000DF10301002201232046DB
:101F40002F6003F0F1FE3A208DF803000DF103013C
:101F5000002201232046C5F8009003F0E5FE05208D
:101F60008DF803000DF103010022012320462F60AC
:101F700003F0DAFEB2208DF803000DF10301002218
:101F800001232046C5F8009003F0CEFE0C208DF80A
:101F900003000DF103010022012320460C262F60CF
:101FA00003F0C2FE0DF103010022012320468DF84B
:101FB00003602F6003F0B8FE0DF10301002201233E
:101FC00020468DF803B02F6003F0AEFE0DF1030143
:101FD00000220123204633268DF803602F6003F092
:101FE000A3FE0DF103010022012320468DF80360BA
:101FF0002F6003F099FEB7208DF803000DF1030167
:10200000002201232046C5F8009003F08DFE352004
:102010008DF803000DF103010022012320462F60FB
:1020200003F082FEBB208DF803000DF103010022B6
:1020300001232046C5F8009003F076FE19208DF8A4
:1020400003000DF103010022012320462F6003F05D
:102050006BFEC0208DF803000DF103010022012367
:102060002046C5F8009003F05FFE2C208DF8030099
:102070000DF103010022012320462F6003F054FEDE
:10208000C2208DF803000DF1030100220123204638
:10209000C5F8009003F048FE0DF103010022012372
:1020A00020468DF803802F6003F03EFEC3208DF89C
:1020B00003000DF10301002201232046C5F8009022
:1020C00003F032FE12208DF803000DF1030100220F
:1020D000012320462F6003F027FEC4208DF8030063
:1020E0000DF10301002201232046C5F8009003F002
:1020F0001BFE20208DF803000DF1030100220123B7
:1021000020462F6003F010FEC6208DF803000DF16D
:102110000301002201232046C5F8009003F004FECD
:102120000F208DF803000DF103010022012320464A
:102130002F6003F0F9FD0DF1030100220123204679
:102140004FF0D0088DF80380C5F8009003F0ECFD47
:10215000A4208DF803000DF1030100220123204685
:102160002F6003F0E1FDA1208DF803000DF10301C4
:102170000022012320462F6003F0D6FDE0208DF8D9
:1021800003000DF10301002201232046C5F8009051
:1021900003F0CAFD0DF103010022012320468DF852
:1021A00003802F6003F0C0FD04208DF803000DF1C3
:1021B00003010022012320462F6003F0B5FD0DF13D
:1021C00003010022012320460D268DF803602F60B5
:1021D00003F0AAFD0DF103010022012320468DF832
:1021E00003A02F6003F0A0FD13208DF803000DF174
:1021F00003010022012320462F6003F095FD2B20D0
:102200008DF803000DF103010022012320462F6009
:1022100003F08AFD3F208DF803000DF10301002239
:10222000012320462F6003F07FFD54208DF803002A
:102230000DF103010022012320462F6003F074FDFD
:102240004C208DF803000DF10301002201232046EC
:102250002F6003F069FD18208DF803000DF10301D4
:102260000022012320462F6003F05EFD0DF10301E3
:102270000022012320468DF803602F6003F054FDF7
:102280000B208DF803000DF10301002201232046ED
:102290002F6003F049FD0DF10301002201232046C8
:1022A0004FF01F0B8DF803B02F6003F03DFD0DF1D3
:1022B00003010022012320464FF0230A8DF803A0DA
:1022C0002F6003F031FDE1208DF803000DF10301D3
:1022D000002201232046C5F8009003F025FD0DF1F2
:1022E00003010022012320468DF803802F6003F0B4
:1022F0001BFD04208DF803000DF1030100220123D2
:1023000020462F6003F010FD0C208DF803000DF126
:1023100003010022012320462F6003F005FD112058
:102320008DF803000DF103010022012320462F60E8
:1023300003F0FAFC13208DF803000DF103010022D5
:10234000012320462F6003F0EFFC2C208DF80300C2
:102350000DF103010022012320462F6003F0E4FC6D
:102360003F208DF803000DF10301002201232046D8
:102370002F6003F0D9FC44208DF803000DF1030118
:102380000022012320462F6003F0CEFC51208DF85F
:1023900003000DF103010022012320462F6003F00A
:1023A000C3FC2F208DF803000DF10301002201234F
:1023B00020462F6003F0B8FC0DF103010022012339
:1023C00020468DF803B02F6003F0AEFC0DF1030141
:1023D0000022012320468DF803B02F6003F0A4FCF7
:1023E00020208DF803000DF1030100220123204677
:1023F0002F6003F099FC0DF1030100220123204618
:102400008DF803A02F6003F08FFC21208DF80300CE
:102410000DF10301002201232046C5F8009003F0CE
:1024200083FC29208DF803000DF103010022012314
:102430002046C5F8009003F077FC00200021EF2231
:102440008623FFF75DFC0820C5F8000801B0BDE851
:10245000F08F0000000000002DE9F04F83B0F0275E
:102460001C46A7EB5303834204D31546C4F18702ED
:102470008A4203DA03B0BDE8F08F00BF66080B198B
:102480008219013B9BB2013A92B2FFF739FCA4F1E9
:102490000C00C1B2800140EA9100C1B20529E9D81F
:1024A000A5F12000DFE811F0D200080006006E015F
:1024B00006000800DEE700BFE1080122630718BF3D
:1024C00002EBD4017143CAB2002AD3D0C1B2102C9E
:1024D000019200F0A781202CCCD140F2184A41F2A1
:1024E000004B42F6441240F6281640F21007C5F69B
:1024F000020A0020C5F6000BC0F60102C2F2004637
:10250000C2F2004710240DF10A054FF0000802EB5B
:10251000C111009100990022022311F90090384660
:102520002946B9F1FF3FC8BF3046008800BA000C09
:10253000ADF80A005846CAF8004003F0F5FB5FEA20
:102540004960384658BF3046002202230088294699
:1025500000BA000CADF80A005846CAF8004003F073
:10256000E3FB5FEA8960384658BF30460022022309
:102570000088294600BA000CADF80A005846CAF88F
:10258000004003F0D1FB5FEAC960384658BF3046CF
:10259000002202230088294600BA000CADF80A0088
:1025A0005846CAF8004003F0BFFB5FEA097038469E
:1025B00058BF3046002202230088294600BA000C8A
:1025C000ADF80A005846CAF8004003F0ADFB5FEAD8
:1025D0004970384658BF30460022022300882946F9
:1025E00000BA000CADF80A005846CAF8004003F0E3
:1025F0009BFB5FEA8970384658BF304600220223B1
:102600000088294600BA000CADF80A005846CAF8FE
:10261000004003F089FB5FEAC970384608BF3046C6
:10262000002202230088294600BA000CADF80A00F7
:102630005846CAF8004003F077FB08F101080199F9
:102640005FFA88F081423FF665AF13E714F0FE06AB
:102650003FF410AFC1B240F6281B4900C2F2004B54
:1026600051FA80F040F61051C0F6010101EB8000F4
:10267000471E00BF40F2100517F9018FC2F2004556
:1026800040F218492846B8F1FF3FC8BF5846C5F682
:1026900002090DF10A04008800220223214600BA33
:1026A000000CADF80A001020C9F8000041F200400B
:1026B000C5F6000003F038FB5FEA4860284658BFC3
:1026C0005846AA464D46008800220223214600BAF9
:1026D000000CADF80A001020C9F8000041F20049D2
:1026E000C5F60009484603F01FFB5FEA88605046C4
:1026F00058BF5846002202230088214600BA000C29
:10270000ADF80A0010202860484603F00DFB5FEA90
:10271000C860504658BF5846002202230088214610
:1027200000BA000CADF80A0010202860484603F0FB
:10273000FBFA5FEA0870504658BF58460022022351
:102740000088214600BA000CADF80A00102028606D
:10275000484603F0E9FA5FEA48704FF0000258BFBC
:10276000DA4602232146BAF8000000BA000CADF8A0
:102770000A0010202860484603F0D6FA013E7FF494
:1027800079AF77E6C0B240F2184B41F2747140F66F
:10279000281600EB400341F2004040F21004C5F659
:1027A000020BC5F60000C0F601010027C2F2004688
:1027B000C2F200444FF0100C0DF10A0501EB0311B9
:1027C000009100BF00994FF004094FF0000A0197F3
:1027D00011F80780F90708BF4FF008094FFA88F190
:1027E0000022B1F1FF3F2146C8BF31460223074610
:1027F000098809BA090CADF80A102946CBF800C0BF
:1028000003F092FA0AF1010A4FF0100C5FFA8AF114
:10281000384689454FEA4808E0D8019F0137302FF4
:10282000D0D127E640F2184A41F2004B41F284121F
:1028300040F6281940F21007C5F6020A0020C5F636
:10284000000BC0F60102C2F20049C2F20047102498
:102850000DF10A054FF0000802EB0111009100BFD5
:102860000099002202230E5638462946B6F1FF3F52
:10287000C8BF4846008800BA000CADF80A005846A8
:10288000CAF8004003F050FA7006384658BF484670
:10289000002202230088294600BA000CADF80A0085
:1028A0005846CAF8004003F03FFAB006384658BF11
:1028B0004846002202230088294600BA000CADF8E1
:1028C0000A005846CAF8004003F02EFAF0063846CF
:1028D00058BF4846002202230088294600BA000C4F
:1028E000ADF80A005846CAF8004003F01DFA300758
:1028F000384658BF4846002202230088294600BABD
:10290000000CADF80A005846CAF8004003F00CFA73
:102910007007384658BF48460022022300882946DF
:1029200000BA000CADF80A005846CAF8004003F09F
:10293000FBF9B007384658BF4846002202230088FA
:10294000294600BA000CADF80A005846CAF8004003
:1029500003F0EAF9F007384608BF48460022022390
:102960000088294600BA000CADF80A005846CAF89B
:10297000004003F0D9F908F1010801995FFA88F0E5
:1029800081423FF66DAF75E52DE9F04F81B00B9FA9
:1029900097F800C0ACF12005EDB25E2D24D80C46AE
:1029A00080460A9E104419444FEA56091FFA80FADD
:1029B00001371FFA81FB4546A8B2504528BF344471
:1029C00028BF5FFA88F5A1B259450DD2A8B23346A7
:1029D0005FFA8CF2FFF740FD17F801CB4D44ACF1E4
:1029E0002000C0B25F28E7D301B0BDE8F08F00003F
:1029F0002DE9F0430B6893FAA3F2B2FA82F233FAAC
:102A000002F659D04FF0010C0CE000BFD1E90034C0
:102A1000066804FB0EF72E4037430760013233FA95
:102A200002F749D00CFA02F613EA0604F6D04E6813
:102A300004FB04FE751E022D18D2D0F808808F68A2
:102A40000EEB4E0507FB0EF928EA0507D1F80C80BE
:102A5000ED4347EA09078760D0F8049008FB03F7C5
:102A600029EA03033B43436003E000BF0EEB4E0340
:102A7000DD430B69C7682F40022E03FB0EF343EAC8
:102A80000703C360C2D1230AB4F5807F03FB03F3BD
:102A90004FF0240403FB03F33CBF20240EFB0EF392
:102AA000D1F814800759C3EB031608FB03F327EA98
:102AB000060633430351A9E70020BDE8F083000078
:102AC00070B504460068C00734D10D464EF6F311C8
:102AD00005F108032068CEF6FF7108400ECB0843CD
:102AE0006969184308432060606820F4405010432F
:102AF0006060A869A16821F440710843A0600720C4
:102B000000F036F8D0B16A68D2B1298811A3002646
:102B100033F811100023B0FBF1F0010E000210EBAE
:102B2000520041F10001FDF783FC6FF31F50E0609C
:102B300007E000BF0126304670BD00BF012600E05F
:102B400001262888E16A21F00F010843E06230463F
:102B500070BD00BF010002000400060008000A006A
:102B60000C00100020004000800000010000000068
:102B700010B584B044F20044C5F60204A06D00F024
:102B8000070005282FD8DFE800F00317212B313B81
:102B90002069C0F3C200032846D8DFE800F00347ED
:102BA0004D5300BF206849F20001C0F2D031C0F39C
:102BB000C10021FA00F049E02068000113D501A806
:102BC00000F032F9029804B010BD00BF2068800008
:102BD00009D501A800F0F8F9029804B010BD00BFB3
:102BE0002068400714D4002004B010BD206840F6CF
:102BF0000011C005C0F23D0101EAE07004B010BD53
:102C0000206F4FF4004101EA803004B010BD00BFD6
:102C1000206849F20001C0F2D031C0F3C10021FAAE
:102C200000F004B010BD00BF00200FE040F600101F
:102C3000C0F23D000AE000BF41F60030C0F2B7002C
:102C400004E000BF01A800F01FF80198A16940F658
:102C5000B642C0F60102A369C1F30321246A03F05E
:102C60000F03C4F30214515CD35C125D01F01F0129
:102C7000C84003F01F01C84002F01F01C84004B063
:102C800010BD00000000000080B544F2004EC5F603
:102C9000020EDEF8282002F00302022A0AD0012ADE
:102CA00010D022B9DEF80020520700F1AD804FF0BD
:102CB000000C10E0DEF8002041F600339203C0F271
:102CC000B70306E0DEF8002040F60013D205C0F29C
:102CD0003D0303EAE27C00228260C0E90022DEF8C4
:102CE0002830DEF83020DEF82C10C907C3F30513B6
:102CF0007AD19FED4B0A002B00F085806FF35F22A5
:102D0000DEF82C10C90302F1010220D501EE10CA31
:102D100002EE103A03EE102ADEF83010C1F346211D
:102D2000B8EE411AB8EE422A0131B8EE433A81EECC
:102D3000021A30EE032A21EE021A02EE101AB8EE41
:102D4000422A81EE021ABCEEC11A80ED001ADEF8AA
:102D50002C10890320D501EE10CA02EE103A03EEC2
:102D6000102ADEF83010C1F30641B8EE411AB8EE71
:102D7000422A0131B8EE433A81EE021A30EE032ABC
:102D800021EE021A02EE101AB8EE422A81EE021A61
:102D9000BCEEC11A80ED011ADEF82C10490358BFB1
:102DA00080BD01EE10CA02EE103A03EE102ADEF8E2
:102DB0003010C1F30661B8EE411AB8EE422A013173
:102DC000B8EE433A81EE021A30EE030A21EE000A11
:102DD00001EE101AB8EE411A80EE010ABCEEC00AEC
:102DE00080ED020A80BD00BFDEF834109FED0D1AA1
:102DF000C1F3CC0100EE101AB8EE400A20EE010A31
:102E0000002B7FF47BAF80BDDEF8002049F2000389
:102E1000C0F2D033C2F3C10223FA02FC5BE700BF69
:102E2000000000000000003980B544F2004EC5F6F5
:102E3000020EDEF8282002F00302022A0AD0012A3C
:102E400010D022B9DEF80020520700F1AD804FF01B
:102E5000000C10E0DEF8002041F600339203C0F2CF
:102E6000B70306E0DEF8002040F60013D205C0F2FA
:102E70003D0303EAE27C00228260C0E90022DEF822
:102E80002830DEF83820DEF82C10C906C3F30533ED
:102E90007AD49FED4B0A002B00F085806FF35F2200
:102EA000DEF82C10090302F1010220D501EE10CA50
:102EB00002EE103A03EE102ADEF83810C1F3462174
:102EC000B8EE411AB8EE422A0131B8EE433A81EE2B
:102ED000021A30EE032A21EE021A02EE101AB8EEA0
:102EE000422A81EE021ABCEEC11A80ED001ADEF809
:102EF0002C10C90220D501EE10CA02EE103A03EEE2
:102F0000102ADEF83810C1F30641B8EE411AB8EEC7
:102F1000422A0131B8EE433A81EE021A30EE032A1A
:102F200021EE021A02EE101AB8EE422A81EE021ABF
:102F3000BCEEC11A80ED011ADEF82C10890258BFD0
:102F400080BD01EE10CA02EE103A03EE102ADEF840
:102F50003810C1F30661B8EE411AB8EE422A0131C9
:102F6000B8EE433A81EE021A30EE030A21EE000A6F
:102F700001EE101AB8EE411A80EE010ABCEEC00A4A
:102F800080ED020A80BD00BFDEF83C109FED0D1AF7
:102F9000C1F3CC0100EE101AB8EE400A20EE010A8F
:102FA000002B7FF47BAF80BDDEF8002049F20003E8
:102FB000C0F2D033C2F3C10223FA02FC5BE700BFC8
:102FC000000000000000003910B544F20044C5F6CE
:102FD0000204A26A02F00302022A09D0012A0FD0D9
:102FE0001AB92268520700F1A7804FF0000E0FE0D7
:102FF000226841F600339203C0F2B70306E000BF37
:10300000226840F60013D205C0F23D0303EAE27ED7
:1030100000228260C0E90022A36A226CE16AC9052D
:1030200006D49FED4A0ABEF1000F0FD182E000BF27
:10303000616C9FED471AC1F3CC0100EE101AB8EE97
:10304000400A20EE010ABEF1000F73D0C3F305530E
:10305000002B6FD06FF35F22E16A490202F1010C8D
:103060001FD501EE10EA02EE103A03EE10CA216CF1
:10307000C1F34621B8EE411AB8EE422A0131B8EE4A
:10308000433A81EE021A30EE032A21EE021A02EED2
:10309000101AB8EE422A81EE021ABCEEC11A80ED77
:1030A000001AE16A09021FD501EE10EA02EE103A99
:1030B00003EE10CA216CC1F30641B8EE411AB8EE16
:1030C000422A0131B8EE433A81EE021A30EE032A69
:1030D00021EE021A02EE101AB8EE422A81EE021A0E
:1030E000BCEEC11A80ED011AE16AC90158BF10BDDA
:1030F00001EE10EA02EE103A03EE10CA216CC1F3A1
:103100000661B8EE411AB8EE422A0131B8EE433AF0
:1031100081EE021A30EE030A21EE000A01EE101AC7
:10312000B8EE411A80EE010ABCEEC00A80ED020A38
:1031300010BD00BF10BD00BF226849F20003C0F2FD
:10314000D033C2F3C10223FA02FE61E7000000009F
:10315000000000390000000010B584B040F24421A6
:103160000246C0F30423C0F2580161F31F2244F267
:103170000044010EC5F60204D26C99401140D940BA
:1031800040EA01410720C0F2037081424FF0000085
:1031900018DC40F20732C0F2017291422ADC0822A8
:1031A000C0F20072914275D040F20832C0F2007253
:1031B000914200F083800822C0F20172914259D0FE
:1031C00056E000BF40F20732C0F2047291422BDC9D
:1031D0000822C0F2037291423ED040F20832C0F29F
:1031E0000372914238D00822C0F20472914247D053
:1031F0003EE000BF40F20832C0F20172914239D085
:103200000822C0F20272914205D040F20832C0F2A8
:10321000027291422CD1206880002ED501A8FFF7C0
:10322000D3FE029804B010BD40F20832C0F204721E
:10323000914225D00822C0F20572914205D040F299
:103240000832C0F20572914212D1206F4FF4004152
:1032500001EA803004B010BD206840070DD5206819
:1032600049F20001C0F2D031C0F3C10021FA00F0F0
:1032700004B010BD2068000134D4002004B010BD9B
:10328000206840F60011C005C0F23D0101EAE0707F
:1032900004B010BD2069C0F3C200032828D8DFE8BD
:1032A00000F003292F3500BF206849F20001C0F269
:1032B000D031C0F3C10021FA00F02BE02069C0F347
:1032C000C200032848D8DFE800F003353B4100BFC7
:1032D000206849F20001C0F2D031C0F3C10021FAE8
:1032E00000F03AE001A8FFF79FFD029804B010BD7E
:1032F00000200FE040F60010C0F23D000AE000BFE1
:1033000041F60030C0F2B70004E000BF01A8FFF7AB
:10331000BBFC0198A16940F6B642C0F60102A36960
:10332000C1F30321E46903F00F03C4F30214515CF9
:1033300021E000BF40F60010C0F23D000DE000BFEC
:1033400041F60030C0F2B70007E000BF01A8FFF768
:103350009BFC019801E000BF0020A16940F6B64245
:10336000C0F60102A369C1F30321E46903F00F036E
:10337000C4F30224515CD35C125D01F01F01C8400C
:1033800003F01F01C84002F01F01C84004B010BD87
:1033900040F20801C2F200410860704700000000DE
:1033A00040F6FF330246C4F20003984200680FDC87
:1033B000B2F1804F1DD040F20043C4F200039A42A4
:1033C00017D040F60003C4F200039A4211D014E073
:1033D00040F60043C4F200039A420AD040F2004390
:1033E000C4F201039A4204D00023C4F201039A42BA
:1033F00003D120F070004B6818434FF6FF7343F67B
:10340000FF7CC4F20003C4F2010C9A4214DD624551
:1034100022DD44F20003C4F201039A4234D044F6A0
:103420000003C4F201039A422ED044F20043C4F2D6
:1034300001039A4228D02BE040F2FF73C4F200034C
:103440009A4215DCB2F1804F1ED040F20043C4F224
:1034500000039A4218D01BE00023C4F201039A42F1
:1034600012D040F20043C4F201039A420CD00FE0A4
:1034700040F60003C4F200039A4205D040F6004330
:10348000C4F200039A4203D120F44070CB68184381
:10349000106062458868D0620888906212DD44F24C
:1034A0000000C4F20100824217D044F60000C4F2CA
:1034B0000100824211D044F20040C4F20100824275
:1034C0000BD00CE00020C4F20100824205D040F293
:1034D0000040C4F20100824201D1086910635169C1
:1034E000002041F001015161704700000000000020
:1034F000B0B504460068C0073AD10D4646F6F31150
:1035000005F108032068CEF6FF7108400ECB084392
:1035100069691843EB690843082118432060606813
:1035200047F2FF7320F44050C4F200031043606080
:10353000A869A26822F44072C0F2007110439C4254
:10354000A0604FF0010015DC44F6FF32C4F2000227
:10355000944223DC44F20042C4F20002944239D087
:1035600044F60002C4F20002944233D05BE000BF94
:103570000120B0BD40F6FF72C4F2010294421BDC90
:1035800047F60002C4F20002944223D047F60042FC
:10359000C4F2000294421DD045E000BF44F6004250
:1035A000C4F20002944215D045F20002C4F20002B7
:1035B00094420FD037E000BF41F2000201F54071A4
:1035C000C4F20102944205D041F20042C4F2010269
:1035D000944228D10846FFF7BFFDC8B16968C9B158
:1035E0002A680B2A1ED813A353F82220B0FBF2F04E
:1035F000EA69B2F5004F0FD1400000EB5100B0FB7B
:10360000F1F04FF6F0710140C0F34200084408E0C9
:10361000012008E0012006E000EB5100B0FBF1F0D2
:1036200080B2E06000202988E26A22F00F02114394
:10363000E162B0BD010000000200000004000000D3
:1036400006000000080000000A0000000C00000056
:10365000100000002000000040000000800000007A
:10366000000100000000000040F60040C5F6000028
:1036700002F0DABC00000000FEE7000000000000DD
:10368000FEE700000000000070470000000000009E
:10369000B0B58AB0044600F0B3F841F2ED10002551
:1036A000C2F2004041F2D041C2F20041057041F245
:1036B0000440C2F200400D604CF6CD41057041F26D
:1036C0000540C2F20040CCF6CC41057041F2CC403E
:1036D000C2F20040056040F6F840C0F60100006804
:1036E000A0FB010141F2F810C2F20040C9080570C8
:1036F00041F20840C2F20040016041F2F91040F688
:10370000C841C2F20040C0F601010570086841F2EC
:103710000C41C2F200410D7040B140F6CC41C0F600
:103720000101096811B18900FDF722FA41F2DA407E
:10373000C2F20040057001F0C7F941F204204FF4D5
:103740000071C2F20040FDF713FA204600F0E0FEDF
:10375000206808B10AB0B0BD204600F0DDFE206848
:103760000028F7D1204601F03FFD20680028F1D164
:1037700040F6D04040F6D842C0F6010040F6D441B1
:10378000C0F60102C0F601010068002315683F225F
:10379000CDE9002000200690CDE904000B20079021
:1037A00041F2441044F2F14209680291C2F2004031
:1037B000C0F6000200210894039500F0A5FB2068E4
:1037C0000028C7D1204601F02FFD20680028C1D174
:1037D000204601F029FC20680028BBD1204601F0DA
:1037E00013FF20680028B5D1FFF74EFF41F2EC101F
:1037F0000121C2F2004001700AB0B0BD000000001B
:1038000040F6C84040F6CC41C0F60100C0F60101C8
:103810000068096800EB810020F0070140F27800A1
:10382000C2F2004001604EF63471CEF20001096828
:10383000890F022902D9402141607047FEE700004C
:1038400041F20440C2F200400078012808D141F260
:10385000ED10C2F200400178F9299CBF01310170DE
:10386000704700000000000010B541F20440C2F2B1
:1038700000400078012818BF10BD4020FCF7B2FDC1
:1038800041F2ED110446C2F200410A784AB141F218
:103890000540013AC2F200400A7000781043000669
:1038A00004D02046BDE81040FCF7AABD01F0F8F8AE
:1038B00041F2F91141F2CC42C2F20041C2F200429F
:1038C000087041F20421C2F2004151F83000116841
:1038D000884241F2D041C2F200410860E1D041F299
:1038E000D442D0F88410C2F200420131C0F88410F2
:1038F00010680130106003F07CFC2046BDE81040E9
:10390000FCF77EBD00000000F0B581B041F2ED1182
:103910001446C2F20041097821B142F6E1672760FE
:1039200001B0F0BD054698B145F24D574020C5F6AF
:103930005407FCF757FD29680646B9420ED13046B8
:10394000FCF75EFD45F6C157276001B0F0BD00BF32
:1039500045F6C357276001B0F0BD00BF281D2F609A
:1039600000272F75C5E9037700F0D6FF3046FCF736
:1039700047FD276001B0F0BD2DE9F04381B041F271
:10398000ED13089EC2F200431B782BB146F2AE1035
:10399000306001B0BDE8F083044641F20440C2F259
:1039A00000400078012831D1B4B342F400401746FA
:1039B000B0F5004F36D10D4645F24D512068C5F6A1
:1039C0005401884234D14020FCF70CFD41F2CC492F
:1039D000227DC2F200498046D9F8001072B32069F6
:1039E000814239D03AB2B2F1FF3F41DD41F20542A6
:1039F000C2F200421278002A50D04046FCF700FD87
:103A000046F66350306001B0BDE8F08345F689604A
:103A1000306001B0BDE8F08345F6C350306001B0BE
:103A2000BDE8F08345F62560306001B0BDE8F08365
:103A300045F6C450306001B0BDE8F0830120207528
:103A4000486BE060404621614C63FCF7D9FC0020E4
:103A5000306001B0BDE8F083FF2A13D14046FCF787
:103A6000CFFC45F28470306001B0BDE8F08300BF48
:103A70004046FCF7C5FC46F2B010306001B0BDE82E
:103A8000F08300BF501C20754046FCF7B9FC45F29E
:103A90008270306001B0BDE8F08300BF90F82F3035
:103AA00091F82F20934204D9114601F031FBD9F847
:103AB0000010042220462B4600F04EFE4046FCF744
:103AC0009FFC00F01DF84020FCF78CFCD9F800109A
:103AD00091F92D10032903D805A252F8211001E015
:103AE00046F62E61316001B0BDE8F043FCF788BCBA
:103AF00000000000A9610000C25D0000D972000052
:103B000010B541F20440C2F20040007801283CD1D7
:103B100041F2ED1041F20541C2F20040C2F2004113
:103B200000780978084318BF10BD4020FCF75AFC04
:103B3000044600F0B5FF41F2F91141F2CC42C2F265
:103B40000041C2F20042087041F20421C2F2004179
:103B500051F830001168884241F2D041C2F2004170
:103B6000086013D041F2D442D0F88410C2F200426F
:103B70000131C0F8841010680130106003F039FB87
:103B80002046FCF73DFCBFF36F8F10BD2046BDE81B
:103B90001040FCF735BC00002DE9F04141F2ED1179
:103BA0001C46C2F20041097821B142F6E160206072
:103BB000BDE8F081054698B144F2535840201646BE
:103BC000C4F24D18FCF70EFC2968074641450DD19B
:103BD0003846FCF715FC45F6C1502060BDE8F08181
:103BE00045F6C3502060BDE8F08100BF281DC5F830
:103BF0000080EE6000F090FE3846FCF701FC0020EB
:103C00002060BDE8F08100002DE9F04116B20D46BC
:103C1000002E0446069F0BD441F2ED10C2F2004084
:103C2000007828B146F2AE1038600020BDE8F0817F
:103C300041F20440C2F20040007801281CD10CB3CC
:103C400042F40040B0F5004F22D144F253512068B5
:103C5000C4F24D11884221D14020FCF7C3FBE1683A
:103C6000804609B340464D1EE560FCF7C9FB0020C5
:103C700038602846BDE8F08145F68960386000204C
:103C8000BDE8F08145F6C35038600020BDE8F08102
:103C900045F6256038600020BDE8F08145F6C45047
:103CA00038600020BDE8F081B6F1FF3F0EDD41F243
:103CB0000540C2F20040007890B14046FCF7A0FBFE
:103CC00046F6635038600020BDE8F0814046FCF7BE
:103CD00097FB46F2B01038600020BDE8F08100BFCD
:103CE00041F2CC460622C2F2004620462B463168FD
:103CF00000F032FD4046FCF783FBFFF701FF402058
:103D0000FCF770FB316891F92D1004290AD209A241
:103D100052F821103960E568FCF772FB2846BDE8CF
:103D2000F08100BF46F62E613960FCF769FB002088
:103D3000BDE8F08100000000A9610000C25D000044
:103D4000D9720000000000002DE9F04381B041F27B
:103D500004439146C2F200431B78012B0ED1064664
:103D6000B0B10D46B1F5004F4FF0000745F62560A4
:103D700018DAEDB1B5F5007F1AD031E0002745F62D
:103D80008960C9F80000384601B0BDE8F08300BF83
:103D9000002745F6C350C9F80000384601B0BDE819
:103DA000F08300BFB5F5024F02D0B5F5004F17D133
:103DB00044F253513068C4F24D11884216D140206C
:103DC000FCF710FB71688046D1B1A80526D400220B
:103DD000002300200090304600F0CEFD2AE000BF16
:103DE000C9F80000384601B0BDE8F083002745F669
:103DF000C450C9F80000384601B0BDE8F08300BFE8
:103E0000F068471C26D04046F760FCF7F9FA00201E
:103E1000C9F80000384601B0BDE8F083002700BFB4
:103E20000022002330460C6A009700F0A5FD002C0C
:103E30002146F5D14046FCF7E3FA280401D4FFF708
:103E40005FFE00200027C9F80000384601B0BDE839
:103E5000F08300BF4046FCF7D3FA002746F6C55072
:103E6000C9F80000384601B0BDE8F083000000004A
:103E7000B0B541F2EC110446C2F2004109780129C3
:103E80000AD141F2D840C2F200400088042807D28B
:103E900045F68C602060B0BD45F68B602060B0BDFB
:103EA00041F20445C2F20045287818B145F68A600F
:103EB0002060B0BD00F0F4FD41F2F911C2F2004102
:103EC000087041F2F811C2F20041087041F2042179
:103ED000C2F2004151F8300041F2D041C2F200413B
:103EE000086041F2CC41C2F2004108600120287014
:103EF00003F040F943F699202060B0BD00000000B7
:103F000070470000000000002DE9F04F89B041F239
:103F1000ED111A9DC2F20041097829B147F24A1009
:103F2000286009B0BDE8F08F0446A8B11746CAB1B1
:103F3000DDF84CB0BBF1000F1AD040F6F440DDF8CC
:103F40005480C0F601000068404517D946F630603D
:103F5000286009B0BDE8F08F47F2AD10286009B0C5
:103F6000BDE8F08F47F24F10286009B0BDE8F08F30
:103F700046F62F60286009B0BDE8F08FDDF850A04C
:103F8000C24517D21E46129B402B0CD241F2441060
:103F9000DDF864C0C2F20040189A8442DDE91601DF
:103FA0000ED03F2B0CD146F27320286009B0BDE83B
:103FB000F08F00BF46F63160286009B0BDE8F08F91
:103FC000CDE90413CDE9062004F15C000021CDF811
:103FD00020C04FF00009C4F85490A4F85890C4E9E8
:103FE0000099C4E90299C4E90499C4F81890C4F886
:103FF0001C90039000F020FBDDF820C044F240004C
:10400000A4F82F005FEA8C70C4F83890A4F83C90B4
:10401000C4E90899C4F82890C4F82B90C4E9109911
:10402000C4E91299C4F85090C4E91A99C4E91C99DA
:10403000C4F87890C4F87B90C4E92099C4E9229927
:10404000C4F89090C4E92699C4E92899C4F834903A
:10405000C5F8009006D54FEA88015846E146FCF7BE
:1040600087FDCC460BEB8A0A384631465A46534602
:104070006646CDE9008C00F047F9584506D246F671
:104080003260286009B0BDE8F08F00BF206041F2C7
:104090000840C2F20040059A84F82F2084F83020AE
:1040A0000068049AC4F808A0002A18BF10460799AF
:1040B000C4F81CB0C4E91320069860600020206793
:1040C0000398C4F83880A68700F0B6FA204600F0BE
:1040D00027F84020FCF786F994F82F10054608468B
:1040E00000F0FAFC204600F07BFD41F2D84041F29E
:1040F0000442C2F20040C2F2004201881478013149
:1041000001802846FCF77CF9012C05D109B0BDE8F7
:10411000F04FFFF7F5BC00BF09B0BDE8F08F00001D
:1041200070470000000000002DE9F04381B041F22B
:10413000ED120C46C2F2004212782AB147F24E103C
:10414000206001B0BDE8F083054641F20440C2F2B0
:1041500000400078012840F0898041F24410C2F20A
:104160000040854200F088804DB94020FCF73AF9C4
:1041700041F2CC41C2F200410D68FCF741F9402008
:10418000FCF730F995F82E108146072900F27A8065
:10419000DFE801F0821604041916040495F82C00D7
:1041A000411F022903D304287ED0012802D12846CA
:1041B00000F0B6FB95F82E0040F00400072802D16D
:1041C000284601F06DF9686B10B1284600F040FAFE
:1041D00005F15C07384600F00FFA284600F08CF82D
:1041E00041F2D8400026C2F200406E65A5F8586042
:1041F00001880139018000213846C5E90066C5E91A
:104200000266C5E90466C5E9066600F015FAAE6205
:1042100044F24000C5F82B60A5F82F00FF2085F878
:104220002E004846AE63AE87C5E90866C5E910664C
:10423000C5E912662E65C5E91A66C5E91C66AE6752
:10424000C5F87B60C5E92066C5E92266C5F89060BF
:10425000C5E92666C5E928666E632660FCF7D0F8D6
:1042600001B0BDE8F043FFF74BBC00BF45F68960E5
:10427000206001B0BDE8F08347F24C10206001B02F
:10428000BDE8F0834846FCF7BBF846F62D60206099
:1042900001B0BDE8F08300BF284600F0BDFC686BAC
:1042A000002892D194E700BFA86A0769284697F8CA
:1042B0002F8000F035FB97F82F0097F830108842D8
:1042C0000ED095F82F1088420AD1384600F0FCF93C
:1042D00097F83010804697F82F00884588BF8846A9
:1042E00080454FF0000085F82C003FF463AF38465E
:1042F000414600F00DFF5DE7704700000000000040
:104300007047000000000000DDF800C002EB8C02E6
:1043100022F0070C4FF004324CF8442D4FF00232DB
:10432000CCF8241045F20921CCF83C004FF0807005
:10433000CCF840004FF00530CCF804004FF00630C8
:10434000CCF808004FF00730CCF80C004FF00830E4
:10435000CCF810004FF00930CCF814004FF01030BA
:10436000CCF818004FF01130CCF81C006FF00200B0
:10437000CCF820006046C0F60001CCF82830CCF81C
:104380002C204FF00332CCF830204FF01232CCE921
:104390000D2170470000000041F2CC4041F2D042B4
:1043A000C2F20040C2F2004201681068814208D0A7
:1043B000D1E9232C5342C1F88830ACEB0202C1F89A
:1043C00090200021C0F88C10704700000000000011
:1043D0002DE9F04141F2ED131446C2F200431B787F
:1043E00023B147F275202060BDE8F081064641F216
:1043F0000440C2F20040007801280BD141F2054090
:10440000C2F20040007858B146F663502060BDE823
:10441000F08100BF45F689602060BDE8F08100BFF3
:104420000D46082928D8012040F21511A84008425D
:1044300022D04020FBF7D6FF41F2CC480746C2F21B
:10444000004831462A462346D8F8000000F078FF9D
:10445000206828B13846BDE8F041FBF7D1BF00BF66
:10446000D8F8000000F0D8FB3846FBF7C9FFBDE8DC
:10447000F041FFF745BB00BF45F625602060BDE871
:10448000F08100000000000080B541F20440C2F25B
:1044900000400078012818BF80BD00F015F841F2F7
:1044A000F81041F20421C2F20040C2F2004100784B
:1044B00001EBC00000F0E8FB0120BDE8804001F006
:1044C0001FB800000000000070470000000000005E
:1044D00010B54020FBF786FF0446FFF7B1F92046F0
:1044E000FBF78EFFFFF7D0FFBDE81040FFF7BCB928
:1044F00041F21444C2F200444020FBF773FF2168EC
:1045000001312160FBF77CFFF6E7000000000000AE
:104510000021016070470000F0B540F6DC41C0F6B4
:1045200001010A68002A5DD040F6E041C0F60101B1
:10453000B1F800E0BEF1000F58D0AEF1010413460F
:10454000210440D0AEF1020104F0030C89B203292A
:1045500011461DD34FF6FC71154604EA01030024F1
:104560002E462F4605F13001043B46F8241F47F83C
:10457000186F2E462C8146F80C7FC5E900642C612B
:104580001E04AC82EC612C84AC62AC850D46E7D194
:10459000BCF1000F0B4616D001F10C030024BCF156
:1045A000010F0C81C1E900340DD001F11803BCF1F9
:1045B000020FC1E903348C8205D001F124038B6121
:1045C0000027CF610F8400211981C3E9001141F256
:1045D000F013C2F200431A60A3F804E0D98001602E
:1045E000F0BD00BF45F21E710160F0BD45F21D71C6
:1045F0000160F0BD0000000080B501464089002840
:1046000008BF80BD41F2F012D1F800C0C2F20042F2
:10461000B2F806E01368CCF80030B2F804C0AEEB94
:104620000003D3804B6813600CEB000393800022DF
:104630004A81C1E9002280BD018100214181C0E998
:104640000011704700000000426BCA604163704770
:104650002DE9F04182B0054655F8346F86B3044623
:1046600000274FF0010812E00E60416861B14A6B0B
:10467000C26000220023046180F814804863009720
:1046800000F07AF91EB91BE007750761C6B1304624
:10469000F6682A461368114683421FBF03F10C01D6
:1046A0000A68824202F10C011CBF0A688242DBD018
:1046B00002F10C010A68824202F10C02EAD1D3E74E
:1046C00002B0BDE8F0810000416B3F2001E000BF77
:1046D000C96819B34A6822B192F82F20824238BFC4
:1046E0001046C968D1B14A6822B192F82F2082429F
:1046F00038BF1046C96889B14A6822B192F82F20A4
:10470000824238BF1046C96841B14A68002ADFD0EA
:1047100092F82F20824238BF1046D9E7C0B27047C6
:1047200000F13402136810468B4210D003F10C00E4
:1047300002688A421EBF02F10C0002688A4206D05B
:1047400002F10C0002688A4202F10C02EAD1C96847
:104750000160704700000000B0B50C46054681F8C6
:104760002C204FF0000081F82D005BB141F2DC40BD
:104770000021C2F200400268204600F065FD0321DE
:1047800001E000BF0221226994F82F0084F82E1066
:10479000E1681AB1D16059B10A611DE081B100220E
:1047A0000A6141F20422C2F2004242F8301013E0E2
:1047B00041F20421C2F2004101EBC00042600BE073
:1047C00041F204210023C2F2004101EBC00241F892
:1047D0003030536000F09CF90020E06020612DB380
:1047E0006868A56220B394F82F1090F82F209142AA
:1047F00024D3006A90B190F82F2091421ED3006A12
:1048000060B190F82F20914218D3006A30B190F82F
:104810002F20914212D3006A0028E6D100202062A6
:10482000A8686062AC600462B0BD00BFA062B0BDA9
:104830000020C4E90800C5E90144B0BD416A206216
:1048400021B161620C624462B0BD00BF00216162AF
:1048500044626C60B0BD000080B5D0F828C0E64668
:104860005EF8042F116A002908BF80BD416A036AFF
:1048700021B14BB10B6259620AE000BF00215962BD
:10488000CEF8003005E000BF00230B62CCF8081022
:10489000134690F82F2000210162416293F82F10F7
:1048A0008A4221D31B6A93B193F82F108A421BD3FB
:1048B0001B6A63B193F82F108A4215D31B6A33B178
:1048C00093F82F108A420FD31B6A002BE6D10021E8
:1048D00001625CF8081F416201F12003E64618609E
:1048E000CEF8000080BD00BF1A46036252F8241FB4
:1048F00041B101F12003964641621860CEF80000F4
:1049000080BD00BF0021416213461860CEF8000050
:1049100080BD0000000000000021C0E900117047C8
:10492000816A002908BF70474A68126A52B1426A18
:10493000036A7AB1B3B113625A6200218162C0E99D
:10494000081170470022C1E9012200218162C0E9FB
:104950000811704700225A624B6000218162C0E951
:1049600008117047002313628A6000218162C0E948
:10497000081170470000000010B591F82EC00C46D9
:10498000ACF10601022915D3ACF10201012988BF5F
:1049900010BD6265A4F85830B8B3A06AA8B34168E6
:1049A000096AD9B1626A236A02B33BB313625A62DD
:1049B00027E000BF00286265A4F8583063D0A06AE1
:1049C000002860D04168096A61B1626A236A8AB1CD
:1049D000002B51D013625A6251E000BF0021C0E9A0
:1049E00001110EE00021C0E9011148E000215962E7
:1049F000436006E000215962436040E000211162FB
:104A000082600020A062C4E90800BCF1030F02D15B
:104A1000204600F045FD94F82F0000F05DF841F2CB
:104A2000F81094F82F10C2F2004041F20422C2F2B2
:104A300000420078814202EBC10052F8311009D1E6
:104A400000294FF00001E1600CD050F8041F2161F3
:104A5000CC600AE021B1E160002222610C6104E037
:104A60000021E16040F8044B21610460002084F8DB
:104A70002E000020A08510BD002111628260002060
:104A8000A062C4E90800BCF1070F02D1204600F083
:104A900007FD042084F82E000020A08510BD000032
:104AA00080B541F2FC11C2F20041086820B1FBF769
:104AB000B4FCC0B280BD00BF4868FBF7AEFC20214B
:104AC00051FA80F0C0B280BD41F2FC100021C2F268
:104AD0000040C0E900117047C0F13F01012202FA15
:104AE00001FC41F2FC11C2F200414FF000420B46C2
:104AF000C240202853F8040F38BF0B46096840EA2B
:104B00000C0038BF41EA0200186070470000000046
:104B100041F2FC12C0F13F01C2F200420123202801
:104B200003FA01F128BF04324FF0004338BF23FAE3
:104B300000F110688843106070470000000000001A
:104B400010B5044690F82F00FFF7C6FF41F2F810A9
:104B500094F82F10C2F2004041F20422C2F2004247
:104B60000078814202EBC10052F831100AD10029CD
:104B70004FF00001E1600FD050F8041F2161CC60BC
:104B8000046010BD31B1E160002222610C6104605B
:104B900010BD00BF0021E16040F8044B21610460BA
:104BA00010BD00000000000090F82F1041F2042317
:104BB000C2F2004353F8312003EBC10132B1C260AD
:104BC0000023036110610860704700BF41F8040BC7
:104BD0000022C2600261086070470000000000000F
:104BE00090F82F1041F20422C2F2004252F8313004
:104BF00002EBC101002B4FF00003C36006D051F857
:104C0000042F02610860D060704700BF41F8040BB8
:104C1000036108607047000010B50446026990F80F
:104C20002F00E16832B1D16091B10A610020C4E97E
:104C3000030010BDC1B100220A6141F20422C2F298
:104C4000004242F830100020C4E9030010BD00BF4C
:104C500041F20421C2F2004101EBC0004260002099
:104C6000C4E9030010BD00BF41F204210023C2F2D9
:104C7000004101EBC00241F830305360FFF748FFBC
:104C80000020C4E9030010BDF0B581B041F20C4131
:104C9000C2F200410978012916D104464020FBF7F1
:104CA000A1FB216851B141F24412C2F2004291428B
:104CB00004D00A6D52B1013A0A6507D001B0BDE8CF
:104CC000F040FBF79DBB00BF01B0F0BD62689142B0
:104CD000F4D041F20543C2F200431B78002BEDD122
:104CE000CB6800259C469E461F4693420EBF8C46CD
:104CF0004FF0000E0F469E1A18BF1646CCF810E073
:104D00003E6141F20847C2F20047CD60D1602360A6
:104D1000DA6C3F68002A616018BF17461F6501B052
:104D2000BDE8F040FBF76CBB82B041F2204740F693
:104D3000E441C2F20047C0F6010138780E6801284C
:104D40000AD0740001AD00BF002120462A46FFF7BB
:104D50003FFB38780128F7D14020FBF743FB41F2B5
:104D600010410027C2F200410F80FBF749FB40F6DB
:104D7000F840C0F601000068B04298BF0A260197CB
:104D8000B0FBF6F440F6CC40C0F60100D0F800804D
:104D9000B8F1000F00F0B88040F6C84041F2144A64
:104DA000C0F6010041F21C4B41F20D4548F20046AD
:104DB000D0F80090C2F2004AC2F2004BC2F20045A5
:104DC000C1F2D77605E000BF0021204601AAFFF717
:104DD000FFFA4020FBF706FBDAF80010CBF80010D2
:104DE000CAF80070FBF70CFB41F21840DBF800102A
:104DF000C2F20040006888420AD941F68022C0F21F
:104E0000060290420AD242F21073012222E000BF51
:104E100041F20E40C2F20040078035E040F6001239
:104E2000C0F23D02904203D24FF47A730A2211E09D
:104E300045F60022C0F26222904203D2642264232B
:104E400008E000BF42F210720123B0423CBF4FF4B1
:104E50007A720A235943B0FBF2F0B1FBF0F042F250
:104E60001071081A41F2104182B2C2F20041098861
:104E7000914241F20E41C2F20041088004D241F257
:104E80001041C2F200410880FFF73AF8D9F800005B
:104E900010B100201BE000BF002000BF421C904565
:104EA00014D909EB80014B6883B9821C90450DD958
:104EB0008B685BB9C21C904508D9CB6833B9043004
:104EC000804504D909690029E8D000E01046297816
:104ED00041F23C12C2F20042012941F24011C2F2F9
:104EE00000411060A8EB000008607FF46DAF402027
:104EF0002F70FBF777FA41F21041C2F200410F80A8
:104F0000FBF77EFA01975FE741F2144541F21C4638
:104F100041F23C1A41F2401941F20D4BC2F20045F8
:104F2000C2F20046C2F2004AC2F20049C2F2004B8D
:104F30000DF1040805E000BF002120464246FFF7BE
:104F400047FA4020FBF74EFA296831602F60FBF7E3
:104F500057FA41F218403168C2F2004000688842B6
:104F60000AD941F68022C0F2060290420AD242F2E9
:104F70001073012226E000BF41F20E40C2F2004051
:104F8000078039E040F60012C0F23D02904203D2A1
:104F90004FF47A730A2215E045F60022C0F262222D
:104FA000904203D2642264230CE000BF48F2004226
:104FB0000123C1F2D772904242F210723CBF4FF40B
:104FC0007A720A235943B0FBF2F0B1FBF0F042F2DF
:104FD0001071081A41F2104182B2C2F200410988F0
:104FE000914241F20E41C2F20041088004D241F2E6
:104FF0001041C2F200410880FEF782FF9BF80000DA
:10500000CAF80070C9F80070012895D140208BF8CB
:105010000070FBF7E7F941F21041C2F200410F8046
:10502000FBF7EEF9019787E780B58AB041F21441AA
:105030000022C2F2004140F6E843C0F601030A60D4
:1050400041F21C41C2F200410A6041F21841C2F231
:1050500000410A6041F22041C2F200410A7041F26F
:105060000D41C2F200410A7041F23C11C2F200410E
:105070000A60196841F24013C2F200431A6089B114
:1050800040F6F04240F6F443C0F60102C0F60103D8
:1050900012681B689A420BD246F62C6101600AB076
:1050A00080BD00BF46F62B6101600AB080BD00BF25
:1050B00040F6E243C0F6010393F800C0BCF13F0F95
:1050C00004D346F62A6101600AB080BD40F6EC4385
:1050D0000890C0F601030020CDE904001B6806908B
:1050E000CDE9023241F2244044F62952CDE900C113
:1050F000C2F20040C0F60002002100234FF0030C72
:10510000CDF81CC0FEF700FF0AB080BD0000000013
:10511000F0B581B090F82F7004460D46012601E0ED
:105120008F421DD094F82E00072835D806FA00F1DA
:1051300011F0CC0F32D094F82C0084F82F500428B2
:105140001CD12046FFF788FBF9B2A06A0469E8B2D7
:1051500094F82F708142E3D98742E3D81CE000BF66
:105160002046FFF7B1FA94F83010054694F82F70F6
:10517000884288BF0D46BD42D4D10DE006280BD829
:10518000012101FA00F010F0620F05D0204601B0B5
:10519000BDE8F040FFF760BB01B0F0BD012101FAAE
:1051A00000F010F0320F1EBF84F82F5001B0F0BD98
:1051B0002046FFF731FDE8B284F82F50FFF78CFC52
:1051C00041F2CC40C2F200400068844206D0204642
:1051D00001B0BDE8F040FFF703BD00BF204601B0BD
:1051E000BDE8F040FFF7E0BC41F2D8410022C2F236
:1051F00000410A8041F2D441C2F200410A600260DB
:10520000704700000000000080B582B041F2CC4041
:10521000C2F200400068FFF773F801A90020FEF712
:1052200083FF02B080BD00000021016041F2DC403C
:10523000C2F20040016041F2E040C2F20040016071
:10524000704700000000000080B541F2DC4C1A44B9
:10525000C2F2004CDCF800C00CEB0103B2EB030C13
:105260003AD041F2E043C2F20043D3F800E0BEF18D
:10527000000F35D0DEF84420511A8C4502D2DEF8FA
:105280001820AAB3DEF81430ACEB0101002B40D09B
:105290005A6C914247D3D3F814E0891ABEF1000F3B
:1052A00036D0DEF8442091423CD3DEF81430891A1F
:1052B0007BB35A6C914236D3D3F814E0891ABEF10D
:1052C000000F25D0DEF8442091422BD3DEF81430B5
:1052D000891A002BDCD11CE000214164084680BD06
:1052E000C0F844C00021C0E905111860012080BD4C
:1052F000C0F844C0A1EB0C01CEF844100021C0F866
:1053000014E08161CEF818001860012080BD00BF54
:105310009E4641640021C0E9051ECEF8140001201C
:1053200080BD00BF7346D3F818C04164C0E9053C96
:105330005A6C9861CCF814000120511A596480BD50
:1053400010B5082A0ED0042A2ED141F2DC42C2F256
:105350000042D2F800C000221144B1EB0C012ED162
:105360001BE000BFD9B141F2DC44826CC2F20044C0
:10537000D4F800C0ACEB02048C4208D3B4FBF1F2C9
:1053800002FB1144ACEB0402002C18BF0A44541871
:1053900084641144B1EB0C0111D10021416447F246
:1053A0007E20186010BD00BF41F2DC42C2F2004214
:1053B000D2F800C062461144B1EB0C01EDD041F2CD
:1053C000E042C2F20042D2F800C0BCF1000F31D07E
:1053D000DCF84440A14202D2DCF81820A2B3E64631
:1053E000091B5EF8142F002A41D0546CA14244D30B
:1053F000D2F814C0091BBCF1000F35D0DCF84440D2
:10540000A14239D3DCF81420091B72B3546CA142B9
:1054100033D3D2F814C0091BBCF1000F24D0DCF840
:105420004440A14228D3DCF81420091B002ADCD117
:105430001BE000BF41F2E04E41640021C2F2004E89
:10544000C0E9051124E000BF41F2E04E4164611A59
:10545000CCF84410C0F814C000218161C2F2004EA3
:10546000CCF8180014E000BF94460CF1140E41640F
:105470000021C0E9051C0BE062464164D2F818C067
:10548000546C0CF1140EC0E9052C611A5164906142
:10549000CEF80000012180F82E100020186010BD09
:1054A0008269416972B1516121B18A61426C4B6C70
:1054B0001A444A640021C0E905114430002101600A
:1054C000704700BF91B150F8443F4A6C1A444A6497
:1054D00041F2E0424FF0000CC2F20042C1F818C0A5
:1054E00040F830CC116000210160704741F2E0418A
:1054F0000022C2F2004144300A600021016070477E
:105500002DE9F04F81B006464020FAF76BFF41F2DB
:10551000E0498046C2F2004941F2DC40C2F200405C
:10552000D9F800500168002D3144016064D0686CE6
:105530000024811B38BF214669645DD8371A4FF0BB
:10554000040A4FF4407B00BF95F82E00052807D0D1
:10555000012809D1284685F82E40FFF7F1FA3DE0F1
:1055600085F82EA03AE000BF95F82C00042803D15E
:10557000A86A066901E000BF002628466C65A5F808
:105580005840FFF7CDF995F82E00072806D00328DC
:1055900007D12846FFF7D4FA002000E0042085F860
:1055A0002E00A5F82CB0CEB196F82F0096F830104A
:1055B000884213D095F82F1088420FD13046FFF75C
:1055C00083F896F830200146904296F82F0088BF65
:1055D0001146814202D03046FFF79AFD6D69C9F845
:1055E00000504DB1686CAC61C11B38BF2146381A00
:1055F00028BF07466964A7D2404601B0BDE8F04F16
:10560000FAF7FEBE0000000070B58AB040F6F8411F
:1056100040F60052C0F60101C0F60102002341F23B
:10562000F845096812680446C2F20045B1FBF2F180
:1056300041F2F4422846C2F20042136041F2BC52E9
:10564000C2F20042116000212246FEF75DF9206897
:1056500010B10AB070BD00BF4020FAF7C3FE41F29E
:10566000E44144F64372C2F200410646081DC4F20A
:105670004E420A60CD60FFF74FF93046FAF7C0FEA0
:1056800040F60450C0F60100006888B140F60C51A5
:1056900040F6F442C0F60101C0F601020968126842
:1056A00091420BD247F2483020600AB070BD00BF73
:1056B00047F2473020600AB070BD00BF40F6FC42A0
:1056C000C0F6010212783F2A04D347F24630206028
:1056D0000AB070BD40F608530894C0F601030B26CB
:1056E000CDE9002000200690CDE9040041F21050E1
:1056F00045F611021B68C2F20040CDE90231C0F646
:105700000002002100230796FEF7FEFB0AB070BDE1
:10571000B0B582B041F2F44EC2F2004EDEF8002085
:1057200072B341F2B85C4569C2F2004C0D44DCF83A
:1057300000402D1B5469A54201D2136963B3D3689D
:10574000291B002B51D05D69A94256D3DA68491B49
:10575000002A49D05569A9424ED3D368491B002B72
:1057600043D05D69A94248D3DA68491BE2B3556961
:10577000A94241D3D368491B002BE4D135E000BFD7
:105780000025CEF80000C0E9035541F2B850C2F23E
:10579000004001600AE000BF631B5361C260002546
:1057A00005611061CEF80000CCF800104020FAF737
:1057B00019FE41F2E4410446C2F20041496861B178
:1057C00041F2E44041F21051C2F20040C2F2004105
:1057D000002200230095FFF7CFF8204602B0BDE875
:1057E000B040FAF70DBE00BF1A4600234161C0E980
:1057F0000332D06002B0B0BD13461A69C360C0E97D
:1058000004215D691861691A5961D06002B0B0BDA8
:1058100082B041F2F84401A8C2F200440021002203
:105820000023009020464FF0000AFEF7A5F841F251
:10583000F44B41F21058C2F2004BC2F20048DBF8C0
:10584000000000E0384618B1D0F8149002E000BF24
:105850004FF000094020FAF7C5FD064640462146B4
:10586000FEF75EFF98F82F1098F83000814206D0BE
:1058700041F2F81188F82F00C2F200410870676801
:1058800041F2E445C2F2004587B101202075384657
:1058900021462761FEF7D8FE002200232046394624
:1058A000CDF800A0FFF768F804E000BFC4F810A02E
:1058B00084F814A00322284641464B46FEF74CFFCD
:1058C0003046FAF79DFDFEF71BF94020FAF78AFDF6
:1058D0002269064642B192F82F0098F82F104FF037
:1058E000010988420BD907E040462146FEF7ACFE8D
:1058F0004FF001095AE000BF1046FFF709FC0422EF
:10590000002320464146FEF727FF3046FAF778FD90
:10591000FEF7F6F8DBF80000002852D14020FAF735
:1059200061FD064640462146FEF7FAFE98F82F1024
:1059300098F83000814206D041F2F81188F82F0023
:10594000C2F200410870676887B138462146276176
:1059500084F81490FEF778FE002200232046394692
:10596000CDF800A0FFF708F804E000BFC4F810A0CD
:1059700084F814A00322002328464146FEF7ECFEDB
:105980003046FAF73DFDFEF7BBF84020FAF72AFD56
:105990002269064632B192F82F0098F82F108842FB
:1059A000AAD8ACE740462146FEF74EFEC4F8108068
:1059B000304684F81490FAF723FDDBF80000002845
:1059C000ACD04020FAF70EFD41F2DC41C2F20041BA
:1059D0000E68FAF715FD41F2B855DBF80070C2F217
:1059E000004528682E60301A30D0394677B300BFA2
:1059F0004B691E1ACA6838BF5646C31A38BF534689
:105A00004E6123D912B35169CE1AD06838BF5646B9
:105A1000591A38BF5146566118D9B8B143695E1A50
:105A2000C26838BF5646CB1A38BF534646610DD9B7
:105A300062B15069C61AD16838BF5646181A38BFC5
:105A40005046566102D90029D2D100BF4FF0000064
:105A50004FF003094FF004064FB9F4E6C7E903AA73
:105A6000C7F814A087F82290DBF8007027B3786994
:105A700000287FF4E7AE7A6887F8226052B1B968EF
:105A80003846904797F8220041F2B855C2F20045D7
:105A90000428E9D12968384600F012F8388C022829
:105AA000DCD1022087F82200F8697861296838463D
:105AB000FFF72EFED8E700BF0020C4E6000000007C
:105AC000F0B581B002690446C0686AB1D06020B107
:105AD000026161694269114441610020C4E9030027
