:020000040800F2
:10000000A09F0024A9040008B1040008B30400085C
:10001000B5040008B7040008B90400080000000097
:10002000000000000000000000000000A503000820
:10003000BD040008000000007704000887040008E1
:10004000C3040008C3040008C3040008C304000874
:10005000C3040008C3040008C3040008C304000864
:10006000C3040008C3040008C3040008E91300081F
:10007000F9130008C3040008C3040008C3040008FF
:10008000C3040008C3040008C3040008C304000834
:10009000C3040008C3040008C3040008C304000824
:1000A000C3040008C3040008C3040008C304000814
:1000B000C304000859960008C3040008C3040008DC
:1000C000C3040008C3040008C3040008C3040008F4
:1000D000C3040008C3040008C304000871A5000895
:1000E000C3040008C304000800000000C3040008A3
:1000F000C3040008C3040008C3040008C3040008C4
:10010000C3040008C3040008C3040008C3040008B3
:10011000C3040008C3040008C3040008C3040008A3
:10012000C3040008C3040008C3040008C304000893
:10013000C3040008C3040008C3040008C304000883
:1001400000000000000000000000000000000000AF
:10015000C3040008C3040008C3040008C304000863
:10016000C3040008C3040008C3040008C304000853
:10017000C3040008C3040008C30400080000000012
:10018000C3040008C3040008C3040008C304000833
:10019000C3040008C3040008C3040008C304000823
:1001A000C3040008C3040008C3040008C304000813
:1001B000C3040008C3040008C3040008C304000803
:1001C000C3040008C3040008C3040008C3040008F3
:1001D000C3040008C3040008C3040008C3040008E3
:1001E000C3040008C3040008C3040008C3040008D3
:1001F000C3040008C3040008C3040008C3040008C3
:10020000C3040008C3040008C3040008C3040008B2
:10021000C3040008C3040008C3040008C3040008A2
:10022000C3040008C3040008C30400080000000061
:10023000C3040008C304000800000000C304000851
:10024000C3040008C9130008D9130008C304000838
:10025000C3040008C3040008C3040008C304000862
:10026000C3040008C3040008C3040008C304000852
:10027000C3040008C3040008C98800080000000087
:10028000C3040008C3040008C30400080000000001
:1002900000000000C304000800F002F800F06EF84F
:1002A0000AA090E8000C82448344AAF10107DA45D1
:1002B00001D100F063F8AFF2090EBAE80F0013F0B5
:1002C000010F18BFFB1A43F00103184784B901005E
:1002D000B4B901000A4410F8014B14F00F0508BF2F
:1002E00010F8015B240908BF10F8014B6D1E05D002
:1002F00010F8013B6D1E01F8013BF9D1641E03D0DB
:10030000641E01F8015BFBD19142E4D37047000009
:10031000103A24BF78C878C1FAD8520724BF30C831
:1003200030C144BF04680C60704700000023002403
:1003300000250026103A28BF78C1FBD8520728BFF5
:1003400030C148BF0B607047642900F0C98175292E
:1003500000F0C681732900F06685002070471FB544
:100360000CF0CCFE00F0DCFF0400002000210CF0BB
:10037000AFFE401C60601FBD10B510BD00F0ABFFAC
:10038000114603B40AF000FA03BCFFF7E8FF0AF0D5
:100390000FFC00F0CAFF03B4FFF7EEFF03BC0AF046
:1003A000F7F900001EF0040F0CBFEFF30880EFF325
:1003B0000980816911F8021C00294ED101B590E82D
:1003C0000F10E047BDE800508CE80300324B93E883
:1003D0000600914208BF70471A6041B91EF0100F25
:1003E0002CD12E4B186820F00100186026E0ACF1EB
:1003F000200C1EF0100F08BFACF1400C81F822E079
:10040000C1F838C006B408460BF0F6FB06BC50B97C
:100410000C464FF001000AF07FFE214B5A681A602B
:1004200094F822E0DAE7D1F838C091F822E01EF023
:10043000100F08BFACEC108A8CE8F00F906B92F8AC
:10044000221061F0FF0E1EF0100F08BFB0EC108AF2
:10045000B0E8F00F80F309887047124A1368994298
:10046000FAD801B552F821C00FC8E047BDE80050E6
:10047000CCF80000704701B50BF0CAF8BDE80140A8
:10048000EFF3098CA2E701B50BF042FCBDE8014097
:10049000EFF3098C9AE700BF2000002434EF00E05E
:1004A000200000246CB7010809488047094800472C
:1004B000FEE7FEE7FEE7FEE7FEE7FEE7FEE7FEE714
:1004C000FEE7FEE704480549054A064B7047000071
:1004D0007995000899020008A08F0024A09F0024AD
:1004E000A0970024A097002453EA020C00F0698032
:1004F0002DE9F04B4FF00006002B1FBFB3FA83F538
:1005000003FA05F424FA05F65E4012BF1643B2FA68
:1005100082F502FA05F4C5F120051EBF22FA05FC9A
:1005200044EA0C04203556EA044C4FEA144418BF40
:10053000641C4FF000084FF00009904271EB030C6F
:1005400039D3002919BFB1FA81F701FA07F6B0FAD9
:1005500080F700FA07F6C7F120071EBF20FA07FC54
:1005600046EA0C062037B6FBF4FCA7EB0507103F64
:1005700007F01F0BCBF120062CFA06F60CFA0BFB4A
:1005800044BFB3460026202FA4BF5E464FF0000BA9
:100590005BEA060C08BF4FF0010B19EB0B0948EBA7
:1005A0000608ABFB027C06FB02CC0BFB03CCC01B9A
:1005B00071EB0C01C1E70B46024641464846BDE8D7
:1005C000F08B13B5084318BF4FF0FF300146AFF36F
:1005D0000080BDE81C4070470FB4044910B503AA61
:1005E000029800F025FC10BC5DF814FB20010024EB
:1005F0000FB41CB5084B06AA7B44694600900598C9
:1006000000F0E7FB04460020694600F0F5FB2046B9
:100610001CBC5DF814FB0000FD07000070B504462B
:1006200085690068C10601D5302600E02026C00794
:1006300007D070BDD4E9012130469047206A401CA4
:1006400020626D1EF6D570BD70B5044685690078D0
:10065000C00707D170BDD4E9012120209047206A4E
:10066000401C20626D1EF6D570BD09684A0501D593
:1006700040B27047C905FCD500B2704709684A0509
:1006800001D5C0B27047C905FCD580B2704770B5BE
:100690000C460546012A05D02878800600D5EA696F
:1006A000002302E0012305E05B1C934202D2E05CE0
:1006B0000028F9D1A869E618C01AA861286A184468
:1006C00028622846FFF7AAFF04E0D5E9012114F8C3
:1006D000010B9047B442F8D32846FFF7B5FF70BD31
:1006E0002DE9F0410646002410687529314616A50B
:1006F00010D0FFF7BAFF002802DA404213A507E046
:1007000031688A0701D512A502E0490704D511A571
:10071000012401E0FFF7B2FF00210A2206F12407BD
:1007200009E0B0FBF2FCB0FBF2F302FB1C0030303E
:1007300078541846491C0028F3D123462A463046EF
:10074000BDE8F04100F0E7BA000000002D00000015
:100750002B000000200000002DE9F0474FF0000AB8
:1007600089460446C0F820A02046E1688847002852
:1007700076D0252806D0D4E901219047206A401C74
:100780002062F1E7E168204600268847C4F81CA0F3
:1007900005460027C4F818A02A2D09D028460CF0D9
:1007A0008FFC38B304EB8708303DC8F8185019E0C7
:1007B00059F8041B204604EB87029161E1688847E1
:1007C000012F054618D1E069002820DA26F020061E
:1007D0001DE0D8F8180000EB800005EB4000303831
:1007E000C8F818002046E168884705460CF068FC08
:1007F0000028EED1012F0AD02E2D08D12046E16825
:1008000088477F1C0546022F46F02006C4DBA069FE
:10081000002803DA404246F00106A061F00701D04B
:1008200026F010066C2D0AD0682D08D04C2D39D03A
:100830006A2D35D0742D35D07A2D33D016E0E1688D
:100840002F4620468847B84205460AD16C2F27D04C
:100850004FF48060E168064320468847054605E07E
:1008600027E06C2F1AD04FF4807006430DB3A5F12A
:100870004100192802D8203546F400664A46294628
:10088000204626604E46FFF75FFD80B101280BD061
:10089000F61D26F0070000F1080965E74020E4E7AF
:1008A0008020D7E70020D5E706F104095CE7284659
:1008B00061E7206ABDE8F0870FB400B58DB010A9DC
:1008C000099000910B904FF0FF300A9000200C909F
:1008D000064878440690064878446A4607900F997F
:1008E00009A800F0CBFA0DB05DF814FBC7050000B5
:1008F000DF0500002DE9FF5F1D464FF0FF3B9146ED
:100900004FF000085F46D5E90146A96901987F1CB0
:100910008847296A824688470028F6D1BAF1FF3F06
:100920000CD0002E24F4C06419DD600614D5BAF191
:100930002B0F09D0BAF12D0F0ED103E0584604B0A9
:10094000BDE8F09F44F48064A96901987F1C884742
:10095000761E8246002E02DDBAF1300F03D0B9F1C7
:10096000000F26D032E0A969761E01987F1C44F45E
:1009700000748847002E824605DDBAF1780F06D054
:10098000BAF1580F03D0B9F1000F10D01EE0B9F141
:10099000000F02D0B9F1100F18D1A969761E019885
:1009A0007F1C24F4007488478246102002E008204F
:1009B00000E00A20814609E0A96908FB0908761EC3
:1009C00001987F1C44F4007488478246002E05DDA0
:1009D0004946504600F03EFA0028EDDAE9690198F0
:1009E0008847A00502D46FF00100A8E7E00725D1F1
:1009F000600613D5600502D5C8F1000000E040464E
:100A000029680A1D2A600968220501D5087015E0C9
:100A1000220701D5088011E008600FE02868011D59
:100A200029600068210502D580F8008006E02107D2
:100A300002D5A0F8008001E0C0F8008038467EE7CB
:100A40002DE9FF4F4FF000089A461446C14646462E
:100A500083B0D2E901B7CDF80080CDF80480916968
:100A600004988847109905465AEA010005D009E024
:100A7000A1690498761C88470546216A284688475C
:100A80000028F5D1681C03D05FEACB7005D029E0BF
:100A90004FF0FF3007B0BDE8F08F2068011D2160E6
:100AA000D0F800801EE002A86A46E9B200F016FA0B
:100AB000411C07D0801C09D04FF000095FEACB70C1
:100AC00007D009E0E169049888473DE04FF001094B
:100AD00003E0029948F8041B7F1EA1690498761C64
:100AE00088470546002F1ADD681C18D0BAF1000FA0
:100AF0000DD0E81705EBD060421120F01F005AF826
:100B000022102A1A012090400142CCD107E010980F
:100B10000028C8D12846216A88470028C3D0E16947
:100B200004988847B9F1000F0ED1109830B9002E03
:100B300004DD5FEACB7001D1C8F80000A068B842BC
:100B400002DD109818B117B16FF00100A2E730462E
:100B5000A0E7000010B5044603E009F01DFF401CAB
:100B600009D014F8010B05490028F6D1BDE8104062
:100B70000A2009F011BF4FF0FF3010BD2001002402
:100B8000032A40F2308010F0030C00F0158011F8B9
:100B9000013BBCF1020F624498BF11F801CB00F891
:100BA000013B38BF11F8013BA2F1040298BF00F8E5
:100BB00001CB38BF00F8013B11F0030300F02580A2
:100BC000083AC0F0088051F8043B083A51F804CBC9
:100BD000A0E80810F5E7121D5CBF51F8043B40F88F
:100BE000043BAFF30080D20724BF11F8013B11F89A
:100BF00001CB48BF11F8012B24BF00F8013B00F8DE
:100C000001CB48BF00F8012B704710B5203AC0F067
:100C10000B80B1E81850A0E81850B1E81850A0E8CF
:100C20001850203ABFF4F5AF5FEA027C24BFB1E868
:100C30001850A0E8185044BF18C918C0BDE81040AB
:100C40005FEA827C24BF51F8043B40F8043B08BFB4
:100C50007047D20728BF31F8023B48BF11F8012B7B
:100C600028BF20F8023B48BF00F8012B704702F074
:100C7000FF0343EA032242EA024200F024B84FF0A5
:100C800000020429C0F0128010F0030C00F01B8059
:100C9000CCF1040CBCF1020F18BF00F8012BA8BF67
:100CA00020F8022BA1EB0C0100F00DB85FEAC17C2B
:100CB00024BF00F8012B00F8012B48BF00F8012BDE
:100CC00070474FF0000200B513469446964620390F
:100CD00022BFA0E80C50A0E80C50B1F12001BFF4F5
:100CE000F7AF090728BFA0E80C5048BF0CC05DF85B
:100CF00004EB890028BF40F8042B08BF704748BFA9
:100D000020F8022B11F0804F18BF00F8012B70471C
:100D10007047704770472DE9F0470D469946924657
:100D2000044600F124080168880604D5E06921F032
:100D30001001216000E00120A84201DD471B00E016
:100D40000027A1697A1902EB0900081AA06120782E
:100D5000C00602D42046FFF761FC002608E0D4E973
:100D600001211AF806009047206A401C761C206278
:100D70004E45F4DB2078C0060AD52046FFF74EFC2E
:100D800006E0D4E9012130209047206A401C20620F
:100D9000381EA7F10107F4DC07E0D4E9012118F8B7
:100DA00005009047206A401C2062281EA5F101051D
:100DB000F3DC2046FFF748FC2078000602D502202D
:100DC000BDE8F0870120FBE701694A1C0261087851
:100DD000704700B58FB0CDE901310021059105497B
:100DE0007944CDE9031011466846FFF7B5FC0FB012
:100DF00000BD0000E5FFFFFF0A6802F8010B0A6072
:100E0000704710B5436913B1AFF3008001E0FFF7FD
:100E10003EFC012010BD127800F124010A7000226E
:100E20004A700122EDE711684FF0FF32E9E7000058
:100E3000074B70B50D467B44FFF7CBFF04462846B1
:100E400000F03AFA10B14FF0FF3070BD204670BD8F
:100E50005F9B00003A2800D2303820F02002412A5F
:100E600001D3A2F13700884201D34FF0FF30704721
:100E7000026811441378016018467047D160054933
:100E8000794451610449794411620021116111468C
:100E900000F058B8EDFFFFFFA7000000426842B124
:100EA000016811F8013B23B1521EC0E90012184637
:100EB00070470121C160881E704742685AB1C368FB
:100EC000016843B983688B4205D0491E521CC0E9B2
:100ED0000012002070474FF0FF3070472DE9F041BD
:100EE00016460C46054600F01BF8036893F801010E
:100EF000012805D0185D80B101202C60BDE8F0818B
:100F0000D3F803013246214603F20313C7182846DB
:100F1000BC46BDE8F041012360474FF0FF30EDE7EC
:100F200010B500F0FDF9001D10BD00BFA5C1000007
:100F300010B50446FFF7F4FF0068005D00F0010003
:100F400010BD00002DE9F34F4FF0000A0C46564645
:100F50008DB001200C9001F10C000B9062690B9890
:100F600001219047051E2DD0252D2CD0216A8847C0
:100F7000C0B162690B9801219047216A8847002817
:100F8000F7D16269411E0B98904700E0761CA16979
:100F90000D988847216A88470028F7D1E1690D98A4
:100FA0008847DBE7A1690D988847A842074601D129
:100FB000761CD3E7E1690D9888477F1C02D1BAF10E
:100FC000000F6FD06BE162690B9800273D463946F0
:100FD00090472A2804D162690B9801219047012586
:100FE000DFF8D08262690B9801219047A0F13001AF
:100FF0000A290AD24745E5DC07EB870100EB4107E8
:10100000303FDFD445F01005ECE7E90601D46FF07E
:1010100000476C280AD04C2814D0682815D06A28BC
:101020000DD074281CD07A281AD01DE062690B9864
:10103000012190476C2802D045F0040514E045F0EA
:1010400002050DE045F020050AE062690B980121D8
:101050009047682802D045F0080505E045F4006592
:1010600062690B9801219047C4E9015765283DD07A
:1010700019DC58287AD00CDC452837D004DC252828
:1010800026D041289ED131E046282FD0472899D13B
:101090002CE05B2877D0612828D063287CD0642896
:1010A00023D15AE0F6E06F2848D008DC66281DD02E
:1010B00067281BD0692821D06E2816D127E0702818
:1010C00045D0732868D0752847D078280DD14DE0D9
:1010D000A1690D988847252805463FF469AFE16965
:1010E0000D9888476D1C3FF46AAFD8E00D992346F0
:1010F0006A466FF00100AFF30080C5E045F04000A4
:1011000023464FF000026060A80736D43EE0E807AF
:101110007FF447AF2068011D21600068290501D5D3
:1011200006701BE7290701D5068017E7A90703D535
:10113000F117C0E9006111E706600FE745F04000D4
:1011400023464FF008026060A80716D41EE040F660
:101150000E0125EA0100606016E045F040002346DC
:101160004FF00A026060A80707D40FE045F0400086
:101170006060A80708D5234610220D996FF0010082
:10118000AFF3008080E007E0102223460D996FF056
:101190000100FFF7AFFB77E04FF0000963284F46EF
:1011A000C8464B46CB4602D05B2806D038E0E8065E
:1011B00001D40120A060012732E06269D4F80CB0AC
:1011C0000B98012190475E2807D14FF0010949464D
:1011D0006269D4F80CB00B989047216939B90021A5
:1011E0000A4603AB43F82120491C0829FADBD8B38F
:1011F000216949B308F1010862690B980121904700
:101200005D28F4D1B9F1000F09D0002003A951F8ED
:101210002020D24341F82020401C0828F7DB03ABF4
:101220002069002820794FEA40701ED05B46224694
:10123000CDF80080CDE901970D9900286FF00100ED
:1012400020DAAFF300801FE0C11703AA00EBD161E1
:101250004B1121F01F0102EB8302411A1368012098
:10126000884003431360C7E719E00D992246002820
:101270006FF00100009702DAFFF7E2FB04E0AFF342
:10128000008001E0AFF3008000280ADA401C06D19C
:101290000C9820B14FF0FF300FB0BDE8F08F5046F2
:1012A000FAE7E90701D10AF1010A064400200C908F
:1012B00054E60000CCCCCC0C70B5044600F14C05D3
:1012C000284609F02DFA207B00F08004284609F01A
:1012D0004FFA204670BD754600F030F8AE46050066
:1012E0006946534620F00700854618B020B5FFF741
:1012F000E9F8BDE820404FF000064FF000074FF03E
:1013000000084FF0000BAC46ACE8C009ACE8C009DF
:10131000ACE8C009ACE8C00921F007018D46704770
:1013200010B500F00BF8203010BD10B50446AFF337
:1013300000802046BDE81040FFF72DB800487047F8
:10134000B80000240000000030B44FF0013C50F819
:10135000042BCCFA52F451F8043BD51A20D1FCB935
:1013600050F8042BCCFA52F451F8043BD51A17D19B
:10137000B4B950F8042BCCFA52F451F8043BD51A06
:101380000ED16CB950F8042BCCFA52F451F8043B4E
:10139000D51A05D1002CDAD030BC4FF000007047D0
:1013A00029BAB1FA81F111F01801D1F1200084407D
:1013B000F2D1CA40CB4012F0FF0213F0FF0330BC61
:1013C000D01A70470000000080B540F27410C2F2DD
:1013D000004001F05DF880BD80B540F2F010C2F22F
:1013E000004001F055F880BD80B540F26C20C2F29B
:1013F000004001F04DF880BD80B540F2E820C2F217
:10140000004001F045F880BD40F20F420168C4F28F
:101410000202914210DC6F22C4F20202914220DCEF
:101420003F22C4F20202914236DC1022C4F20202D0
:10143000914254D028224EE040F26F42C4F20202A0
:1014400091421ADC40F23F42C4F2020291422ADC8D
:1014500040F21042C4F20202914240D040F22842CF
:1014600039E09F22C4F20202914225DC7022C4F2CC
:101470000202914233D088222DE040F29F42C4F212
:10148000020291421FDC40F27042C4F20202914219
:1014900025D040F288421EE04022C4F2020291426E
:1014A0001DD0582217E040F24042C4F2020291429D
:1014B00015D040F258420EE0A022C4F2020291423E
:1014C0000DD0B82207E040F2B842C4F202029142C5
:1014D00005D040F2A042C4F2020291421AD1D0F8E3
:1014E00000C06FF00F024AF6AB2352FA8CF2CAF634
:1014F000AA23A2FB033109A35F2AC1F302115B5C9B
:1015000040F2FF312CEA0101036688BF0431C16556
:1015100008467047016821F0FF01F8E70006101641
:10152000000610160000000010B545F25742016891
:10153000C5F6020291420EDC45F22F42C5F60202C8
:10154000914217DC45F20842C5F60202914226D0CC
:1015500045F21C421FE045F27F42C5F6020291426D
:1015600011DC45F25842C5F60202914217D045F20D
:101570006C4210E045F23042C5F6020291420ED0B4
:1015800045F2444207E045F29442C5F60202914218
:1015900005D045F28042C5F60202914219D1017888
:1015A0004CF6CD42CCF6CC4245F600030839C5F6E0
:1015B0000203A1FB021203F18001120903EB820373
:1015C00002F01F0243660123816603FA02F1C1663D
:1015D00010BD02784AF6AB23CAF6AA234FF0080ED4
:1015E000103AA2FB032340F20F42C4F202024FEA78
:1015F000131C914202F1AA04624688BF0EEB13123B
:1016000040F60003A142C4F2020303F1800128BFA7
:101610006246D3E70000000010B50279511E072989
:1016200088BF10BD45F2574C45F6FC0E0368C5F661
:10163000020CC5F6020E63450EF1440C0EDC45F2B9
:101640002F44C5F60204A34217DC45F20844C5F650
:101650000204A34226D045F21C441FE045F27F4419
:10166000C5F60204A34211DC45F25844C5F6020453
:10167000A34217D045F26C4410E045F23044C5F661
:101680000204A3420ED045F2444407E045F28044F0
:10169000C5F60204A34205D045F29444C5F60204FF
:1016A000A34209D10EEB820202670122C0F874C086
:1016B00002FA01F1816710BD40F6FC0EC4F2020E81
:1016C0000EF1440CEEE700008169B1F5005F07D030
:1016D00079B9816A022912D0012916D079B112E0B4
:1016E000816A03290FD8DFE801F0020A0210012005
:1016F0007047816A03293CBF0120704703D1C06A4B
:10170000C0F30060704700207047C06AA0F1C0704D
:10171000B0FA80F04009704770B540F26F44D0F8DD
:1017200000E0C4F20204D0F85CC0A64519DC9F2595
:10173000C4F20205AE4531DC5725C4F20205AE45C0
:1017400056DC1025C4F20205AE4500F09280282533
:10175000C4F20205AE4500F08C804025C4F20205BB
:1017600084E045F22F45C5F60205AE452BDC40F27C
:10177000B745C4F20205AE4548DC40F27045C4F2FC
:101780000205AE4575D040F28845C4F20205AE456B
:101790006FD040F2A045C4F2020567E040F2274551
:1017A000C4F20205AE4540DCA025C4F20205AE45F8
:1017B0005FD0B825C4F20205AE455AD040F21045BC
:1017C000C4F2020552E045F26B45C5F60205AE458E
:1017D0003CDC45F23045C5F60205AE4549D045F240
:1017E0004445C5F60205AE4543D045F258453BE0B9
:1017F0005825C4F20205AE453BD07025C4F202055F
:10180000AE4536D08825C4F202052FE040F2B84537
:10181000C4F20205AE452CD045F20845C5F60205D6
:10182000AE4526D045F21C451EE040F22845C4F2E4
:101830000205AE451DD040F24045C4F20205AE455A
:1018400017D040F25845C4F202050FE045F26C454E
:10185000C5F60205AE450CD045F29445C5F6020525
:10186000AE4506D045F28045C5F60205AE4540F0CE
:10187000C980856E066F002EC66E6E601CBFD0E9F3
:101880001D566E60A64515DC9F24C4F20204A645D1
:101890002BDC5724C4F20204A6454EDC1024C4F20B
:1018A0000204A64576D02824C4F20204A64571D0CD
:1018B00040246BE045F22F44C5F60204A64527DC20
:1018C00040F2B744C4F20204A64542DC40F2704440
:1018D000C4F20204A6455DD040F28844C4F202047A
:1018E000A64557D040F2A04450E040F22744C4F24D
:1018F0000204A6453CDCA024C4F20204A64549D05B
:10190000B824C4F20204A64544D040F210443DE09D
:1019100045F26B44C5F60204A6454FDC45F230445F
:10192000C5F60204A6455BD045F24444C5F6020460
:10193000A64555D045F258444EE05824C4F202045E
:10194000A64527D07024C4F20204A64522D08824DC
:101950001CE040F2B844C4F20204A6451AD045F295
:101960000844C5F60204A6453AD045F21C4433E0CB
:1019700040F22844C4F20204A6450BD040F2404491
:10198000C4F20204A64505D040F25844C4F2020451
:10199000A64537D104683F258668006E402E00F0CA
:1019A0001F0005FA00F0CCF80800206820F4802021
:1019B0002060636021D0A160E26070BD45F26C449C
:1019C000C5F60204A6450BD045F28044C5F60204D4
:1019D000A64505D045F29444C5F60204A64511D1AA
:1019E00004680125066E806806F01F06402805FA87
:1019F00006F6CCF80460636002D1A260E16070BDBD
:101A0000A160E26070BD000080B582B04DF2C01CE4
:101A1000F0225223C0F6000CCDF800C006F0F4FE10
:101A200002B080BD00000000EFF3108072B600BF6E
:101A3000FEE700000000000070470000000000000A
:101A40007047000000000000704700000000000028
:101A50007047000000000000704700000000000018
:101A60007047000000000000704700000000000008
:101A700070470000000000007047000000000000F8
:101A800070470000000000007047000000000000E8
:101A900070470000000000007047000000000000D8
:101AA00070470000000000007047000000000000C8
:101AB00070470000000000007047000000000000B8
:101AC00070470000000000007047000000000000A8
:101AD0007047000000000000704700000000000098
:101AE0007047000000000000704700000000000088
:101AF0007047000000000000704700000000000078
:101B00007047000000000000704700000000000067
:101B10007047000000000000704700000000000057
:101B20007047000000000000704700000000000047
:101B30007047000000000000704700000000000037
:101B40007047000000000000704700000000000027
:101B50007047000000000000704700000000000017
:101B60007047000000000000704700000000000007
:101B700070470000000000007047000000000000F7
:101B800070470000000000007047000000000000E7
:101B900070470000000000007047000000000000D7
:101BA00070470000000000007047000000000000C7
:101BB00070470000000000007047000000000000B7
:101BC00070470000000000007047000000000000A7
:101BD0007047000000000000704700000000000097
:101BE0007047000000000000704700000000000087
:101BF0007047000000000000704700000000000077
:101C00007047000000000000704700000000000066
:101C10007047000000000000704700000000000056
:101C20002DE9F041044602F0DBF9FCB10546A06B5A
:101C300002281ED140F20F472068C4F2020740F28A
:101C40006F48B842C4F202081ADC6F21C4F20201E4
:101C5000884226DC3F21C4F2020188423CDC10218C
:101C6000C4F2020188425BD0282154E00120BDE883
:101C7000F0818020A065002060630120BDE8F08134
:101C800040451ADC40F23F41C4F2020188422ADC9E
:101C900040F21041C4F20201884241D040F2284192
:101CA00039E09F21C4F20201884225DC7021C4F290
:101CB0000201884234D088212DE040F29F41C4F2D5
:101CC000020188421FDC40F27041C4F202018842E6
:101CD00026D040F288411EE04021C4F20201884231
:101CE0001ED0582117E040F24041C4F20201884260
:101CF00016D040F258410EE0A021C4F20201884201
:101D00000ED0B82107E040F2B841C4F20201884287
:101D100006D040F2A041C4F20201884240F0EC81BA
:101D20002668316821F01E02314641F8142B6FF00D
:101D300080020B68404502EA03020A6019DC9F2119
:101D4000C4F20201884231DC5721C4F20201884208
:101D500056DC1021C4F20201884200F09180282153
:101D6000C4F20201884200F08B804021C4F20201DB
:101D700084E045F22F41C5F6020188422BDC40F297
:101D8000B741C4F20201884248DC40F27041C4F21B
:101D90000201884274D040F28841C4F202018842B4
:101DA0006ED040F2A041C4F2020167E040F2274148
:101DB000C4F20201884240DCA021C4F20201884240
:101DC0005ED0B821C4F20201884259D040F21041DD
:101DD000C4F2020152E045F26B41C5F602018842AD
:101DE0003CDC45F23041C5F60201884248D045F25C
:101DF0004441C5F60201884242D045F258413BE0D9
:101E00005821C4F2020188423AD07021C4F2020182
:101E1000884235D08821C4F202012FE040F2B84157
:101E2000C4F2020188422BD045F20841C5F60201F6
:101E3000884225D045F21C411EE040F22841C4F200
:101E4000020188421CD040F24041C4F202018842A3
:101E500016D040F25841C4F202010FE045F26C4145
:101E6000C5F6020188420BD045F29441C5F6020145
:101E7000884205D045F28041C5F60201884269D109
:101E8000616EB8420A6822F480720A6010DC6F2129
:101E9000C4F2020188421CDC3F21C4F202018842E4
:101EA00032DC1021C4F20201884252D028214AE0DB
:101EB00040451ADC40F23F41C4F2020188422ADC6C
:101EC00040F21041C4F20201884242D040F228415F
:101ED00039E09F21C4F20201884225DC7021C4F25E
:101EE0000201884235D088212DE040F29F41C4F2A2
:101EF000020188421FDC40F27041C4F202018842B4
:101F000027D040F288411EE04021C4F202018842FD
:101F10001FD0582117E040F24041C4F2020188422C
:101F200017D040F258410EE0A021C4F202018842CD
:101F30000FD0B82107E040F2B841C4F20201884254
:101F400007D040F2A041C4F20201884208BF2068D5
:101F500000E02068016821F0010101603068C007DD
:101F60000DD002F03DF8401B0628F7D32020A065D5
:101F7000002060630320A0630120BDE8F081206899
:101F8000B84210DC6F21C4F2020188421CDC3F2100
:101F9000C4F20201884232DC1021C4F202018842FC
:101FA00050D028214AE040451ADC40F23F41C4F2BB
:101FB000020188422ADC40F21041C4F20201884248
:101FC00040D040F2284139E09F21C4F2020188420A
:101FD00025DC7021C4F20201884233D088212DE033
:101FE00040F29F41C4F2020188421FDC40F270417E
:101FF000C4F20201884225D040F288411EE040210F
:10200000C4F2020188421DD0582117E040F240413D
:10201000C4F20201884215D040F258410EE0A021DE
:10202000C4F2020188420DD0B82107E040F2B84165
:10203000C4F20201884205D040F2A041C4F202017C
:1020400088425ED1D4E9171202F01F023F2303FA3F
:1020500002F28A6040455EDC9F21C4F202018842A0
:1020600014DC5721C4F20201884226DC1021C4F29C
:102070000201884200F0A2802821C4F202018842B5
:1020800000F09C804021C4F2020195E040F227411B
:10209000C4F2020188421EDCA021C4F2020188427F
:1020A00000F08C80B821C4F20201884200F08680E2
:1020B00040F21041C4F202017EE05821C4F2020154
:1020C00088427BD07021C4F20201884276D08821F8
:1020D000C4F2020170E040F22841C4F202018842D9
:1020E0006CD040F24041C4F20201884266D040F216
:1020F0005841C4F202015FE021686FF00E020E4603
:1021000017E6D4E9171202F01F02012303FA02F2C4
:102110004A604045A0DD45F22F41C5F602018842E4
:1021200016DC40F2B741C4F20201884225DC40F2DD
:102130007041C4F20201884240D040F28841C4F2AA
:10214000020188423AD040F2A041C4F2020133E0D9
:1021500045F26B41C5F6020188421DDC45F2304173
:10216000C5F60201884229D045F24441C5F6020174
:10217000884223D045F258411CE040F2B841C4F2F5
:10218000020188421AD045F20841C5F60201884290
:1021900014D045F21C410DE045F26C41C5F6020138
:1021A00088420BD045F29441C5F60201884205D021
:1021B00045F28041C5F6020188420BD1A16EE26E64
:1021C000206F4A6030B1016821F480710160D4E968
:1021D0001D014160002060630121A163BDE8F08121
:1021E00080B5D0B1816B022919D140F20F4201684C
:1021F000C4F20202914216DC6F23C4F20203994238
:1022000026DC3F23C4F2020399423CDC1023C4F2D3
:10221000020399425AD0282354E0012080BD802136
:102220008165012080BD40F26F43C4F202039942F0
:102230001ADC40F23F43C4F2020399422ADC40F226
:102240001043C4F20203994240D040F2284339E0DF
:102250009F23C4F20203994225DC7023C4F20203D7
:10226000994233D088232DE040F29F43C4F2020309
:1022700099421FDC40F27043C4F20203994225D018
:1022800040F288431EE04023C4F2020399421DD06D
:10229000582317E040F24043C4F20203994215D09C
:1022A00040F258430EE0A023C4F2020399420DD03D
:1022B000B82307E040F2B843C4F20203994205D0C4
:1022C00040F2A043C4F2020399426FD191424FF011
:1022D0000402826310DC6F22C4F20202914220DC0D
:1022E0003F22C4F20202914236DC1022C4F2020202
:1022F000914254D028224EE040F26F42C4F20202D2
:1023000091421ADC40F23F42C4F2020291422ADCBE
:1023100040F21042C4F20202914240D040F2284200
:1023200039E09F22C4F20202914225DC7022C4F2FD
:102330000202914233D088222DE040F29F42C4F243
:10234000020291421FDC40F27042C4F2020291424A
:1023500025D040F288421EE04022C4F2020291429F
:102360001DD0582217E040F24042C4F202029142CE
:1023700015D040F258420EE0A022C4F2020291426F
:102380000DD0B82207E040F2B842C4F202029142F6
:1023900005D040F2A042C4F20202914224D100686A
:1023A000016821F001010160002080BD026813680E
:1023B00023F00E03136045F25742C5F60202914224
:1023C0000A6822F001020A6014DC45F22F42C5F6C9
:1023D000020291421DDC45F20842C5F6020291421A
:1023E0002CD045F21C4225E0086820F0010008606E
:1023F000002080BD45F27F42C5F60202914211DC09
:1024000045F25842C5F60202914217D045F26C429D
:1024100010E045F23042C5F6020291420ED045F27C
:10242000444207E045F29442C5F60202914205D0CB
:1024300045F28042C5F6020291421AD1D0E9191C38
:10244000D0E917E30A6822F480720A6003F01F01E2
:10245000012202FA01F1CEF80410C16ECCF804108A
:10246000016F31B10A6822F480720A60D0E91D124E
:102470004A600021416301228263426D0AB19047A4
:102480000021084680BD0000806D704700000000FC
:102490002DE9F04381B00021009140F2040104468F
:1024A000C2F2004140F26F49E56D2668086848F2C3
:1024B000B511C1F64E31C4F20209A0FB01084E4528
:1024C0002F682A6815DC9F20C4F2020086422BDCAC
:1024D0005720C4F2020086424FDC1020C4F20200F2
:1024E000864278D02820C4F20200864273D0402071
:1024F0006CE045F22F40C5F60200864227DC40F230
:10250000B740C4F20200864243DC40F27040C4F29D
:10251000020086425FD040F28840C4F20200864248
:1025200059D040F2A04051E040F22740C4F20200EE
:1025300086423DDCA020C4F2020086424BD0B82087
:10254000C4F20200864246D040F210403EE045F21E
:102550006B40C5F60200864274DC45F23040C5F699
:102560000200864200F0818045F24440C5F6020038
:1025700086427AD045F2584072E05820C4F20200F8
:10258000864228D07020C4F20200864223D08820E0
:102590001CE040F2B840C4F2020086421BD045F273
:1025A0000840C5F6020086425FD045F21C4057E065
:1025B00040F22840C4F2020086420CD040F2404073
:1025C000C4F20200864206D040F25840C4F2020033
:1025D000864240F0E384206E00F01F01082000FADC
:1025E00001F23A4200F0138140F20F40C4F20200BF
:1025F000864213DC6F20C4F20200864200F38E8014
:102600003F20C4F20200864200F3CE801020C4F2C4
:102610000200864200F0EC802820E4E04E4500F302
:10262000898040F23F40C4F20200864200F3C3803A
:1026300040F21040C4F20200864200F0D98040F21D
:102640002840D0E045F26C40C5F6020086420CD02E
:1026500045F28040C5F60200864206D045F294401D
:10266000C5F60200864240F099842068216E036816
:1026700001F01F01580727D50420884010EA0207FF
:1026800022D01904686000F18780980600F18284E6
:1026900040F20F40C4F20200864200F3A3836F2091
:1026A000C4F20200864200F3DE833F20C4F202003F
:1026B000864200F346841020C4F20200864200F0F5
:1026C0006384282000F05CBC980742D50220884033
:1026D00010EA02073DD01904686000F107839806EC
:1026E00000F18C8440F20F40C4F20200864200F3F5
:1026F000A7836F20C4F20200864200F307843F20C4
:10270000C4F20200864200F34C841020C4F202009E
:10271000864200F06984282000F062BC9F20C4F249
:102720000200864250DC7020C4F2020086425FD074
:10273000882058E040F29F40C4F2020086424ADC02
:1027400040F27040C4F20200864251D040F288400C
:1027500049E0180740F1228408208840104000F02A
:102760001D8440F20F40C4F20200864200F324832D
:102770006F20C4F20200864200F347833F20C4F278
:102780000200864200F38B831020C4F202008642CE
:1027900000F0A9832820A1E3D80300F1AD82E16C09
:1027A000002940F00483F9E34020C4F2020086428D
:1027B0001ED0582017E040F24040C4F2020086428A
:1027C00016D040F258400EE0A020C4F2020086422B
:1027D0000ED0B82007E040F2B840C4F202008642B2
:1027E00006D040F2A040C4F20200864240F0888247
:1027F000206804230068184209D02068036823F089
:1028000004030360AA60A06D40F00100A0650120F0
:1028100000FA01F23A4270D040F20F40C4F20200D6
:10282000864210DC6F20C4F2020086421CDC3F208E
:10283000C4F20200864232DC1020C4F2020086425A
:1028400051D028204AE04E451ADC40F23F40C4F205
:10285000020086422ADC40F21040C4F202008642A6
:1028600041D040F2284039E09F20C4F20200864265
:1028700025DC7020C4F20200864234D088202DE08E
:1028800040F29F40C4F2020086421FDC40F27040DA
:10289000C4F20200864226D040F288401EE040206A
:1028A000C4F2020086421ED0582017E040F2404099
:1028B000C4F20200864216D040F258400EE0A0203A
:1028C000C4F2020086420ED0B82007E040F2B840C1
:1028D000C4F20200864206D040F2A040C4F20200D8
:1028E000864240F010822068406900F0800020B1EC
:1028F000AA60A06D40F00200A065042000FA01F279
:102900003A4270D040F20F40C4F20200864210DC1E
:102910006F20C4F2020086421CDC3F20C4F2020099
:10292000864232DC1020C4F20200864251D02820B8
:102930004AE04E451ADC40F23F40C4F202008642B3
:102940002ADC40F21040C4F20200864241D040F23C
:10295000284039E09F20C4F20200864225DC702026
:10296000C4F20200864234D088202DE040F29F401D
:10297000C4F2020086421FDC40F27040C4F2020042
:10298000864226D040F288401EE04020C4F2020079
:1029900086421ED0582017E040F24040C4F20200A8
:1029A000864216D040F258400EE0A020C4F2020049
:1029B00086420ED0B82007E040F2B840C4F20200D0
:1029C000864206D040F2A040C4F20200864240F0A7
:1029D000A0812068006800F0020020B1AA60A06D0C
:1029E00040F00400A065102000FA01F139427ED0C9
:1029F00040F20F40C4F20200864210DC6F20C4F2A5
:102A0000020086421CDC3F20C4F20200864232DC17
:102A10001020C4F20200864251D028204AE04E45E0
:102A20001ADC40F23F40C4F2020086422ADC40F247
:102A30001040C4F20200864241D040F2284039E002
:102A40009F20C4F20200864225DC7020C4F20200FE
:102A5000864234D088202DE040F29F40C4F202002C
:102A600086421FDC40F27040C4F20200864226D04B
:102A700040F288401EE04020C4F2020086421ED090
:102A8000582017E040F24040C4F20200864216D0BF
:102A900040F258400EE0A020C4F2020086420ED060
:102AA000B82007E040F2B840C4F20200864206D0E7
:102AB00040F2A040C4F20200864240F03081266815
:102AC00008223068104212D0A960206801684903CA
:102AD000016806D4C90506D4016821F00801016027
:102AE00001E008034FD4616C09B120468847206E8D
:102AF000202100F01F008140394200F0A98040F2FF
:102B00000F432268C4F202039A4210DC6F23C4F21E
:102B100002039A421CDC3F23C4F202039A4236DCD1
:102B20001023C4F202039A4255D028234EE04A45AE
:102B30001ADC40F23F43C4F202039A422EDC40F218
:102B40001043C4F202039A4245D040F228433DE0CC
:102B50009F23C4F202039A4229DC7023C4F20203C9
:102B60009A4238D0882331E040F29F43C4F20203F6
:102B70009A4223DC40F27043C4F202039A422AD004
:102B800040F2884322E0E16C0029AED1AFE7402358
:102B9000C4F202039A421ED0582317E040F2404389
:102BA000C4F202039A4216D040F258430EE0A0232A
:102BB000C4F202039A420ED0B82307E040F2B843B1
:102BC000C4F202039A4206D040F2A043C4F20203C8
:102BD0009A4240F0A6802268102312681A4237D029
:102BE000A960A26B2168042A0A681BD122F0160290
:102BF0000A604A6922F080024A61626C0AB9E26C9A
:102C00001AB10A6822F008020A603F2101FA00F0B6
:102C1000A860002060630120A063616D002940F07E
:102C2000C680BBE1500308680AD4C0050CD408680C
:102C300020F010000860002060630120A06303E022
:102C4000000301D4A16C00E0216C09B12046884743
:102C5000A06D002800F0A281A06DC00700F0A38045
:102C60000420A06340F20F412068C4F202018842B0
:102C700010DC6F21C4F2020188421CDC3F21C4F247
:102C8000020188424FDC1021C4F2020188426FD059
:102C9000282167E048451ADC40F23F41C4F20201B6
:102CA000884247DC40F21041C4F2020188425FD002
:102CB00040F2284156E09F21C4F20201884242DCE2
:102CC0007021C4F20201884252D088214AE040F2C9
:102CD0009F41C4F2020188423CDC40F27041C4F2E0
:102CE0000201884244D040F288413BE0D80375D4C9
:102CF000A16C00295BD151E1616C002957D14DE1F4
:102D00000823304676E53068002000287FF4F0ADD7
:102D1000F3E53068002000287FF460AE63E604220B
:102D2000CFE6022359E74021C4F2020188421FD0B6
:102D3000582117E040F24041C4F20201884217D006
:102D400040F258410EE0A021C4F2020188420FD0A7
:102D5000B82107E040F2B841C4F20201884207D02E
:102D600040F2A041C4F20201884208BF206800E09E
:102D700020684FEA9821026822F00102026000BF39
:102D8000009801300090884203D820680068C0078E
:102D9000F6D12068002161630068C0074FF003008E
:102DA00008BF0120A063216D002900F0F7802046B4
:102DB000884701B0BDE8F0834E4532DC40F23F4029
:102DC000C4F20200864271DC40F21040C4F20200FC
:102DD000864200F0888040F228407FE0216C002984
:102DE000E5D1DBE04E454BDC40F23F40C4F202004F
:102DF000864200F3AD8040F21040C4F202008642E9
:102E000000F0C28040F22840BAE09F20C4F20200E5
:102E1000864254DC7020C4F20200864263D08820CF
:102E20005CE040F29F40C4F2020086424EDC40F279
:102E30007040C4F20200864255D040F288404DE016
:102E40004E456FDC40F23F40C4F20200864200F380
:102E5000AF8040F21040C4F20200864200F0C4800D
:102E600040F22840BCE09F20C4F20200864278DC99
:102E70007020C4F20200864200F0868088207FE045
:102E800040F29F40C4F20200864271DC40F2704082
:102E9000C4F20200864277D040F2884070E04020C1
:102EA000C4F2020086421ED0582017E040F2404093
:102EB000C4F20200864216D040F258400EE0A02034
:102EC000C4F2020086420ED0B82007E040F2B840BB
:102ED000C4F20200864206D040F2A040C4F20200D2
:102EE000864240F0908026686FF01C0230681040E7
:102EF0003060012000FA01F16960A0650021616382
:102F0000A063216D00297FF452AF47E09F20C4F2F7
:102F10000200864255DC7020C4F20200864263D073
:102F200088205DE040F29F40C4F2020086424FDC00
:102F300040F27040C4F20200864255D040F2884010
:102F40004EE04020C4F2020086421DD0582017E017
:102F500040F24040C4F20200864215D040F2584090
:102F60000EE0A020C4F2020086420DD0B82007E097
:102F700040F2B840C4F20200864205D040F2A040C0
:102F8000C4F20200864241D126686FF00801306821
:102F900008403060616C00297FF409AF01B0BDE8E2
:102FA000F0834020C4F2020086421DD0582017E072
:102FB00040F24040C4F20200864215D040F2584030
:102FC0000EE0A020C4F2020086420DD0B82007E037
:102FD00040F2B840C4F20200864205D040F2A04060
:102FE000C4F20200864214D126686FF014013068E2
:102FF00008403060002060630120A063216C00293C
:103000007FF4D5AECAE76FF00E026FE76FF00401F0
:10301000BDE76FF00A01EAE72DE9F04381B004460D
:1030200000F0DEFF002C00F0CC8240F26F48054635
:103030002068C4F20208404519DC9F21C4F2020155
:10304000884231DC5721C4F20201884256DC10214B
:10305000C4F20201884200F092802821C4F20201E9
:10306000884200F08C804021C4F2020184E045F2E5
:103070002F41C5F6020188422BDC40F2B741C4F271
:103080000201884248DC40F27041C4F202018842E9
:1030900075D040F28841C4F2020188426FD040F2FC
:1030A000A041C4F2020167E040F22741C4F20201EC
:1030B000884240DCA021C4F2020188425FD0B821DE
:1030C000C4F2020188425AD040F21041C4F2020117
:1030D00052E045F26B41C5F6020188423CDC45F204
:1030E0003041C5F60201884249D045F24441C5F657
:1030F0000201884243D045F258413BE05821C4F2D6
:10310000020188423BD07021C4F20201884236D0CD
:103110008821C4F202012FE040F2B841C4F202015A
:1031200088422CD045F20841C5F60201884226D0DB
:1031300045F21C411EE040F22841C4F202018842DF
:103140001DD040F24041C4F20201884217D040F243
:103150005841C4F202010FE045F26C41C5F602018C
:1031600088420CD045F28041C5F60201884206D063
:1031700045F29441C5F60201884240F05083A068B0
:1031800020B1402818BF802840F0B080E06840F4AB
:103190000070B0F5007F06D04BF66E00E321C0F65C
:1031A000010007F01DFB206940F48060B0F5806FDE
:1031B00006D04BF66E00E421C0F6010007F010FBCC
:1031C000606930B1B0F5006F18BFB0F5805F40F0B6
:1031D0009580A06930B1B0F5005F18BFB0F5804FA1
:1031E00040F09480E069FF2809DDB0F5807F18BFCA
:1031F000B0F5802F0DD0B0F5402F0AD002E040B1DD
:10320000202806D04BF66E00E721C0F6010007F03B
:10321000E7FA206A4FEA3040042806D34BF66E00E6
:10322000E821C0F6010007F0DBFA2068404517DC12
:103230009F21C4F2020188422DDC5721C4F2020111
:1032400088426BDC1021C4F20201884200F09580B4
:103250002821C4F20201884200F08F80402187E0DB
:1032600045F22F41C5F60201884227DC40F2B74102
:10327000C4F2020188425DDC40F27041C4F20201F6
:1032800088427AD040F28841C4F20201884274D068
:1032900040F2A0416CE040F22741C4F202018842B2
:1032A00058DCA021C4F20201884266D0B821C4F2E1
:1032B0000201884261D040F2104159E045F26B4171
:1032C000C5F60201884200F3E28045F23041C5F6BE
:1032D0000201884200F0EE8045F24441C5F6020149
:1032E000884200F0E78045F25841DEE04BF66E0080
:1032F000E221C0F6010007F073FA47E74BF66E00D3
:10330000E521C0F6010007F06BFA62E74BF66E00AC
:10331000E621C0F6010007F063FA63E75821C4F222
:103320000201884229D07021C4F20201884224D0CF
:1033300088211DE040F2B841C4F2020188421CD04D
:1033400045F20841C5F60201884200F0B38045F21B
:103350001C41AAE040F22841C4F2020188420CD08C
:1033600040F24041C4F20201884206D040F2584186
:10337000C4F20201884240F05A826068742806D381
:103380004BF66E00EC21C0F6010007F029FA606AE6
:1033900040F00400042806D04BF66E00ED21C0F684
:1033A000010007F01DFA606A08B3A06A042806D37A
:1033B0004BF66E00F221C0F6010007F011FAE06A48
:1033C0004FEAF050042806D34BF66E00F321C0F606
:1033D000010007F005FA206B4FEA7050042806D36D
:1033E0004BF66E00F421C0F6010007F0F9F9002059
:1033F00060630220A06340F20F412068C4F2020122
:10340000884212DC6F21C4F20201884220DC3F2195
:10341000C4F20201884200F39C801021C4F2020130
:10342000884200F0BB802821B2E040451EDC40F21B
:103430003F41C4F20201884200F3928040F2104101
:10344000C4F20201884200F0A98040F228419FE0C6
:103450009F21C4F20201884200F38B807021C4F2E4
:103460000201884200F09A80882191E040F29F4159
:10347000C4F20201884200F3838040F27041C4F23A
:103480000201884200F08A8040F2884180E045F2E3
:103490006C41C5F6020188420CD045F28041C5F668
:1034A0000201884206D045F29441C5F602018842E5
:1034B00040F0BD816068122807D34BF66E004FF4D0
:1034C000B371C0F6010007F08BF904F1080E00207B
:1034D00060630220A0639EE80640A1F1800320689B
:1034E000B3FA83F340294FEA5313D4E90579D4E9B9
:1034F000076C05684FEA83336FF3101508BF10237C
:1035000045EAD2014AF6F8321943CAF2FD7241EA9D
:10351000DE014CF6CD4341EAD701024441EAD9012C
:10352000CCF6CC4341EAD601A2FB032341EA1C11AD
:1035300001606FF0030000EA930020662046FDF76B
:1035400063FF216E012201F01F0102FA01F14160C7
:103550009AE04021C4F2020188421FD0582117E0AE
:1035600040F24041C4F20201884217D040F2584173
:103570000EE0A021C4F2020188420FD0B82107E07A
:1035800040F2B841C4F20201884207D040F2A041A3
:10359000C4F20201884208BF206800E02068016888
:1035A00021F00101016000BF27683868C0070CD016
:1035B00000F016FD401B0628F6D32020A06503204E
:1035C000A063012001B0BDE8F08348F23F0104F19F
:1035D00008053868CFF6106108402ECD0843A16970
:1035E0001043E2691843236A0543606A29430428AB
:1035F00041EA020141EA030103D1D4E90B2311435B
:10360000194341F20002C5F600421268B2F1005FB0
:1036100017D36268A2F12903202B06D23F25CCF2F2
:10362000C03525FA03F3DB0706D1A2F14F030022D0
:10363000042B38BF012200E00122002A18BF41F408
:10364000801139600428796921F0070141EA0005F9
:103650000FD1D4E90A1045EA010550B12046FEF722
:1036600033F830B14020A0650120A06301B0BDE86F
:10367000F08320467D61FDF7C7FE216E3F2201F0F9
:103680001F0102FA01F181602068404519DC9F2189
:10369000C4F20201884231DC5721C4F2020188429F
:1036A00056DC1021C4F20201884200F091802821EA
:1036B000C4F20201884200F08B804021C4F2020172
:1036C00084E045F22F41C5F6020188422BDC40F22E
:1036D000B741C4F20201884248DC40F27041C4F2B2
:1036E0000201884274D040F28841C4F2020188424B
:1036F0006ED040F2A041C4F2020167E040F22741DF
:10370000C4F20201884240DCA021C4F202018842D6
:103710005ED0B821C4F20201884259D040F2104173
:10372000C4F2020152E045F26B41C5F60201884243
:103730003CDC45F23041C5F60201884248D045F2F2
:103740004441C5F60201884242D045F258413BE06F
:103750005821C4F2020188423AD07021C4F2020119
:10376000884235D08821C4F202012FE040F2B841EE
:10377000C4F2020188422BD045F20841C5F602018D
:10378000884225D045F21C411EE040F22841C4F297
:10379000020188421CD040F24041C4F2020188423A
:1037A00016D040F25841C4F202010FE045F26C41DC
:1037B000C5F6020188420BD045F29441C5F60201DC
:1037C000884205D045F28041C5F6020188421FD1EA
:1037D0002046FDF7A9FEA068802801D10020606086
:1037E00004F164036068C7B201380ECB07280F608C
:1037F000536009D82046FDF70FFF04F17002002343
:1038000007CA03604A6003E00020A067C4E91C0007
:103810000020A0650121A16301B0BDE8F0834BF653
:103820006E00E121C0F6010006F0DAFFA7E44020B7
:10383000C4E60000000000002DE9F04381B01D4601
:10384000013B4FF6FF771646BB420F46044607D3AF
:103850004BF66E0040F2A921C0F6010006F0C0FF51
:1038600084B3606B012803D1022001B0BDE8F0836E
:1038700001206063A06B01281FD10220A0630020FB
:10388000A06540F20F492068C4F2020940F26F4877
:103890004845C4F2020819DC6F21C4F202018842D3
:1038A00025DC3F21C4F2020188423BDC1021C4F236
:1038B000020188425BD0282153E0002060634FF46E
:1038C0000060A065012001B0BDE8F08340451ADC2E
:1038D00040F23F41C4F2020188422ADC40F210412A
:1038E000C4F20201884242D040F2284139E09F21CF
:1038F000C4F20201884225DC7021C4F20201884230
:1039000035D088212DE040F29F41C4F20201884267
:103910001FDC40F27041C4F20201884227D040F21D
:1039200088411EE04021C4F2020188421FD0582184
:1039300017E040F24041C4F20201884217D040F241
:1039400058410EE0A021C4F2020188420FD0B821F4
:1039500007E040F2B841C4F20201884207D040F2C9
:10396000A041C4F20201884208BF206800E020683C
:103970000168324621F001010160204639462B469C
:10398000FDF7CAFE2068484510DC6F21C4F2020131
:1039900088421CDC3F21C4F20201884232DC102143
:1039A000C4F20201884251D028214AE040451ADC85
:1039B00040F23F41C4F2020188422ADC40F2104149
:1039C000C4F20201884241D040F2284139E09F21EF
:1039D000C4F20201884225DC7021C4F2020188424F
:1039E00034D088212DE040F29F41C4F20201884288
:1039F0001FDC40F27041C4F20201884226D040F23E
:103A000088411EE04021C4F2020188421ED05821A4
:103A100017E040F24041C4F20201884216D040F261
:103A200058410EE0A021C4F2020188420ED0B82114
:103A300007E040F2B841C4F20201884206D040F2E9
:103A4000A041C4F20201884240F02A812168626CE0
:103A50000B270B6867F344030B601AB10A6842F046
:103A600008020A60404519DC9F21C4F20201884225
:103A700031DC5721C4F20201884256DC1021C4F225
:103A80000201884200F091802821C4F2020188429C
:103A900000F08B804021C4F2020184E045F22F4106
:103AA000C5F6020188422BDC40F2B741C4F20201A4
:103AB000884248DC40F27041C4F20201884274D06E
:103AC00040F28841C4F2020188426ED040F2A04127
:103AD000C4F2020167E040F22741C4F202018842C9
:103AE00040DCA021C4F2020188425ED0B821C4F2B9
:103AF0000201884259D040F21041C4F2020152E062
:103B000045F26B41C5F6020188423CDC45F230418A
:103B1000C5F60201884248D045F24441C5F602018B
:103B2000884242D045F258413BE05821C4F202019C
:103B300088423AD07021C4F20201884235D08821EF
:103B4000C4F202012FE040F2B841C4F202018842FF
:103B50002BD045F20841C5F60201884225D045F236
:103B60001C411EE040F22841C4F2020188421CD0F0
:103B700040F24041C4F20201884216D040F258415E
:103B8000C4F202010FE045F26C41C5F60201884221
:103B90000BD045F29441C5F60201884205D045F2AA
:103BA0008041C5F60201884272D1616E0A68D20373
:103BB00003D50A6842F480720A60216F19B10A685D
:103BC00042F480720A60484510DC6F21C4F20201A1
:103BD00088421CDC3F21C4F20201884232DC102101
:103BE000C4F20201884252D028214AE040451ADC42
:103BF00040F23F41C4F2020188422ADC40F2104107
:103C0000C4F20201884242D040F2284139E09F21AB
:103C1000C4F20201884225DC7021C4F2020188420C
:103C200035D088212DE040F29F41C4F20201884244
:103C30001FDC40F27041C4F20201884227D040F2FA
:103C400088411EE04021C4F2020188421FD0582161
:103C500017E040F24041C4F20201884217D040F21E
:103C600058410EE0A021C4F2020188420FD0B821D1
:103C700007E040F2B841C4F20201884207D040F2A6
:103C8000A041C4F20201884208BF206800E0206819
:103C9000016841F001010160002001B0BDE8F0833E
:103CA0002168626C0527002A0B6867F343030B60E9
:103CB0003FF4D8AE0A6842F00402D2E600000000E9
:103CC0002DE9F04F85B0044600F1264000F1FF7069
:103CD0008C464FEAB02002900B28039108D34BF694
:103CE000C700BB21C0F6010006F07AFDDDF80CC06C
:103CF000DCF800000021B1EB104F01D180B240B9D7
:103D00004BF6C700BC21C0F6010006F069FDDDF8E6
:103D10000CC04FF6FF71DCF80400C1F210118842AC
:103D20000ADC12282DD8012101FA00F00F21C0F27F
:103D3000060108422ED124E04FF6FF71C1F2211195
:103D400088420FDC0021C1F21111884222D00021EB
:103D5000C1F2121188421DD00021C1F22111884206
:103D600018D00EE00021C1F22211884212D00021A9
:103D7000C1F2311188420DD00021C1F232118842C6
:103D800008D04BF6C700BD21C0F6010006F028FDA3
:103D9000DDF80CC0DCF80800032808D34BF6C70098
:103DA000BE21C0F6010006F01BFDDDF80CC0DCF8FA
:103DB0000000002800F0E78042F200410A22C5F628
:103DC000020101258C424FF0000808BF09224FF084
:103DD000000A4FF0010901920CE000BFDCF800007E
:103DE0000AF1040A30FA09F109F1010908F102089F
:103DF00000F0C980A9F1010705FA07F610EA060BE1
:103E0000ECD0DCF80400122825D805FA00F010F0F8
:103E1000061F20D0DCF80C00042808D34BF6C7009E
:103E2000CE21C0F6010006F0DBFCDDF80CC003215A
:103E3000A06801FA08F1DCF804208843DCF80C10D3
:103E400001FA08F10843A060C2F300116068B043B2
:103E5000B940084360600321E06801FA08F6DCE934
:103E6000011241F01001B04302FA08F2122940EAAF
:103E70000200E0602CD102980B2808D34BF6C70053
:103E8000E621C0F6010006F0ABFCDDF80CC0DCF862
:103E90001000102808D34BF6C700E721C0F6010038
:103EA00006F09EFCDDF80CC06FF003000AF01C0267
:103EB00000EA57000F23204493402546016ADCF8AE
:103EC0001040994304FA02F22C4601251143016285
:103ED0002068DCF8041001F00302F34302FA08F250
:103EE0001840C90040EA020020607FF577AF44F235
:103EF000F44140F20846C5F60201C5F6000608681E
:103F000040F00200086008680AF00C0100F00200AE
:103F10000490049827F00300029B019A0F27092BB5
:103F200038BF1A4683598F40BB43042702FA01F178
:103F3000C5F6000719438151F86FDCF8041040EA18
:103F40000B02CB0358BF20EA0B028B034FF0B046A5
:103F5000FA67D7F8800040EA0B0258BF20EA0B024C
:103F6000CB02C7F88020306840EA0B0258BF20EA35
:103F70000B0289023260386840EA0B0258BF20EA1F
:103F80000B023A602AE705B0BDE8F08F00000000A0
:103F900070B50C461646054671B1022E07D34BF696
:103FA000C7004FF4D771C0F6010006F019FC002ECF
:103FB00008BF2404AC6170BD4BF6C70040F2AD11E0
:103FC000C0F6010006F00CFC022EF0D3E7E700007B
:103FD00041F20000C5F600400068000C7047000088
:103FE00080B506F089FF022802D106F099FF80BD56
:103FF00040F204000021C2F200400068B1EB903FA3
:104000000ED0800B00BF00BF00BF00BF00BF00BFCD
:1040100000BF00BF00BF00BF00BF00BF0138F1D12B
:1040200040F21C11C2F2004108680130086080BDF6
:1040300080B5032000F070F901F07AFC44F21841D9
:1040400046F68033C5F60201C0F601030A68096826
:1040500001F00F01C2F30322595C9A5C01F01F01C9
:1040600002F01F02D04040F20802C2F2004220FAE1
:1040700001F1116040F20401C2F2004108600F201A
:1040800000F00AF800281CBF012080BD00F0F0F805
:10409000002080BD00000000B0B540F2B001C2F2C7
:1040A0000041096801B3044640F20400C2F2004036
:1040B0004FF47A72B2FBF1F10068B0FBF1F002F05C
:1040C000BBFB0F2C4FF001050CD858B94FF0FF3057
:1040D00000222146002500F0FBF840F2B400C2F2B5
:1040E000004004602846B0BD0120B0BD00000000C3
:1040F000B0B504464078102807D34BF6120040F2C2
:104100002D11C0F6010006F06BFB2078022807D3C2
:104110004BF612004FF49771C0F6010006F060FBF9
:1041200020784EF69C55CEF200056178002845F8BF
:10413000041C6FD0207B022807D34BF612004FF4EB
:104140009B71C0F6010006F04BFBE07A062865D8AB
:10415000042863D0A07A032807D34BF612004FF44B
:104160009C71C0F6010006F03BFB607B022807D380
:104170004BF6120040F23911C0F6010006F030FB98
:10418000A07B022807D34BF612004FF49D71C0F6B6
:10419000010006F025FBE07B022807D34BF6120056
:1041A00040F23B11C0F6010006F01AFB607AFF28CE
:1041B00007D14BF612004FF49E71C0F6010006F0D5
:1041C0000FFB207A04381C2807D34BF6120040F26C
:1041D0003D11C0F6010006F003FB60682860207BFB
:1041E000E17AA27A637B090641EA0070A17B40EA8A
:1041F000C240E27B40EA8340637A40EA4140217A50
:1042000040EA0240227840EA032040EA410010439D
:104210006860B0BD002028606860B0BD4BF6120039
:1042200040F23711C0F6010006F0DAFA92E700001A
:104230004EF62450CEF20000BFF35F8F016821F4E8
:10424000803101600021016770470000000000001C
:104250004EF6245140F00100CEF2000108670868D4
:1042600040F480300860BFF34F8FBFF36F8F70470B
:1042700080B582B044F2F4400022C5F60200016825
:1042800041F00201016000680E2100F0020001907F
:1042900001986FF0040000F01BF86FF001000F218F
:1042A000002200F015F802B080BD00000000000000
:1042B00010B50446B0F1FF3F06DC4BF61200BE21FC
:1042C000C0F6010006F08CFA204606F0E5F910BDB4
:1042D00070B51546102A0E46044606D34BF612005A
:1042E000AA21C0F6010006F07BFA102E06D34BF689
:1042F0001200AB21C0F6010006F072FA06F0E4F9F4
:1043000031462A4604F0B4FD0146204606F0E4F9A1
:1043100070BD00000000000010B5044603380528F9
:1043200006D34BF612009221C0F6010006F058FAAF
:10433000204606F0E5F910BDB0B504460138022864
:1043400007D34BF6211040F23F11C0F6010006F0F2
:1043500047FA44F60C05C5F60205286840072868A8
:1043600005D400F00700001B18BF0120B0BD20F0ED
:10437000070020432860FFF733FE044655F8080C79
:10438000800407D4FFF72CFE001BB0F57A7FF5D927
:104390000120B0BD0020B0BD80B501F079FA44F233
:1043A000204146F68032C5F60201C0F601020968D6
:1043B000C1F30211515C01F01F01C84080BD000033
:1043C00080B544F2384EC5F6020E5EF8103C5EF839
:1043D000101CC1F3053C5EF80C1CBCF1000FDEF8AC
:1043E000042014D0C1F30011C2F3CC02514300EEFB
:1043F000101A03F003010229B8EE400A0CD071B97B
:104400005EF8381C89060DD49FED341A18E000219F
:104410008160C0E9001180BD9FED2F1A10E09FED73
:104420002D1A0DE05EF8381C49F20002C0F2D032BD
:10443000C1F3C10122FA01F101EE101AB8EE411ADE
:10444000DEF800109FED263A6FF35F2102EE101A9E
:10445000DEF80010C1F34621B8EE422A00EE032A2E
:1044600000EE10CAB7EE003AB8EE400A81EE000A3C
:1044700032EE031A02EE101AB8EE422A20EE010ABA
:1044800032EE031A80EE011ABCEEC11A80ED001A5A
:10449000DEF80010C1F3064101EE101AB8EE411A21
:1044A00031EE031A80EE011ABCEEC11A80ED011A3A
:1044B000DEF80010C1F3066101EE101AB8EE411AE1
:1044C00031EE031A80EE010ABCEEC00A10EE101A9B
:1044D000816080BD0024744A001B374B0024744C5B
:1044E000000000390000000080B544F2404EC5F6DF
:1044F000020E5EF8183C5EF8181CC1F3055C5EF80D
:10450000141CBCF1000FDEF8042014D0C1F300210C
:10451000C2F3CC02514300EE101A03F0030102294A
:10452000B8EE400A0CD071B95EF8401C89060DD473
:104530009FED341A18E000218160C0E9001180BDB0
:104540009FED2F1A10E09FED2D1A0DE05EF8401C34
:1045500049F20002C0F2D032C1F3C10122FA01F1E6
:1045600001EE101AB8EE411ADEF800109FED263A5F
:104570006FF35F2102EE101ADEF80010C1F346213E
:10458000B8EE422A00EE032A00EE10CAB7EE003A57
:10459000B8EE400A81EE000A32EE031A02EE101A5B
:1045A000B8EE422A20EE010A32EE031A80EE011A1A
:1045B000BCEEC11A80ED001ADEF80010C1F306410E
:1045C00001EE101AB8EE411A31EE031A80EE011A0C
:1045D000BCEEC11A80ED011ADEF80010C1F30661CD
:1045E00001EE101AB8EE411A31EE031A80EE010AFC
:1045F000BCEEC00A10EE101A816080BD0024744A1F
:10460000001B374B0024744C0000003900000000F0
:104610002DE9F04381B00446C07844F22C490007EC
:10462000C5F6020923D5606E4FEA305003280DD835
:104630000026DFE800F0020E3313D9F80000002650
:1046400040F40030C9F8000096B908E001267EB9B0
:1046500005E0201D022104F06FFC064646B9D9F89A
:104660002400616E20F440100843C9F8240000269D
:104670006078C00701D1354631E0606D042816D856
:104680003546DFE800F003161B212100D9F80000B1
:10469000354640F40030C9F8000015E004F124006C
:1046A000022104F03DFD0646002EE1D1D7E70125A9
:1046B0000AE0201D002104F03FFC04E004F1240086
:1046C000002104F02DFD05462F464DB9D9F82400F0
:1046D000616D20F0070000250843C9F82400374623
:1046E0006078800728D5A06D4FEAB01004280BD859
:1046F000DFE800F0030C11171700D9F8000040F4B0
:104700000030C9F800000CE001250AE0201D00215E
:1047100004F012FC04E004F12400002104F000FD88
:1047200005462E464DB9D9F82400A16D20F4E0705D
:1047300000250843C9F824003E46607840072AD582
:10474000D4F8A4004FEA705004280BD8DFE800F03A
:10475000030C11171700D9F8000040F40030C9F815
:1047600000000CE001250AE0201D002104F0E4FB1C
:1047700004E004F12400002104F0D2FC0546A84620
:1047800055B9D9F82C00D4F8A41020F46000002505
:104790000843C9F82C00B046607800072AD5D4F841
:1047A000A8004FEA306004280BD8DFE800F0030CC3
:1047B00011171700D9F8000040F40030C9F80000C4
:1047C0000CE001250AE0201D002104F0B5FB04E007
:1047D00004F12400002104F0A3FC05462F4655B93E
:1047E000D9F82C00D4F8A81020F0E0600025084388
:1047F000C9F82C004746E078800721D5A06C4FEA25
:10480000301003280AD8DFE800F010020B10D9F8A6
:10481000000040F40030C9F8000006E0012504E083
:10482000201D022104F088FB05462E464DB9D9F81B
:104830002000A16C20F0300000250843C9F82000BA
:104840003E466078C00628D5E06D4FEA3030042837
:104850000BD8DFE800F0030C11171700D9F800009F
:1048600040F40030C9F800000CE001250AE0201DEA
:10487000002104F061FB04E004F12400002104F0B5
:104880004FFC05462F464DB9D9F82400E16D20F4C0
:10489000E04000250843C9F82400374660788006C8
:1048A00021D5206E4FEA3040052809D8DFE800F016
:1048B00010030A101010201D012104F03DFB06E03A
:1048C000012505E004F12400012104F029FC05463E
:1048D0002E464DB9D9F82400216E20F4E0200025A1
:1048E0000843C9F824003E466078400623D5D4F832
:1048F000AC004FEA3070052809D8DFE800F010035B
:104900000A101010201D012104F016FB06E00125FD
:1049100005E004F12400012104F002FC05462F46C5
:1049200055B9D9F82C00D4F8AC1020F0E04000259F
:104930000843C9F82C0037466078000620D5E06EA1
:1049400098B1B0F1005F09D0B0F1805F0CD1D9F817
:10495000000040F40030C9F8000006E0201D0121ED
:1049600004F0EAFA054600E001252E464DB9D9F8D3
:104970002400E16E20F0405000250843C9F82400CF
:104980003E46E078C0071FD0606C03280AD8DFE8F5
:1049900000F010020B10D9F8000040F40030C9F804
:1049A000000006E0012504E0201D022104F0C4FA05
:1049B0000546A8464DB9D9F82000616C20F00300E7
:1049C00000250843C9F82000B046A078400601D46D
:1049D000464672E240F2FF21D4F8B000C0F2020174
:1049E00088421ADC40F2FF21C0F2010188423ADC21
:1049F000B0F5034F75DAB0F5864F80F2D080B0F590
:104A00000C5F80F25681B0F5807F00F0E981B0F54F
:104A1000007F00F0E58100F0F0BC40F2FF21C0F221
:104A2000030188423FDC48F2FF21C0F202018842C4
:104A300069DC44F2FF21C0F20201884200F3BD802C
:104A400042F2FF21C0F20201884200F3398140F2B4
:104A50000031C0F20201884200F0C28141F200310F
:104A6000C0F20201B9E148F2FF21C0F2010188421F
:104A700063DC44F2FF21C0F20101884200F3B08000
:104A800042F2FF21C0F20101884200F3258140F289
:104A90000031C0F20101884200F0A28141F20031F0
:104AA000C0F2010199E148F2FF21C0F203018842FE
:104AB0005DDC44F2FF21C0F20301884200F3A380D1
:104AC00042F2FF21C0F20301884200F3108140F25C
:104AD0000031C0F20301884200F0828141F20031CE
:104AE00079E1B0F5434F80F29F80B0F5234F80F21B
:104AF0000781B0F5034F00F07381B0F5134F00F05C
:104B00006F8100F07ABC4CF2FF21C0F202018842B2
:104B100000F398804AF2FF21C0F20201884200F3BC
:104B2000F48048F20031C0F20201884200F058815E
:104B300049F20031C0F202014FE14CF2FF21C0F214
:104B40000101884200F391804AF2FF21C0F2010185
:104B5000884200F3E58048F20031C0F2010188424A
:104B600000F03E8149F20031C0F2010135E14CF222
:104B7000FF21C0F20301884200F38A804AF2FF213C
:104B8000C0F20301884200F3D68048F20031C0F23F
:104B90000301884200F0248149F200311BE1B0F5A5
:104BA000C64F80F2D180B0F5864F00F01981B0F584
:104BB000A64F00F0158100F020BC46F2FF21C0F2A4
:104BC0000201884200F3C58044F20031C0F20201C4
:104BD000884200F0058145F20031C0F20201FCE09C
:104BE00046F2FF21C0F20101884200F3BD8044F289
:104BF0000031C0F20101884200F0F28045F200313C
:104C0000C0F20101E9E046F2FF21C0F2030188424F
:104C100000F3B58044F20031C0F20301884200F095
:104C2000DF8045F20031D6E0B0F5634F80F2B0800E
:104C3000B0F5434F00F0D480B0F5534F00F0D08072
:104C400000F0DBBB4EF2FF21C0F20201884200F30C
:104C5000A4804CF20031C0F20201884200F0C08012
:104C60004DF20031C0F20201B7E04EF2FF21C0F276
:104C70000101884200F39C804CF20031C0F2010136
:104C8000884200F0AD804DF20031C0F20101A4E095
:104C90004EF2FF21C0F20301884200F394804CF2EF
:104CA0000031C0F20301884200F09A804DF20031D9
:104CB00091E000F09580B0F54C5F00F091809CE3AE
:104CC00042F20031C0F20201884200F0898043F2D2
:104CD0000031C0F2020180E042F20031C0F2010175
:104CE00088427DD043F20031C0F2010175E042F20A
:104CF0000031C0F20301884272D043F200316AE011
:104D00006ED0B0F5334F6BD077E34AF20031C0F28A
:104D10000201884264D04BF20031C0F202015CE033
:104D20004AF20031C0F20101884259D04BF2003101
:104D3000C0F2010151E04AF20031C0F203018842A1
:104D40004ED04BF2003146E04AD0B0F5E64F47D0A6
:104D500053E346F20031C0F20201884240D047F2EC
:104D60000031C0F2020138E046F20031C0F2010128
:104D7000884235D047F20031C0F201012DE046F201
:104D80000031C0F2030188422AD047F2003122E00C
:104D900026D0B0F5734F23D02FE34EF20031C0F28E
:104DA000020188421CD04FF20031C0F2020114E02F
:104DB0004EF20031C0F20101884211D04FF20031B1
:104DC000C0F2010109E04EF20031C0F20301884255
:104DD00006D04FF20031C0F20301884240F00D834B
:104DE000D9F8D40340F48070C9F8D403FFF7F8F879
:104DF000064600BFD9F8D403C00505D4FFF7F0F884
:104E0000801B6528F6D30325002D2E4655D1D9F8F1
:104E10004410D4F8B000414011F4407F11D0D9F8CB
:104E20004410D9F8442042F48032C9F84420D9F81B
:104E3000442021F4407122F48032C9F84420C9F89A
:104E40004410B0F5807F11D1FFF7CAF8054641F252
:104E5000893700BFD9F8440010F0020609D1FFF7E6
:104E6000BFF8401BB842F5D3032503E00025012617
:104E700003E00025002E18BF0126002E2E461CD070
:104E80004FF6CF73D4F8B00059F81C2CC0F2FF03D2
:104E900000F4407122F47C5203EA1013B1F5407F14
:104EA00008BF1A436FF31F30002549F81C2CD9F8AE
:104EB00044100843C9F844008AE52078C00721D08F
:104EC000A06F4FEAF000052809D8DFE800F01003D2
:104ED0000A101010201D012104F02EF806E0012513
:104EE00005E004F12400012104F01AF905462F46DB
:104EF0004DB9D9F82800A16F20F0380000250843EB
:104F0000C9F828003746207880071FD5606F05282C
:104F100009D8DFE800F010030A101010201D01214D
:104F200004F00AF806E0012505E004F1240001215F
:104F300004F0F6F805462E464DB9D9F82800616F01
:104F400020F0070000250843C9F828003E462078D5
:104F5000400721D5D4F89000052809D8DFE800F0F3
:104F600010030A101010201D012103F0E5FF06E0D8
:104F7000012505E004F12400012104F0D1F80546E3
:104F8000A84655B9D9F82C00D4F8901020F00700A5
:104F900000250843C9F82C00B0462078800623D5A8
:104FA000D4F88C004FEA3070052809D8DFE800F00B
:104FB00010030A101010201D002103F0BDFF06E0B1
:104FC000012505E004F12400022104F0A9F80546BA
:104FD0002F4655B9D9F82800D4F88C1020F0E040BD
:104FE00000250843C9F8280047462078400623D505
:104FF000D4F898004FEAB020052809D8DFE800F07F
:1050000010030A101010201D002103F095FF06E088
:10501000012505E004F12400022104F081F8054691
:105020002E4655B9D9F82C00D4F8981020F4E05049
:1050300000250843C9F82C003E462078000623D5F9
:10504000D4F89C004FEA7030052809D8DFE800F05A
:1050500010030A101010201D002103F06DFF06E060
:10506000012505E004F12400022104F059F8054669
:105070002F4655B9D9F82C00D4F89C1020F4604084
:1050800000250843C9F82C0037462078000723D5AF
:10509000D4F880004FEA3030042807D34BF6D610FE
:1050A00040F20F51C0F6010005F09AFBD4F88000E1
:1050B000B0F5805F07D104F12400022104F030F83C
:1050C000002818BF0127D9F82800D4F8801020F450
:1050D00040500843C9F828002078C0062BD5D4F8E2
:1050E0009400B0F5007F04DA78B1B0F5807F0CD081
:1050F00003E00AD0B0F5405F07D04BF6D61040F27F
:105100002251C0F6010005F06BFBD4F89400B0F515
:10511000807F07D104F12400022104F001F8002867
:1051200018BF0127D9F82C00D4F8941020F440704F
:105130000843C9F82C00A078000722D5D4F8A000B5
:10514000B0F5003F11D0B0F5803F06D060B9201D0A
:10515000002103F0F1FE054607E004F124000221DE
:1051600003F0DEFF054600E001252E4655B9D9F8CB
:105170002C00D4F8A01020F4403000250843C9F8D2
:105180002C003E46A078400725D5D4F88400B0F521
:10519000401F14D0B0F5001F09D0B0F5801F0DD10D
:1051A000D9F8000040F40030C9F8000007E004F12D
:1051B0002400012103F0B4FF054600E001252F463D
:1051C00055B9D9F82800D4F8841020F440100025EF
:1051D0000843C9F828003746A078C0072BD0E06CF8
:1051E00040F48030B0F5803F07D04BF6D6104FF436
:1051F000B161C0F6010005F0F3FAE06CB0F5803F54
:1052000007D060B9D9F8000040F40030C9F80000B8
:1052100006E0201D022103F08FFE054600E0012577
:105220002E464DB9D9F82000E16C20F480300025DD
:105230000843C9F820003E46E078800607D504F10F
:105240002400022103F06CFF002818BF012620680B
:10525000810316D5E16F6FF0010202EB3122022AC1
:105260000BD34FEA312242B1012A40F0A580D9F890
:10527000002042F40032C9F80020002D00F0A08088
:105280000126C00215D5206F40F00040B0F1004F5C
:1052900007D04BF6D61040F2E751C0F6010005F0FA
:1052A0009FFAD9F82400216F20F000400843C9F884
:1052B0002400E078C00617D5D4F8B40040F480404C
:1052C000B0F5804F07D04BF6D61040F2F151C0F642
:1052D000010005F085FA59F81C0CD4F8B41020F43C
:1052E0008040084349F81C0CA078800615D5A06EB4
:1052F00040F08070B0F1807F07D04BF6D61040F2BE
:10530000FB51C0F6010005F06BFAD9F82400A16E3C
:1053100020F080700843C9F82400E07840061BD5CF
:10532000D4F8B80040F40040B0F5004F07D04BF679
:10533000D61040F21161C0F6010005F051FA59F89B
:105340001C0C20F4004049F81C0CD4F8B80059F8A3
:105350001C1C084349F81C0C2068B0F1FF3F0FDC0F
:10536000206D28B1B0F1805F18BFB0F1005F3BD174
:10537000D9F82000216D20F040500843C9F82000E2
:10538000A078000611D5D4F8880028B1B0F5800FB8
:1053900018BFB0F5000F1ED1D9F82800D4F8881036
:1053A00020F440000843C9F82800002E18BF012649
:1053B000304601B0BDE8F0830125002D7FF460AFD9
:1053C000D9F8282022F440721143C9F82810C002ED
:1053D0003FF559AF6DE74BF6D61040F22561C0F6A8
:1053E000010005F0FDF9D7E74BF6D61040F21B613E
:1053F000C0F6010005F0F4F9BAE74BF6D61040F21A
:105400007F31C0F6010005F0EBF9E9E4000000008F
:105410002DE9F04381B0002800F0E38104460068E4
:1054200001380D463F2807D34BF67D1040F28631F8
:10543000C0F6010005F0D4F9102D07D34BF67D100E
:1054400040F28731C0F6010005F0CAF942F20008C7
:10545000C5F20028D8F8000000F00F00A8420DD2D5
:10546000D8F8000020F00F002843C8F80000D8F852
:10547000000000F00F00A84240F0B381207844F211
:105480001849C5F6020940071FD52069D9F8001050
:1054900001F07001884218D96FF0030101EB30115F
:1054A00004290AD34FEA301038B14BF67D1040F290
:1054B000A331C0F6010005F093F9D9F80000216985
:1054C00020F070000843C9F80000207800071FD5BD
:1054D0006069D9F8041001F07001884218D96FF0A2
:1054E000030101EB301104290AD34FEA301038B11F
:1054F0004BF67D1040F2B531C0F6010005F070F9B1
:10550000D9F80400616920F070000843C9F804006C
:105510002078C0061FD5A069D9F8041001F4E06115
:10552000884218D96FF0030101EB302104290AD316
:105530004FEA302038B14BF67D1040F2C631C0F64C
:10554000010005F04DF9D9F80400A16920F4E060EC
:105550000843C9F80400207880061FD5E069D9F80F
:10556000081001F07001884218D96FF0030101EBB7
:10557000301104290AD34FEA301038B14BF67D10B0
:105580004FF47671C0F6010005F02AF9D9F8080049
:10559000E16920F070000843C9F80800207880070E
:1055A00013D5E068D9F8001001F00F0188420CD93A
:1055B000A0F10801082980F05281D9F80000E168C3
:1055C00020F00F000843C9F800002078C00740F021
:1055D000E2802078800713D5E068D9F8001001F048
:1055E0000F0188420CD2A0F10801082980F0438104
:1055F000D9F80000E16820F00F000843C9F8000066
:10560000D8F8000000F00F00A8420DD9D8F800002B
:1056100020F00F002843C8F80000D8F8000000F080
:105620000F00A84240F0DD80207840071FD5206998
:10563000D9F8001001F07001884218D26FF0030110
:1056400001EB301104290AD34FEA301038B14BF680
:105650007D1040F25E41C0F6010005F0C1F8D9F8B6
:105660000000216920F070000843C9F8000020788C
:1056700000071FD56069D9F8041001F07001884255
:1056800018D26FF0030101EB301104290AD34FEA5D
:10569000301038B14BF67D104FF48E61C0F601002A
:1056A00005F09EF8D9F80400616920F07000084305
:1056B000C9F804002078C0061FD5A069D9F80410E5
:1056C00001F4E061884218D26FF0030101EB302150
:1056D00004290AD34FEA302038B14BF67D1040F24E
:1056E0008241C0F6010005F07BF8D9F80400A169F9
:1056F00020F4E0600843C9F80400207880061FD534
:10570000E069D9F8081001F07001884218D26FF0F2
:10571000030101EB301104290AD34FEA301038B1EC
:105720004BF67D1040F29441C0F6010005F058F8A8
:10573000D9F80800E16920F070000843C9F80800B2
:1057400000F0F6F8D9F8001046F68032C0F60102F3
:10575000D9F80030C1F3032103F00F03515CD25C90
:1057600001F01F01C84002F01F0140F2080220FAB8
:1057700001F1C2F20042116040F2040140F2B402B1
:10578000C2F20041C2F2004208601068FEF784FCD9
:1057900001B0BDE8F083A0686FF0070101EB302194
:1057A00008294FD26068042807D34BF67D104FF4C8
:1057B0007F71C0F6010005F013F8D9F8000020F45D
:1057C0007061D4E90102012841EA0201C9F8001020
:1057D0000BD003282CD002282FD159F8181C89038C
:1057E00007D4012001B0BDE8F08359F8181CC905A1
:1057F000F7D559F8081C21F00701084349F8080CAF
:10580000FEF7EEFB064641F2883700BF59F8080C58
:10581000616800F03800B0EBC10F3FF4DAAEFEF77C
:10582000DFFB801BB842F1D9032001B0BDE8F08353
:1058300059F8181C8901D4D5DBE759F8181C490719
:10584000CFD5D6E74FEA30200028ABD04BF67D10FD
:1058500040F2FB31C0F6010004F0C2FFA2E70028CD
:105860003FF4ABAE4BF67D1040F2EB31C0F60100D9
:1058700004F0B6FFA1E600283FF4BAAE4BF67D1067
:1058800040F23D41C0F6010004F0AAFFB0E600007E
:1058900080B500F04DF844F2184146F68033C5F665
:1058A0000201C0F601030A68096801F00F01C2F3A2
:1058B0000322595C9A5C02F01F0220FA02F201F006
:1058C0001F0040F2080122FA00F0C2F20041086015
:1058D00040F20401C2F200410A6080BD00000000F5
:1058E00080B5FFF7D5FF44F21C4146F68032C5F67D
:1058F0000201C0F601020968C1F30211515C01F016
:105900001F01C84080BD000080B5FFF7C1FF44F211
:105910001C4146F68032C5F60201C0F60102096854
:10592000C1F30221515C01F01F01C84080BD00009D
:1059300044F20041C5F602010869C0F3C200032821
:105940000FD002282AD070BB0868800649F20000F8
:10595000C0F2D03058BF70470968C1F3C101C840D8
:1059600070478A6A886AC0F3051CC86ABCF1000FD8
:105970004B6B1DD0C3F3CC0300F00100584302F081
:105980000302022A00EE100AB8EE400A12D0A2B9B1
:105990000868800614D49FED261A1EE041F60030F8
:1059A000C0F2B700704740F60010C0F23D007047EB
:1059B000002070479FED1D1A0FE09FED1B1A0CE0B1
:1059C000086849F20002C0F2D032C0F3C10022FAE6
:1059D00000F001EE100AB8EE411A086B9FED153A7F
:1059E0006FF35F2002EE100A086BC0F34620B8EE9A
:1059F000422A013000EE032A00EE10CAB7EE003A48
:105A0000B8EE400A81EE000A32EE031A20EE010AD7
:105A100001EE100AB8EE411A80EE010ABCEEC00A8F
:105A200010EE100A704700BF0024744A001B374B69
:105A30000024744C000000392DE9F04381B0B0B36C
:105A40008046006850B110F03F0007D14BF67D1042
:105A500040F2A311C0F6010004F0C2FE98F8000065
:105A600044F20049C5F60209C0076CD0D8F804001A
:105A700028B1B0F5803F18BFB0F5A02F2DD1D9F8CF
:105A8000100000F03801D9F82800102905D0182995
:105A90000FD100F0030002280BD1D9F800008003D9
:105AA0004DD5D8F80400002849D1012538E001255A
:105AB0000AE3D8F804402CB1B4F5A02F16D0B4F501
:105AC000803F19D0D9F8000020F48030C9F80000D8
:105AD000D9F8000020F4802012E04BF67D104FF43E
